:400000000080002011000000D9310000D931000008B5044B1A6803F53F5302331A6003F0F9F800BFFA46004010B5054C237833B9044B13B10448AFF300800123237010BD6F
:40004000A081FF1F00000000546A0000084B10B51BB108480849AFF300800848036803B910BD074B002BFBD0BDE81040184700BF00000000546A0000A481FF1F0881FF1F95
:4000800000000000044A137801331370034A137801331370704700BF918CFF1F4988FF1F08B504F0C5FD044A136801331360BDE8084004F0C1BD00BF9886FF1FF8B503F0A4
:4000C00053FB03F077FB04F0B3FD044603F038FB00F00F0503F02EFB0646204604F0ACFD0B2D3AD8214C012D665509D1162E01D1F92303E00A2E0CBFFC23FE2323702CE059
:400100000B2D2AD11A4F1B4B3D781B78013505F03F05AB4209D10C222046002105F051FA154A13780133137017E004F081FD134A134E3B78126806EB0313DA6004F07CFDA7
:4001400094E807003B7806EB031383E80700204600210C2205F035FA3D7003F031FB03F0F5FABDE8F84003F01FBB00BF6887FF1F6487FF1F908CFF1F8B8CFF1F9886FF1F1F
:400180005882FF1F70B5044686B000286ED0384D2A78012A01D9042A31D1216AE369012A0B444FEA43030DD16278F92A0BD126796179E2782F488DE80A002F49334605F0AA
:4001C0007DFB18E02AB92D4922692A4805F076FB11E0042A0FD12A4A2648127829490092227D0192627D0292A27D0392E27D0492226905F063FB00201E4902F051FF6B788C
:40020000012B01D9042B31D1226AE36913442A785B00012A0DD16278F92A0BD125796179E27814488DE80A0013492B4605F046FB15E02AB9114922690E4805F03FFB0EE099
:40024000042A0CD1227D0B480092627D0E490192A27D0292E27D0392226905F02FFB0549012006B0BDE8704002F01ABF06B070BDBC81FF1F2487FF1F876A00009B6A000093
:400280004682FF1FA86A0000CA6A000030B5034685B040B3154C2278062A02D06278062A21D11D6AD969124A29444908587D12780091197D0290019103901B690D480E4973
:4002C00005F0FCFA2378062B03D10020094902F0E7FE6378062B06D10649012005B0BDE8304002F0DDBE05B030BD00BFBC81FF1F4682FF1F2487FF1FE76A00002DE9F0417D
:4003000086B000285DD0304C2378052B02D06378052B56D1026AC3692C4913445B084FF47A72B3FBF2FE02FB1E370B68827D01330B6088463AB12649097821B18A422CBFBE
:400340000221032100E002210669224A224D12788DE840400297077D0397407D059104901E49284605F0AAFA284605F009FB411C2944284602F0EAFD1949009001222B4660
:40038000184805F09BFAD8F800201749174802F00F0341F8232000EB8310124905F0E8FA2378052B03D100200E4902F079FE6378052B06D10B49012006B0BDE8F04102F020
:4003C0006FBE06B0BDE8F081BC81FF1F948CFF1F988CFF1F4682FF1F2487FF1F076B0000266B00005886FF1FA48CFF1F4A88FF1F08B572B60B4B18600B4B18600B4B1860EE
:400400000B4B18600B4B18600B4B186000230B4A1A441033B3F5806FD060F8D102F0A8FA62B608BD9886FF1F8C8CFF1F7C87FF1F9C8CFF1F4882FF1FA086FF1F5882FF1F3B
:40044000114B124A197810B51170114C5978114A9B781170237004F0ADFA237813B940F0040003E0430702D580F00400C0B204F09BFA207804F000FB2078400804F002FB3C
:40048000BDE8104004F042BB806A00004888FF1F4582FF1F4482FF1F034B044A597911709A79034B1A707047806A00004682FF1F988CFF1F10B9044B19707047012804BFCE
:4004C000014B5970704700BFBC81FF1F084BDA78DA78082A9EBFDA7806490A701A791B79082B9FBF024A034B12795A70704700BF806A0000BC81FF1F2DE9F0470546B2B019
:400500000C4611B9A24B1B7804E0012940F085819F4B5B78052B40F08081284602F0E8FC002800F07A81284605F02AFA0228994E40F25681284602F01FFD002801F00782A7
:400540000021142210A805F03CF832A9002301F8943D284610AA02F04DFD012840F340813278109B934240F008819DF834303F2B41F00382022800F03381129B252B01F240
:40058000FC81DFE813F02600E4093100FA09FA094600FA09FA09FA09770087009E00AA00AF00B400E409FA09FA09FA09FA09FA09FA09FA09FA09FA09FA09FA09FA09FA099E
:4005C000FA09FA09FA09FA09F400FA09FA09FA09E5000020704F714DFFF70AFF00233B6028466F49327875E0032800F0F980139A00236C4951F82310914205D16A49204637
:4006000001EB831101F0A0B90133102BF1D10521E7E0032800F0E480139F4FF47A705F4D7843FFF7E5FE2846327860495A4E0097336805F043F9284605F0A2F9411C2944A0
:40064000284602F083FC01220090594959482B4605F034F932685349534802F00F0341F8232000EB8310534905F082F92046514901F06AB9032800F0B380139F4FF47A70F6
:40068000464D7843FFF7B4FE32782846424E00974949CDE704F0CCFA484B404D1F6804F0CBFA4FF47A71B7FBF1F33278009301FB1373394E019328464149336805F0FEF889
:4006C000B9E7364D0020FFF793FE2846324F3D4932783B6805F0F2F88EE0304D2E4E2846394948E003280CBF0121032179E00328294F2A4DDFF8AC90DFF8AC8005D1284607
:4007000032493B6805F0DAF80BE0042801F01F81139B28460093149B2D4901933B6805F0CDF8284605F02CF9411C2944284602F00DFC2B4600901E491E48012205F0BEF810
:400740003B6803F00F0049F8203008EB80108AE7032845D0139B2BB9104D0F4E009328461C4965E7022B01F00881072139E00B4D094E28461849336806E0084D064E284613
:40078000336816490133336005F098F853E700BFBC81FF1F4682FF1F948CFF1F2487FF1F306B0000A48CFF1F4A88FF1F3C6B0000266B00005886FF1F4C6B00009886FF1FB2
:4007C0005C6B0000716B00007E6B00008B6B00009C6B0000B16B0000C26B0000EA6B00000121A94FA94D3B68327801333B6028460091A74905F062F8284605F0C1F8411CEF
:400800002944284602F0A2FB01220090A149A2482B4605F053F83A681DE728469F4905F09DF830B920469E4902F03AFC2046022155E028469B4905F091F8064630B9204609
:40084000994902F02DFC2046314648E02846974905F084F830B92046954902F021FC204604213CE02846934905F078F830B92046914902F015FC2046052130E028468F4917
:4008800005F06CF830B920468D4902F009FC2046062124E028468B4905F060F8A0B914B9894B5B7803E0012C07D1874B1B78072B03D12046854901F047B82046844902F03A
:4008C000EFFB204607210AE02846824905F046F848B92046804902F0E3FB20460121FFF7E9FD01F04AB828467C4905F037F858B97B4A204613787B49013313707A4A1378EB
:400900000133137001F020B82846784905F026F850B904F08DF9764B1D6804F08DF95B487449AA0000F0ACBF2846734905F030F8A84222D100F10903184613F8012B202A4D
:40094000FAD01AB920466D4900F0FEBF32AA4FF0FF3342F8883D6A4904F0D4FF012802D11098431C03D12046664900F0EDBFFFF73FFD4648644900F0A9BD2846634904F0F2
:40098000EDFF80B9624D2B781BB12046614900F0DBBF01F0A9FC01232B7001F0C3FC20465D4900F0D1BF28465C4904F0D7FF78B9574B1A781AB92046594900F0C5BF1870B0
:4009C00001F0D4FC01F090FC2046564900F0BCBF2846554904F0C2FF58B94D4B1B78002BE9D04FF4684001F056FD20464F4900F0ABBF28464E4904F0CBFF854240F0438163
:400A0000434B1B78002BD6D04FF6FF7310AF3846002128220C9304F0D4FD09352B4615F8012B202AFAD0562A0ABF2B46002601261D4613F8012B202AFAD01AB920463D4991
:400A400000F082BF28463C490CAA04F05BFF012805D14FF6FF73DDF83080984503D12046364900F071BF2B1D15F8012F0AB19D42FAD1A94615F8013B202BFAD0002B61D1C9
:400A800020462F4900F060BF948CFF1F2487FF1FD96B0000266B00005886FF1FF86B0000056C0000176C0000216C00004C6C00005D6C0000736C00007E6C00008E6C000049
:400AC000996C0000A96C0000BC81FF1FB76C0000E66C0000F96C00000B6D0000857400004988FF1F416D0000918CFF1F506D00009886FF1F596D0000726D00007C6D0000D7
:400B0000916D0000956D0000A86D0000C16D0000998CFF1FD36D0000F26D00000E6E00001E6E0000396E0000536E0000606E0000776E0000816E0000996E00009E6E00006B
:400B4000B46E000000254FF6FF7A32AA42F894AD4846B64904F0D6FE012802D10D9B534503D12046B24900F0EFBE47F82530013509F1040319F8012F0AB94A4602E0994597
:400B8000F8D1FAE713789146202B02F10102F9D00BB10A2DD7D148F20A030C98984203D92046A44900F0D0BEB0F5004F3FD336B3002648F203020C9BF018904203D941F62A
:400BC0004672934212D901F049FC57F8269000211FFA89F001F0C8FC0120002101F068FC484503D02046944900F0AEBE0136AE42DFD19248924942462B4600F0A1BE01F07F
:400C00002DFC48F203020C9BF118914206D941F64672934202D801F035FC04E037F82600012101F0A1FC0136AE42EAD1E1E7FEB101F014FC002657F8269000211FFA89F009
:400C400001F092FC0120002101F032FC484508D000907C490C9A4B46784804F02FFE00F071BE0C9B01360133AE420C93E3D1C0E701F0F4FB37F826000121013601F074FCB8
:400C8000AE42F7D1B5E728466F4904F067FE064608BB01F029FB6D49204602F001FA01F041FB48F2060001F0D9FB3146304601F0FFFB054601F05AFB60483DB143F6FF7358
:400CC0009D4203D062492A4600F0DABD614904F04FFE00F037BE28465F4904F059FE85422BD15E4B00221A700735284615F8013B202BFAD0002B00F0E98032AA002342F892
:400D0000883D574904F0FEFD012801D1109B1BB92046544902F0C4F9109802F077F80546109801F0CFFD05B118B920464E4900F00BBE20464D4900F007BE28464C4904F095
:400D400027FE854240F0A280444B00221A700535284615F8013B202BFAD0002B00F0B68032AA002342F8983D3D4904F0CBFD012801D10C9B1BB920463A4902F091F902F086
:400D800011F807460025BD427CDA284610A902F01CF80646002847D10C9A109B934243D10DAB11A903C983E8030032490BA80D888978ADF82C5081709DF84C10009011F06C
:400DC000010108BF8DF82C101C482B498DF83C6004F074FD2046194902F062F910AD00266A7C2B7C0092AA7C01360192EA7C234902922A7D114803926A7D0A3504922A7BA8
:400E000005926A7B0692AA7B0792EA7B0892324604F054FD2046094902F042F90C2EDFD12046174900F090BD0135ACE7C96E0000CD6E0000E06E00000C6F00002487FF1F85
:400E4000306F00005A6F0000976F00009E6F0000AD6F0000C66F0000DC6F0000A08CFF1FFE6F0000027000001B7000003170000047700000EB7C00004D7000005D7000005E
:400E8000917000002046A94900F05EBD2846A84904F07EFD85426ED1A64E3378032B00F06C85A54BA54FDFF8C48200210922A4481970396088F8001004F083FB05F10902EE
:400EC000154612F8013B202BFAD01BB920469D4900F03ABD492B06D16B78202B02BF0123023588F80030DFF8548228469649424604F008FD012803D02046944900F024BD65
:400F0000D8F80030924AA3F500139342F4D82B4615F8012B4AB1202AF9D11A46117801332029FAD00023D15CF9B93378B3707378F37003237370337003F07AFE854B1A6819
:400F4000854B1A6003F078FE3A687D4B8349844804F0B4FC2046824902F0A2F801F02AFB804B00221A8000F008BD082BDDD0744819540133D7E728467B4904F009FD85421B
:400F80005CD17A4B00216E480922197004F019FB04352B782E46202B05F10105F9D0002B94D0734D00212846882204F00AFB3378492B05D17378202B02BF012302362B73E5
:400FC0006B4D304660492A4604F09CFC012893D12A685F4BA2F5001199428DD8334616F8011B49B12029F9D11946087801332028FAD00023C85CD8B9514D4F4E01233370BE
:401000005C492B46564804F059FC2046544902F047F859493278524804F050FC2046504902F03EF8554B2868696803C300F0A5BC082BE1D0424D58550133DBE728465049FD
:4010400004F08CFCA8B93C4B4E4D00261E702B7813B101F08BF92E70364B1A78032A40F08C849A7820461A70DA7847495A7000F06BBC2846454904F071FC0646002836D126
:401080002D4B43491870204602F00AF801F08AFE35460746BD4226DA284610A901F095FE0246F0B90DAB11A903C983E803008DF83C20384A0CA910889278ADF830008A7039
:4010C0009DF84C20009112F0010208BF8DF8302031492348109A04F0F1FB2046204901F0DFFF0135D6E720462C4900F02DBC28462B4904F033FC28B90F4B2A491870204668
:4011000000F022BC2846284904F042FC854240F085800B352E4615F8013B202BFAD0002B46D12046214900F00FBC00BFA4700000B9700000BC81FF1FA08CFF1F7887FF1F37
:401140004C82FF1FE46F0000FE6F0000C37000007F9678009886FF1F8C8CFF1F077100002487FF1F9C86FF1F257100009E86FF1F8087FF1F2A710000467100008487FF1F98
:401180006E710000998CFF1F74710000897100008E710000EB7C00004D700000B5710000CD710000D5710000EE710000FA7100003046934904F0D2FBD8B13046914904F0B7
:4011C000CDFBC0B13046904904F0C8FBA8B130468E4904F0C3FB90B130468D4904F0BEFB78B130468B4904F0B9FB002844D1082308E0034606E0012304E0042302E006234A
:4012000000E0052332A800F8883D8349012203F0D8FB002849D12046804995E32846804904F0B6FB854243D108352E4615F8013B202BFAD013B920467A4985E3304670491F
:4012400004F08CFBD8B130466E4904F087FBC0B130466D4904F082FBA8B130466B4904F07DFB90B130466A4904F078FB78B13046684904F073FB60B120466B4964E303468C
:4012800008E0012306E0042304E0062302E0052300E0082332A800F8883D6449012203F090FB10B9204662494EE3204661494BE36149284604F052FB014660B95F4B14222C
:4012C0001D7910A804F07DF9284610A901F052FF5B485C4911E05C49284604F03FFB014668B9564B1422DD7810A804F06AF9284610A901F03FFF5248544910AAC0E2284659
:40130000534904F02BFB20B94C4B4D4851495A79B6E22846504904F03BFB854226D10735284615F8013B202BFAD013B920464B490AE332AA002342F8883D494904F0E2FAE3
:40134000012802460FD1109BFF2B0CD832A800F8943D444903F035FB28B9109A424B38481A7042498CE220464149EDE22846414904F0F4FA20B9314B31483F499A797FE292
:4013800028463E4904F004FBA84227D100F10903184613F8012B202AFAD012B920463849D2E232AA002342F8883D2D4904F0AAFA012802460FD1109BFF2B0CD832A800F86F
:4013C000943D304903F0FDFA28B9109A2E4B1C481A702E4954E220462D49B5E228462D4904F0D6FA854276D10835284615F8013B202BFAD0002B51D120462749A4E200BF80
:40140000167200001B72000028720000347200003A72000040720000846A000059720000887200009172000044720000836A0000AA7200006E720000BC720000806A00008C
:401440002487FF1FC7720000DF720000E7720000FC72000003730000177300001F73000039740000856A00004682FF1F3273000042730000537300005C730000727300006A
:401480007C730000866A0000988CFF1F94730000A6730000BC730000C573000032AA002342F8883DB24904F02DFA012802460FD1109BFF2B0CD832A800F8943DAD4903F0DA
:4014C00080FA28B9FEF7BCFFAB48AC49109AD7E12046AB4938E22846AA4904F059FA854235D10835284615F8013B202BFAD013B92046A54928E200230D931093A3490DAA72
:4015000010AB04F0FFF902281ED1109B9A1F182A00D9CBB90D9AFF2A16D88DF82C200BA89B4901228DF8303003F04BFA60B90CA89849012203F045FA30B9FEF781FF8E484B
:4015400095490D9A109BFBE120469449FCE12846934904F003FA20B9924B874887491A788EE12846904904F0F9F930B98F4B82481A788F4B88491B78E2E128468D4904F029
:40158000EDF98D4E002840F0B48030708B49204601F086FD20468A4901F082FD2046894901F07EFD2046884901F07AFD2046874901F076FD2046864901F072FD2046854941
:4015C00001F06EFD2046844901F06AFD20467C4901F066FD2046814901F062FD2046804901F05EFD20467F4901F05AFD20467E4901F056FD2046724901F052FD20467B4918
:4016000001F04EFD20467A4901F04AFD20466C4901F046FD2046774901F042FD2046764901F03EFD2046754901F03AFD2046744901F036FD2046624901F032FD2046714933
:4016400001F02EFD2046704901F02AFD20465C4901F026FD20466D4901F022FD20466C4901F01EFD20466B4901F01AFD2046544901F016FD2046684901F012FD204667494F
:4016800001F00EFD2046664901F00AFD2046654901F006FD2046644901F002FD2046634901F0FEFC2046464901F0FAFC2046604901F0F6FC20465F4901F0F2FC20465E4951
:4016C00001F0EEFC20465D4901F0EAFC20465C4901F0E6FC20465B4901F0E2FC20465A4901F0DEFC2046594901F0DAFC204658492AE13378002B00F040812846554904F039
:401700002DF918B93070544920461DE1284615F8013B202BFAD0824613B920464F4913E104F02EF9132802D820464D490CE14FF000090DF1C808002548F8885D504649491E
:40174000424604F0DFF801280AF1020A40F08E803278454F0A21531E01FB037310994B4409F10109B9F10A0F13481974E1D180E039740000806A00002487FF1FE2730000AE
:40178000F37300000E7400001874000036740000816A0000826A00003C74000051740000797400004888FF1F817400004482FF1F4582FF1F8A740000A08CFF1F92740000D8
:4017C000E37B0000A4740000E37400001F7500005C7500006C75000091750000B1750000F1750000307600006B76000091760000CC760000F6760000367700005B77000089
:401800009A770000CF7700000B780000237800005B78000090780000CE7800000C7900004779000082790000C1790000007A0000087A0000447A0000817A0000BB7A0000AE
:40184000F87A0000337B0000707B0000AC7B0000E67B0000007C0000027C0000167C0000307C00004C7C00008087FF1F204644496AE00132D2B20C2A027004D84148424924
:4018800004F01CF85EE00570FC238DF840300A238DF841307B1953F8102F4046CDF842205A681B89CDF84620ADF84A3000F0A8FF024600284ED10A35782DE5D1334801F08F
:4018C000BFFA8146314801F015F84346304A824651681068002603C33A682E49434629488DF8486003F0EAFF2046264901F0D8FB264D6A7C2B7C0092AA7C01360192EA7C6C
:40190000254902922A7D1F4803926A7D0A3504922A7B05926A7B0692AA7B0792EA7B0892324603F0CBFF2046164901F0B9FB0C2EDFD11448B9F1000F19D052464B461749C0
:4019400003F0BCFF20460F4901F0AAFB15E00321FEF747BF0D4B1B689842ACD01049094803F0ACFF2046074901F09AFBA3E7BAF1000FE2D10B493A6882E732B0BDE8F08748
:40198000507C00002487FF1F467100008087FF1F4C82FF1F8A7C00005D700000B37C0000617C0000A17C00002DE9F04FB44B0024DFF84CA3DFF84C93B24DB34EB34FDFF801
:4019C0004883C3B0B248214640221C70CAF8004034603C6089F8004088F800402C7003F0F0FD2346CDF838A0CDF83C901095A94A00249C544033B3F5806FF8D1A64B0125FE
:401A00001C7001F087FAA54B1C60A54B1C60A54B1C60A54B1D70A54B1C7000F097FE00F0B7FF204602F0BAFF02F0ACFFA04A137803F0F10343F00C031370537803F0F103BF
:401A400043F00C0353709B4B1C7001F0D9FD9A49204601F02FFE01F007FE01F085FE62B6964801F08FFE01F071FE2946204601F09DFF02F0A5FF03F049F803F085F8904B0C
:401A800090481C60904B1C6000F054FF8F4800F051FF8F4800F04EFF8E4800F04BFF01F081F90546E0B2A84208DA20A901F08DF910B920A800F01EFF0134F3E7FEF7C0FC4B
:401AC000FEF7EAFCFEF702FD4FF0000901F0ACFF28B101F0A3FF0028FBD002F0A7F801F09DFF7D4D48B101242C71B9F1000F03D148467A4901F0D4FAA1462B79002B68D0A6
:401B000002F012F9002864D0754802F021F9824600285ED00024E3B253455AD2704ADFF894B1D25C0D2A01D00A2A24D19BF80020002A45D06B4B002199546A78072A0DD10C
:401B4000012069490D9301F0ABFA0D9B0120194601F0A6FA0120654901F0A2FA61480021FEF7CAFC5F480021402203F02AFD00238BF8003024E0A2F161019BF800301929AA
:401B8000584998BF203ACA540133DBB23F2B8BF8003015D900214022524803F012FD454B00205349187001F07BFA6B78072B07D10120504901F074FA01204D4901F070FA78
:401BC0000134A8E7DFF834A10D2C9AF8003006D143B902F0E7FF04460028F3D196E00A2C24D1F5E7DFF810B100240BF803402B78072B0ED1384B1B795BB120463A4901F069
:401C00004FFA2046594601F04BFA2046374901F047FA39480121FEF76FFC37480021402203F0CFFC00238AF80030D2E7A4F16102D2B2192A304A98BF203CD4540133DBB2E2
:401C40003F2B8AF80030C4D9002140222A4803F0B8FC2A4B0024012025491C7001F020FA2B78072BB5D11C4B1B79002BB1D02046204901F015FA20461D4901F011FAA8E728
:401C80008B8CFF1F4682FF1F7C87FF1F9C8CFF1FA48CFF1F4A88FF1F998CFF1F948CFF1F4882FF1FA086FF1F6487FF1F908CFF1F605000408A8CFF1FA1000000BD000000F2
:401CC0007887FF1F850100008C8CFF1FFD020000850000008D020000BC81FF1FEE7C0000E486FF1F0888FF1F177D0000E37B0000197D00002C7D0000A486FF1FA18CFF1F39
:401D00009886FF1F918CFF1F4988FF1FB54BB64A1D781278013505F03F05AA42119300F0C881B24A0DF1480A02EB051EDEF80CB09EE807000EF1080C8AE8070021467046C2
:401D40000C22CDF834C0CDF854B003F03AFCDDF834C0119BCCF80440A54C1D7023782546022B02D06378022B39D19DF84A109DF8493000919DF84B109DF8482001919DF8D6
:401D80004C109C4802919DF84D1003919DF84E1004919DF84F1005919DF8501006919DF8511007919DF8521008919DF8531009914FEA1B410A911FFA8BF10B918E4903F051
:401DC0007DFD2378022B03D100208A4901F068F96378022B03D10120864901F061F92378032B04D0824B5B78032B40F05481504600F0ECFB002804D1804A1388013313806B
:401E000049E140F34881DFF818A2DAF80030002B00F041812378032B03D10020784901F03FF96378032B03D10120754901F038F90021882220A803F0C4FB20A81AA900F0C7
:401E4000EBFB0346002840F0FF806E4921AA0868496803C28DF88C306B4BDAF800201B782092012B08BF8DF88C304FF0000AFC238DF858300A238DF8593020AB534453F835
:401E8000102F16A8CDF85A205A681B89CDF85E20ADF8623000F0B4FC0246A0B1209B984211D05448594903F009FD2B78032B03D10020504901F0F4F86B78032B03D10120DF
:401EC0004C4901F0EDF80AF10A0ABAF1780FCED1002301201AAA32F813200133002A08BF00200C2BF6D160B92378032B02D1484901F0D6F86378032B40F0C58001204449BE
:401F0000BFE020A800F09CFF054620A800F0F2FC3C4A0D905168106816AB03C34FF0000B16AB34483B49209A8DF860B003F0C6FC2378032B03D158462E4901F0B1F86378AD
:401F4000032B03D101202B4901F0AAF80DF1800A00229AF811109AF8103000919AF8121002F1010B01919AF81310224802919AF8141003919AF8151004919AF8161005919C
:401F80009AF8171006919AF8181007919AF8191008911AA931F812201F4909925A4603F08DFC134B1A781C46032A05D100201149119301F075F8119B5B78032B03D101207B
:401FC0000C4901F06DF85A460C2A0AF10A0AC0D108483DBB0D9B2BBB1049209A03F06EFC25E000BF908CFF1F6487FF1F5882FF1FBC81FF1F2487FF1F2E7D00009C86FF1F6C
:402000006A7D00004C82FF1F9E86FF1F617C0000AB7D00008A7C0000D47D0000127E00007887FF1F99490D9A2B4603F047FC2378032B03D10020964901F032F86378032B92
:4020400021D1012092491CE001280CD12378032B03D100208F4901F023F86378032B12D101208C490DE002280DD12378032B03D10020894901F014F86378032B03D18649C0
:40208000012001F00DF8854B9A781A70DA785A70834B00221A60814C207801F061F818B112A800F0A3FC04E0607801F059F80028F6D102F0BDFD794D0E9B1C6802F0BCFD1F
:4020C000287801F04DF830B1204600F0F3FD2B78052B06D109E0687801F042F80028F3D167E06E4B5B78052B40D16E4A136803F59C530833A34239D2DFF8E8A1644DDAF81D
:4021000000301460109A0133127867492846CAF8003003F0D3FB284603F032FC411C2944284600F013FF2B46009060490122604803F0C4FBDAF800205E495F4802F00F038E
:40214000564D41F8232000EB8310594903F010FC2B78052B03D10020554900F0A1FF6B78052B03D10120524900F09AFF4B4D2B78062B02D06B78062B1BD1504A136803F5B5
:402180009C530833A34214D24D4B146040481A784C4903F093FB2B78062B03D100203C4900F07EFF6B78062B03D10120384900F077FF02F0FFFB0F9A0346127822B998F871
:4021C000001009B9002841D0D9070AD53E4932680978A21A8A4215D93C4A83F0010014600EE07AB13168611A32290BD93749013A0C600F990A70344A12781AB143F00100D3
:40220000C0B200E0184682070AD531493A680978A21A8A4216D92F4A80F00200146010E098F8002072B13968611A32290AD92949013A0C6028490A70254A127812B140F006
:402240000200C0B2834201D002F0AEFB134C2378032B7FF43BAC02F0EBFC0E9B1D6802F0EBFC1E4B1B68ED1A43F698239D427FF62DACA37800202370E3781949637000F0F5
:402280000FFF0120164900F00BFF1FE4B37C00002487FF1F297E00004B7E0000BC81FF1F7887FF1F4882FF1F7F7E0000266B00005886FF1FA48CFF1F4A88FF1FA086FF1FBF
:4022C0004682FF1F8B7E00004888FF1F7C87FF1F4482FF1F9C8CFF1F4988FF1F8C8CFF1F957E0000948CFF1F08B50C4A0120137803F0F10343F00C031370137803F0FE0356
:402300001370537803F0FE03537001F02BF9044A137803F0FE03137008BD00BF0E5000400A50004008B50F4A0120137803F0F10343F00A031370537803F0F10343F00C0317
:40234000537002F02BFB4FF47A7001F0F7F8064A4FF47A70137843F001031370BDE8084001F0ECB8605000400A50004008B5144A0120137803F0F10343F00C0313701378A9
:4023800003F0FE031370537803F0FE03537001F0E9F80C4A0020137803F0FE03137002F0FDFA094A137803F0F10343F00C031370537803F0F10343F00C03537008BD00BF2C
:4023C0000E5000400A50004060500040022001F0C9B80A2002F024BC10B50A4C0A4A237843F001032370137803F0FE031370FFF7F0FF237803F0FE032370BDE81040FFF75D
:40240000E8BF00BF0F5000400E500040F8B506460F460025BD421BD00E4C16F0010F23784FEA560643F0010323700B4B05F101051A7814BF42F0010202F0FE021A70FFF7D4
:40244000C8FF237803F0FE032370FFF7C2FFE1E7F8BD00BF0F5000400E50004010B5044606211D20FFF7D2FFFFF7B0FFFFF7B4FF20461621FFF7CAFFFFF7AEFFBDE81040C7
:40248000FFF7A4BF08B506200146FFF7BFFFBDE80840FFF79BBF08B5FFF7E0FF09200621FFF7B4FFBDE8084041F2883001F05AB800282DE9F0410CBF04202420884609B118
:4024C00000230B6000252F46254C0621FFF79EFF237843F001032370FFF778FF237803F0F10343F0080323701E4E337843F001033370FFF76EFF337803F0FE033370FFF7D8
:4025000068FF4DB9B8F1000F06D02378DA060DD50123C8F8003009E06B1E0D2B06D823787F08DB0644BF47F40057BFB20135FFF750FF102DD8D1FFF74CFF237803F0F1037A
:4025400043F00C032370237803F0FE032370337803F0FE033370FFF739FF3846BDE8F0810E5000400F50004010B5044600290CBF022022200621FFF749FFFFF727FFFFF745
:402580002BFF20460E21FFF741FFFFF725FFFFF71DFF08200621FFF739FFBDE8104041F2883000F0DFBF0A2202F0F0BF0A2202F0EDBF0000034B002103484FF400421960C0
:4025C00002F0FFBF24220020E48CFF1F40F6CB4270B50F4C2368934214D8A8B140F6FC220188914210D10A225A4350F8021F094E01339151416895196960028923602A81C6
:40260000002070BD012070BD4FF0FF3070BD00BF24220020E48CFF1F2DE9F04F484B0E461968ABB080460193002900F08480002800F08180002E7ED042480A22424B03F057
:4026400004F808F1100A4FF000094FF00A0B0CAD00240BFB095000215A4606AF02F0B1FF27F81940504621465A4602F0AAFF26F8194009F10109B9F10C0FDA44E5D1A146B0
:4026800003A821465A4602F09CFF2E48019B1B68994539D203A90A2200F10A0B02F076FF08B901342CE00A2C21DD4FF6FF704FF0FF31002337F813205AB1824203D2A242B2
:4026C000BCBF1046194601330C2BF3D14A1C0B460DD02AAA02EB430222F8904C0A22534303AAEC1803CAE8501388616023815A4652F80A0D03AB5168128903C300241A80EC
:4027000009F101095846C1E700220A23534308EB03042B441968216159681B896161238337F8123026F8123001320C2AEDD1FFF741FF002000E001202BB0BDE8F08F00BF24
:4027400024220020E48CFF1FA7250000002282EA6201C9B201F00103480744BF43F00203DBB2C80648BF43F004034906094948BF43F0080353540132B2F5807FE7D1064AA4
:4027800000231360054A002199508833B3F5AA5FF8D1704728400020C481FF1FE40C002041F2F9630088C31A58425841704740F6FC230088C31A58425841704744F26553D3
:4027C0004089C31A58425841704730B500F10C01821C002011F8014D032304F00305013D012D4FEA400003F1FF3398BF40F0010013F0FF034FEA9404EFD19142EAD130BD8B
:4028000010B50D4B86B01A680AB9002011E0034653F8020F02AC59681B8903C42380074B02A800930649102302F060FE0028ECD0C06806B010BD00BFC481FF1FAD250000E9
:40284000282200200022F0B514461A4F52F807C0BCF1000F1FD0002600200146B318CD183D442D7C01310A2940EA0500F6D178B1114D104905EB0415AE460B4453F8100F50
:40288000C5F80CC059681B89AEE8030001342B810A36782EE0D18832B2F5AA5FD5D1074B21461C6004481022054BBDE8F04002F0CCBE00BFE40C002028220020C481FF1F19
:4028C000AD25000010B580B100230124084A9958814204BF00249C508833B3F5AA5FF5D10CB9FFF7AFFF204610BD012010BD00BFE40C002038B50546B8B10068A8B1FFF70C
:40290000E1FF0023882202FB03F409496018645834B9294602F04AFEFFF794FF204638BD0133282BEED1012038BD022038BD00BFE40C0020C0B100210C4B53F8212082427B
:402940001A4610D001310829F6D1002352F8231021B9064A42F82300012070470133082BF4D1002070470220704700BFC881FF1F064B03F58761012203F8142C00221A70B1
:40298000DA609A6024338B42F5D170474C41002070B5124C04F587660025204629460C2204F8015C02F00DFE243404F8115C44F8055C44F8095C04F8105C44F80D5C44F866
:4029C000155CB442E8D1064B29461D62054B06481D700C22BDE8704002F0F3BD39410020C881FF1F70450020284100202DE9F04F044685B0002800F04F81A94D2B6AA84694
:402A000001332B62FFF7CCFE83462046FFF7CFFE824628B12046FFF7F3FE064608B93BE10646BBF1000F00F0CF802046FFF7C6FE074648B99B490B7833B120460C2202F087
:402A4000A5FD002800F0C3800025974B954829460C221D7002F0B5FD3FB901974FF0FF33DFF8489200251F4630E0904E16F8013C022B17D130462146082202F087FD88B95F
:402A80008B4A242303FB0523197D1033FF291CBF01311971242303FB0525617AE975237AAB75F9E001351E2D06F12406DED1F3E0BBF1000F10D1BAF1000F22D1BCF1010FD4
:402AC00026D001351E2D09F124092DD019F801CCBCF1000F25D0EBE7214648460C22CDF80CC0029302F052FD029B0146DDF80CC00028E0D16C4B0C2218706A4802F061FD83
:402B000043E0002EDAD0D9F80F20B242D6D13CE0581CD6D1D9F81F30B3F1FF3F18BF2F46CFE72F466346CCE7BBF1000F00F08780019BDFF87491002B50D099F80030013389
:402B4000DBB2032B89F8003079D12046FFF73DFE0025574A242101FB05210B69002B39D0834237D123684F48C1F8013063680C22C1F80530A368C1F80930002189F80010C4
:402B800002F01FFDBAF1000F32D124226A43484B995C9E1801290BD1307D48B902279F54E268F075F261D8F82020B075B2617075242202FB0535E36810352B612B79FF2BB3
:402BC0006AD001332B7167E0CDF804B046E70123019343E701351E2DBBD10CE020686168304B03C3A0681860012389F8003026E0002ECAD029E07B1C1AD02421794302259C
:402C0000555453182268C3F801206268C3F80520A268C3F80920E2681861DA611A6201221A75D8F820209A6100225A75DA759A7500211C480C2289F8001002F0C2FCBAF15D
:402C4000000F29D046B34FF0FF35791C21D024235F43174A022302EB0709D35509F101000C22002102F0ADFC0122E36889F81420D8F82020C9F81C30C9F818200022C9F8C5
:402C8000203089F8152089F8172089F81620C9F810606A1C7FF479AF05B0BDE8F08F00BFC881FF1F284100207045002039410020384100202DE9F0470746264C04F58768C9
:402CC00014F8183C012B0CD114F8043C002B3CD0A368FB1AB3F57A7F37D9002304F8043C33E0022B31D114F8040CFF2803D0A368FB1A642B29D9184ED4F80090356A01232A
:402D00004D4504F8183C13D302F02CFA134902F07DFA8246681CC9EB000002F01FFA0146504602F027FB02F0C1FB04F8030C02E0002304F8033C002556F8253013B1A4F1D8
:402D4000180098470135082DF6D124344445B7D1BDE8F08750410020C881FF1F0000C84258B1272903D90021882202F02ABC034B882202FB013102F019BC7047AC7E0000DC
:402D800008B558B1272909D8054B882202FB013101F017FE003018BF012008BD012008BDAC7E000030B500242546A3B029466846FFF7D6FF009B0135013B033398BF013472
:402DC000282DF3D1204623B030BDF0B50746A3B00E4609B9012017E000252C4668462146FFF7BEFF009B013B033309D8AF4206D130466946882202F0D9FB002004E001353D
:402E00000134282CEAD1E5E723B0F0BD70B50646A2B00125002468462146FFF7A1FF009BB34207D14FF0FF33684621460093FFF7A7FF00250134282CEDD1284622B070BD54
:402E40002DE9F0410646A2B000284BD04FF0FF373D463C464FF0000841466846FFF780FF4FF6FF713268009B934208BF4746BDF80E208A4202D09442B8BF1446013B13F144
:402E8000030F88BF454608F10108B8F1280FE3D1002FA84604DD0134F481304639461DE0B5F1FF3F16D14FF48037002568462946FFF756FF9DF80C302BB9BDF80E30BB4207
:402EC000BCBF1F46A8460135282DEFD118F10103454609D0304629460134F481FFF750FF002002E0022000E0012022B0BDE8F08118B10078431E58425841704700783B2800
:402F000006D0092804D0A0F12C0358425841704701207047002213029BB2082113F4004F4FEA430041F2210380B208BF0023013983EA0003F2D1044921F812300132B2F553
:402F4000807FE8D1704700BF7245002010B5441E4FF6FF7014F8013F5BB18C4209D043EA0022030A034830F8133082EA030080B2F0E710BD724500202DE9F3410378054634
:402F8000012B14BF0446441C0026274614F8013B0BB95EB925E00D2BFBD00A2BF9D03846FFF7ACFF002818BF3E46EEE706F10108474516D002AA002442F8044DB01C0C4947
:402FC00002F0A0FC01280ED12B784146012B08BF01352846FFF7BAFF019BC31A5842584102E0022000E0204602B0BDE8F08100BF397400002DE9F047002486B00546174652
:403000008DF80440002941D0002A3FD00378012B39D1437802300B70FFF770FF98B3EB1C1BE006AA4FF0FF334FF0000842F8183D48461A4986F8008002F064FC012822D135
:40304000009B5A1C1FD047F824306A7801348DF804806B1CEAB1052C1BD001AE1D46B14603F114082846AA46FFF748FF30B901359AF80030454506F8013BF3D12846FFF7DE
:403080003DFF0028CDD14FF0FF3003E06FF0010000E0204606B0BDE8F08700BFFE6F000038B50D46002951D0F0B9294B1B7803B938BD044600F042FE20B9B4F5C87F07D014
:4030C0000134F7E7B4F5C87F02D0284600F0E6FD204B1B78072B39D11F4801F083FD2846BDE8384001F07EBD01282FD1194B1B78082B2BD0084601F075FD184B1B78072BCA
:4031000024D1134B1B7803B938BD002400F016FE20B9B4F5C87F07D00134F7E7B4F5C87F02D00D4800F0BAFD002400F007FE28B9B4F5C87F01D00134F7E738BDB4F5C87FAC
:4031400004D02846BDE8384000F0A8BD38BD00BFC081FF1FBD81FF1F2C7D0000BC81FF1F012805D9043802288CBF0020012070470120704703460846D9B1082B19D8DFE894
:4031800003F00507090B0D0F1113150009490EE009490CE009490AE0094908E0094906E0094904E0094902E0094900E0094902F0DFBB7047167200001B720000EC930000B6
:4031C000F4930000287200003A72000034720000FD9300004072000008B502F0ABF903680C2B00D1FEE7FEE7084908B50B68084A1844821A802A01DC086005E002F09AF966
:403200000C2303604FF0FF33184608BD0C81FF1F4048002008B51148114AC8B1A2F1100132C9234604391E1BAE4204D051F8046F43F8046BF7E71D4652F8041C5C1B8C4293
:4032400003D0002443F8044BF8E701381032E4E702F076F9FEF7A8FBFEE700BF01000000BC97000008B5114A114B1A60114A136843F4007313600023032B98BF0E4A4FEA9D
:40328000830094BF52F823100C490D4A0133302B1150F1D10B4B19780B4B19700B4B1A6000F018F80A4B00221A6008BD0004FA050CED00E014ED00E000000000D93100004A
:4032C0000080FF1FBC7600400481FF1F08ED00E00081FF1FF8B572B6794A0024137843F004031370774A062303FB0423002118689A88013402F065F9082CF3D172498022F7
:40330000724802F053F9724C724B0FCB84E80F007148002450F8041F04F1105303F1520221F0FF055333C9B20B4452005B0002329A4205D012F8026C12F8017CAF55F6E706
:40334000664B0C449842E5D1654A664C137843F2C82643F002031370137C43F0020313742378A2F5863243F040032370413A137843F0100313705C4A5C4B07CA03C31A8064
:403380005B4A2833106843F8250C127903F8212C584A07CA03C31A80574A584BA2F55F6203CBC2F8F00DC2F8F41D03CBC2F8000EC2F8041E03CBC2F8141EC2F8100E137808
:4033C000562143F0080313704D4B61221A700322A3F5F0631A804B4A18231370518040F2E7311371D1801372474B06221A7045F20A5223F8EE2C052203F8F02C13F8F02C0D
:40340000F03B1D462B781B0606D54FF4F07001F007FC013EF6D1FEE73C4B4FF488721A8001224FF040231A7041F251221926A3F820220025364B4FF4F0701B7803F001039B
:4034400043EA450501F0ECFB013E05F0030535D0032DEFD12F4A4FF4807313802E4B522119702E4B2E491B78A1F29B61DBB281F89B3607231370482000230B7088701370FE
:403480005371284B02221A70274A284D137843F0070313701A4BC1221A70254B254A1B78DBB203F007011B0911705370224B44221A7094E80F0007C52B80F8BDFEE700BF0A
:4034C000E8460040069400008C10004880060140005001400C110048FCFFFF47A000004803500140A04300401C110048C05100402811004830110048125100403C1100483B
:40350000004800408240004000430040224200402542004004400040004200400F010049A146004001400040A2430040B0430040CF0100496E5800407658004010B5044698
:40354000B4F5004F064B05D9186801F069FBA4F50044F5E758686043BDE8104001F060BB1081FF1F024B1B7A584301F059BB00BF1081FF1F08B501F05BFB00BF00BF00BF52
:4035800000BF00BF00BF00BF00BF00BF00BF00BF00BF00BF00BF00BF00BF064A13889BB243F0040313801388BFF36F8FBDE8084001F042BB00480040044B00F00F021B68D2
:4035C00053F8220043F82210704700BF08ED00E0054A00F01F00126800F1100352F8230042F82310704700BF08ED00E000F01F0000F16040490100F56440C9B2017070477F
:403600000F4B10B50F2000240E495C609C60DC601C615C61FFF7D0FF0B4A136843F0040313600A4B4FF47A72DB68B3FBF2F3084A1360084B4FF400421C60C3F8E82010BD4E
:403640000C82FF1F9136000010E000E01081FF1F14E000E018E000E0024A136843F002031360704710E000E008B5FFF7F5FF034A136843F00103136008BD00BF10E000E046
:40368000024B1868C0F30040704700BF10E000E010B5FFF7F5FF012808D10024044B53F8243003B198470134052CF7D110BD00BF1082FF1F024B03EB800358685960704756
:4036C0000C82FF1F134B144A1B78DBB20360127843EA0223114A0360127843EA0243104A0360127843EA026303600E4B0E4A1B78DBB24360127843EA02230C4A436012783A
:4037000043EA02430A4A4360127843EA02634360704700BF0301004904010049EC4600400201004901010049000100490501004906010049014B1878704700BF6364004005
:40374000014B1878704700BF6F64004008B501F06FFA044A137843F010031370BDE8084001F06ABA9F64004008B501F061FA044A137803F0EF031370BDE8084001F05CBAA8
:403780009F640040064A0123136002F68832126880211064034A1170A2F540721360704780E100E000E400E0014B01221A60704700E100E0014B01221A60704780E100E016
:4037C000014B01221A60704780E200E0F8B501F02FFA404A01261378022543F001031370137C3D4C43F0010313743C4B02F5E3521E700B3203F8945C1378074603F07F0377
:4038000013700020FFF7AEFE2378354A03F0F90323701378304603F0DF031370237833432370FFF79FFE2820FFF79CFE2D4B28461A7802F07F021A701A7802F0BF021A70FB
:4038400023782B432370FFF78DFE2378264A43F004032370002313703846537001F0ECF917200721FFF7C2FE20491720FFF7B0FE18200721FFF7BAFE1D491820FFF7A8FEF5
:4038800015200721FFF7B2FE1A491520FFF7A0FE30460721FFF7AAFE30461749FFF798FE28460721FFF7A2FE28461449FFF790FE03200721FFF79AFE11490320FFF788FEEE
:4038C0000C200721FFF792FEBDE8F8400C200D49FFF77EBEA5430040944300409D60004012600040F8510040846000406B4200009540000069420000D541000001420000FC
:40390000314200006F42000008B51C4B1C4A1870002313701B4A13701B4A13701B4A13701B4A13701B4A13701B4A13701B4B4FF400021A604FF080721A604FF400121A609C
:4039400002221A6004221A6008221A60144B19B91A7802F0FE0202E01A7842F001021A70104B03221A70802203F8202C012001F057F90D4B04221A7008BD00BFA147002094
:40398000844700208A470020A84700209D470020A04700209C470020A947002000E100E009600040286000401260004070B5074C064623780D461BB9FFF708FF01232370E0
:4039C00030462946BDE87040FFF79EBF2882FF1F0A4A002313700A4A13700A4A13700A4A13700A4A13700A4A13700A4A13700A4B03221A70802203F8202C704784470020DF
:403A00008A470020A84700209D470020A04700209C470020A947002028600040014B1878704700BFA8470020044B1A7802F0FF001AB118780022C0B21A7070478A4700204C
:403A4000024A0C2303FB002040787047AA470020431E072B9FBF084B074A00011B189FBF805C5B7800F00F0043EA00209ABF023880B20020704700BFFC5F0040431E072B82
:403A8000F0B531D8194B0C2505FB0035EC88184EA4B2C4F50074A2424FF00C0404FB003488BFEA88E57884BFC2F5007292B2104C45EA12250701BD553C44D5B2657041B953
:403AC0000C2202FB0030002343704379DBB2A370F0BD0E46751AADB29542F1D216F801EB044D05F807E0F5E7F0BD00BFAA470020FC5F004078600040431E072B0AD8064AB0
:403B00000C2303FB002300225A705A79034BD2B200011A54704700BFAA470020FE5F004070B5064614460D46C9B1431E072B18D8FFF78EFF844203D93046FFF789FF044693
:403B40002A46531B9BB2A34205D2074B31015B5C02F8013BF5E73046FFF7CEFF02E00C4600E00024204670BD7860004030B500210446FF20074B0C255A5C074B05FB0233C6
:403B800008339B78A34201D1084630BD09B90121F0E730BD72470020AA47002010B51E4C2079FFF7E3FF237813F0800F63780DD0212B2ED1BDE81040184B07221A80184AE6
:403BC000C0EBC0001044586000F0BABADBB2202B0ED0222B1DD1A378124A22F81030124A135C43F002031354BDE8104000F088B90A4A07230A491380C0EBC0030B445360C4
:403C0000094A135C43F001031354BDE8104000F0BDBA002010BD00BF006000408C4700202081FF1F784700207C47002010B5164A00231370154A164C137053702078C0B22C
:403C4000431E072B01D8FFF757FF6078C0B2431E072B01D8FFF750FF0E4A13788BB123787BB10D4B197861B11278082A09D8084A1278082A05D81878082894BF00200120D4
:403C800010BD012010BD00BF2982FF1F7C4700207E47002080470020724700202DE9F84381461E4B1E4A1B78D65C0023F6B29CB219F804500133002DF9D12F4619490C23DC
:403CC00003FB06131A89884692B2944294BF25461D89304688BFADB2641B09EB07012A46A4B2FFF7CBFE34B90C2303FB06831B899BB29D4210D13D44AFB20C2303FB0683B6
:403D00005B78002BF9D0002CD8D1304621462246BDE8F843FFF7B2BEBDE8F8832982FF1F80470020AA470020024B034A1B78D05CFFF786BE2982FF1F7E470020024B034AA0
:403D40001B78D05CFFF77CBE2982FF1F80470020064B074A1B780146D05C064AC0B20C2303FB00231A8992B2FFF7DABE2982FF1F7E470020AA470020C37890F9020003F0FD
:403D8000030300280FDA032B15BF0C480C4802F00103C2F3800319BFC15442F00102C15442F0040207E0032B1FBF0648C2F34003C15442F002021046704700BF804700206E
:403DC000724700207E47002030B51A4A1A490878138803449BB213800023184AD8B21488A4B284B1082B0DD05068154C0078C0B2E05450680133013050601088013880B2CA
:403E00001080EAE718460B780E4C082B0E4A00D040B10E4D2B7883F080032B700F232370022301E0022323701370094B1870087030BD00BF9A470020A94700208C47002001
:403E4000006000408547002084470020984700208B470020074B02221A70074B80221A70064B0F221A70064A00231370054A012013707047844700209847002085470020DA
:403E8000A94700208B47002010B5164B16491B780A8803F00F03023BDBB21A4492B20A800020124A118889B281B17BB110495468095C013BC9B221705168DBB201315160C2
:403EC00011880130013989B21180EAE7094A1370094A137883F080031370084B0B221A7010BD00BF296000409A4700208C470020006000408B470020984700208547002024
:403F0000064A06231370064A01201370054B80221A70054B00221A70704700BF8447002085470020984700208B470020054B9A683AB19A68044910709A6809885180002249
:403F40009A6070478C4700209A47002008B5124B1A78D2B21A701B78DBB21A0602D50F4A137008BD0220FFF7E1FF0D4B1B7803F06003202B05D0402B06D043B900F0BCFBED
:403F800004E001F00FF801E000F0EAFC10B9034B03221A7008BD00BF28600040854700200060004008B5084A084B0120197813880B449BB21380064B00221A70FFF7B6FF4A
:403FC000044B03221A7008BD9A470020A9470020844700208547002008B50C4B1B78DBB2042B07D0062B09D0022B0DD1BDE80840FFF7D8BFBDE80840FFF746BF0320FFF74C
:4040000095FF034B03221A7008BD00BF844700208547002008B5054B002201201A70FFF785FF034B03221A7008BD00BF844700208547002008B50A4B1A7832B11A7809497D
:4040400042F080020A7000221A70074B002201201A70FFF76BFF054B03221A7008BD00BFA0470020086000408447002085470020074B1B78DBB2042B05D0062B05D0022B35
:4040800005D1FFF7A1BEFFF7C5BFFFF7D3BF70478447002010B51D4C2378DBB2DA0634D518060AD503F00F03012B2ED1FFF74EFF174B1B78190609D510BD5A0602D5FFF796
:4040C000D7FF03E09B0620D5FFF786FF23781B061BD4104B104A1B78127813430F4A13701278934211D10A4A084913782078DBB200065FBF1378DBB20B700B78127858BFD6
:4041000003F00F039342EED110BD10BD2860004085470020984700208B47002029600040054A00231380054A916819B191680B7092685380704700BF9A4700208C4700201C
:4041400010B50E4C23889BB213B9FFF783FE13E00B4B02221A700B4B00221A70FFF7E0FF094AD1799379228843EA012392B29A4288BF2380FFF728FE012010BD8C4700206C
:4041800084470020984700200060004008B50C4B04221A700B4B80221A70FFF7C1FF0A4A0120D179937943EA012308490A8892B29A4288BF0B80064B0B221A7008BD00BFFC
:4041C0008447002098470020006000408C47002085470020084B01221A700F3B9B7C074B1A7B02F00302012A1EBFDA7B82F08002DA7301225A7370470B600040AA47002016
:40420000094B02221A700F3B93F82230074B1A7E02F00302012A1EBFDA7E82F08002DA7601225A76704700BF0B600040AA4700200B4B04221A700F3B93F83230094B93F88F
:40424000242002F00302012A1EBF93F8272082F0800283F82720012283F82520704700BF0B600040AA4700207047FFF7B1BB00F081BB000070B50446194B88B003AA03F16D
:404280001006154618685968083303C5B3422A46F7D11B782B7004B32223237001AD032328466370FFF70EFA20460022AB5C08A901EB131108AC03F00F0311F8141C2344A3
:4042C00013F8143C01328170082A4FF00001C1700371417100F10400E8D108B070BD00BF36940000F0B5012216490C25164B05FB0216140123441D7014487779204437B1E8
:404300003479240601D5857003E0082400E0802484700C2000FB0211C8880132C0B29871C888092AC0F30720D871C888C0B21871C988C1F307215971D6D1054BFF221A7092
:40434000F0BD00BFAA47002070600040FC5F00400A600040064B074A1B7802EBC30253681A7C824286BF03EBC003586900207047A147002048940000F8B5334B1A78002A16
:4043800061D018780138C0B2FFF7E4FF2F4AC3681478067AE4B203EBC606B34253D01A78A2424ED12A4A5978125D914249D19A780C2502F07F077D43264A4FF0000E5119C8
:4043C000D87881F803E093F802C000F0030081F804C093F803C002F805C09D880D8193F90250754507DA01280CBF07200D2048710120487006E001280CBF052009204871A0
:4044000081F801E014493D012944012088700C2000FB07221089C0F3072008701089C0B24870D0880D49C0B229448871D088C0F30720C871D088C0B20871D288C2F3072297
:404440004A710833A9E7F8BDA84700209D47002088470020AA470020FC5F00407060004008B5064B18780138C0B2FFF773FF20B143681B7900EBC300406908BDA847002057
:404480002DE9F04700210C244C43524D013100232A1909292B559370D3701381937253705371F0D128B14C494C4A0B7013704B7053704B4B1A78002A00F08980187801273C
:4044C0000138C0B2FFF746FF80464368067ADB79F60013F0400F434B1A7814BF42F0010202F0FE021A700022D8F80C405FFA87FA04EB06094C453CD0A07800F07F039F4287
:4045000035D10C2303FB07531989B4F804E089B2714538BFA3F808E02F492378CB5C6178994224D10C2179436B181871E078685494F90200E178002801F0030106DA012956
:404540000CBF07210D215971012105E001290CBF05210921597100215970A37903F0F703022B04D120465146FFF706FC02460834C0E70137092FB7D1D8F80C300A369A1C2B
:404580001E440832B2420AD012F8083C0C2003F07F0300FB035312F80A1C9972F1E7FFF75FFF114B0121186000230C2202FB0152D3801289013113449BB203F00102134442
:4045C00009299BB2F1D1BDE8F047FFF78BBEBDE8F08700BFAA4700208847002086470020A84700209C470020A4470020114B1B7903F07F035A1E072A19D80F490C2202FBF8
:40460000031291781B0141F0010191700021D170517841F002015170127912F0800F074A1A4414BF8D2389239370FFF769BC0020704700BF00600040AA470020FC5F0040F2
:4046400030B5184B1A7902F07F02531E072B26D8154B0C2000FB02339978144C01F0FE0199700021D970120110497F25155511445A7802F0FD025A701A795B78120605D507
:40468000012B01D1887006E00D2303E0012B0CBF082309238B70BDE83040FFF731BC002030BD00BF00600040AA470020FC5F004038B50D4B0D4D2C791878E4B20138C0B29D
:4046C000FFF748FE43681B79A34201D2022C09D8074A0849135D0120DBB20B55AB78DBB2135538BD002038BDA847002000600040884700208647002038B5884A884C13788D
:404700000021DBB221801806517840F188800A2900F20181DFE811F05800FF00FF00FF00FF00FF000B00FF007900FF007D00D2787A4B012A09D17B4B1A787B4B03EBC20364
:404740005B685B686360122310E0DA78022A12D19878FFF7FFFD002800F0DD80436863606368DA7863689B7843EA02232380BDE83840FFF7E5BCDB78032B21D16B4B002197
:40478000664AC8B29578854202D892783AB910E0187801310028F8D01A781344F0E75F4A63499278097C914203D16248FFF762FD604B1A78002A00F0AE801A78228018E087
:4047C000BDE8384000F0EEBB13F0030313D0022B40F0A1802380514B0C211B7903F07F02554B01FB02339A78544BD2B21A7000225A706360BBE702222280514A11784F4AC1
:40480000C9B2117053706260B1E7012323804D4BEFE70123238013794B4A1344E9E701390A2978D8DFE801F037774F77067777770A7720009378454ADBB25AE0937803F0C7
:40484000FF0453B93F4B1A78944260D01C70404B01201870FFF714FE59E0601EC0B2FFF779FD0028EED156E0FFF722FF002852D02A4A384913791279DBB2D2B20A70364A15
:404880003149D25CCB5C9A4241D0314B01221A70FFF772FD3BE003F00303012B2BD009D3022B38D11D4B9B78002B34D1BDE83840FFF7C6BE194B9B78012B2CD1204A13788A
:4048C00003F0FD0315E003F00303012B13D008D3022B20D1114B9B78EBB9BDE83840FFF785BE0E4B9B78012B15D1154A137843F0020313700BE0094B1A79012A0BD8987853
:404900001B791649DBB2CA5C22EA0002CA54BDE83840FFF7F5BA002038BD00BF006000408C470020A147002048940000AC940000C895000018480020AA4700202A82FF1FA0
:404940009C470020A847002088470020A04700208A4700209D470020864700209E470020034B00201A78120648BF5B78704700BF00600040024B1878C0F38010704700BFAA
:404980008F450040044A137843F004031370137C43F0040313747047A2430040014B1870704700BF78640040014B1870704700BF74650040014B1878704700BF74650040ED
:4049C00070472DE9F04F8B18B3F5802FADF50B7D81468846924641D800F032F942A800F077F9002005464FEA1846C8F3072404EB06231B020DF1080CC3EB0C07554508D337
:404A00000190FEF7B7FD0198022828BF4FF0FF3025E00028F4D103F5807B434506D3554504D219F805200135FA5401E01A78FA5401335B45F1D1F0B2A1B262460134CDF8C6
:404A400004C000F0BDF9B4F5807FDDF804C004BF01360024A7F580775B46CFE701200DF50B7DBDE8F08F0000024A137843F080031370704774640040014B1870704700BF8B
:404A800027640040014B1870704700BF37640040034B1B785B0602D5024B1B78F8E77047676400404764004008B5124A137803F0F80343F001031370137803F0FC03137035
:404AC000FFF7E6FF0C4B06221A700C4A0023137082F880300A4B03221B780A4B1A7000F0A7F8094A137843F010031370BDE8084000F0A2B8746400402764004007640040C5
:404B000067640040376400409764004010B5054C23781BB9FFF7C8FF01232370BDE81040FFF7A2BF2C82FF1F074B71221A70202203F8032C062283F8A020472283F8B02051
:404B4000002283F8FC2070478B64004010B500F06FF804460B4A137843F02003137012F8033C43F0100302F8033C92F8FC3043F0100382F8FC3000F047F82046BDE8104083
:404B800000F05AB89B64004010B5054C23781BB9FFF7CAFF01232370BDE81040FFF7D6BF2D82FF1F074B1B78DBB203F0200202F0FF002AB1044A13F01E0F107818BF00201C
:404BC000704700BF686400404B640040034B1B785B07FBD4024B1870704700BF676500404865004038B5074B05461B7803B938BD0024A3B2E85C013410B1FFF7E7FFF8E7B2
:404C000038BD00BF2D82FF1F044A137843F002031370137C43F0020313747047A24300400230800803D000BF01380046FCD17047EFF3108072B6704780F31088704700BF14
:404C400038B500F0C5F800F05FF908B1042438E000F094F9072804460FD11B4B1A78900703D40120FEF77EFCF7E71A78910704D51B789B0814BF0724002400F065F904BB47
:404C800000F0A6F800F040F90028DFD1012000F021F9072805D04FF0FF3410E02B789B07F9D40A48022100F0A5F80228064DF5D12B789A0703D40120FEF754FCF8E700F02D
:404CC00043F9204638BD00BF224700401648002038B5054600F07CF84DB100F015F9044638B9054B1D6000F02FF9204638BD012038BD042038BD00BF3082FF1F4128F8B550
:404D000005460E4617461C460AD8411F3A298CBF002101213F2804D8B6F5807F29D805E00121812E28BF0121102C22D10FB301BB00F0EAF8F8B92346284631463A4600F047
:404D400073F80728044611D11B4B1A781F4612F0020F03D10120FEF705FCF5E71A78900702D51B789B0808D04FF0FF3400F0ECF81FE001241DE004241BE0104B28461A7843
:404D800031465B7800F086F807280446EED13A78094B910703D40120FEF7E4FBF7E71A789207E1D51B789B0814BF4FF0FF340024DCE72046F8BD00BF224700401648002077
:404DC0003F288CBF10234FF48073FFF797BF000008B5FFF72DFF064A137843F008031370137C43F008031374BDE80840FFF724BFA043004070B50E464B1E451EC418A5428C
:404E00000CD0074B1B78DB0703D40120FEF7AAFBF7E7044B1B7805F8013FF0E7304670BD224700402047004070B5184D2C78A60727D5174CB6262670D5262670022626707B
:404E40002D78AD071FD416462070B51AADB29D4203D216F8015B2570F7E7B3F5807F01D0072070BD3F28FBD800F5103001EB0021490100235A5C0133D2B2202B2270F9D171
:404E8000EEE7042070BD092070BD00BF224700402047004070B50D4D2C78A60712D50C4CB6262670D8262670052626702D78AD070AD42070080AC9B22070217022702370F7
:404EC000072070BD042070BD092070BD22470040204700400A4A137899070CD5094BB6211970E12119700E2119701278920704D4187007207047042070470920704700BF35
:404F0000224700402047004038B5FFF791FE0C4A147874B901250B4915700B682B400AD00B6823F001030B6000BF00BF00BF556002E0042400E01C46FFF77EFE204638BDE9
:404F40003482FF1F0400084010B5FFF771FE094B00215A681970012A08D1074C226842F00102226000BF00BF00BF5960BDE81040FFF762BE3482FF1F04000840074B1B7889
:404F80009B0741BF064BB6221A70E02241BF1A700D2207201A7058BF0420704722470040204700400F4A137803F00303012B0BD0022B0CD113790C2103F07F020A4B01FB82
:404FC000023308339B7800E01379DBB200E00023064A1268D35C022B01D1FEF7DFBD0020704700BF00600040AA470020A447002080F0004002E000BF81F0004142001FBF34
:405000005FEA410392EA030F7FEA226C7FEA236C6AD04FEA1262D2EB1363C1BFD218414048404140B8BF5B42192B88BF704710F0004F40F4000020F07F4018BF404211F056
:40504000004F41F4000121F07F4118BF494292EA030F3FD0A2F1010241FA03FC10EB0C00C3F1200301FA03F100F0004302D5494260EB4000B0F5000F13D3B0F1807F06D30B
:4050800040084FEA310102F10102FE2A51D2B1F1004F40EBC25008BF20F0010040EA03007047490040EB000010F4000FA2F10102EDD1B0FA80FCACF1080CB2EB0C0200FABB
:4050C0000CF0AABF00EBC25052421843BCBFD0401843704792F0000F81F4000106BF80F400000132013BB5E74FEA41037FEA226C18BF7FEA236C21D092EA030F04D092F05F
:40510000000F08BF0846704790EA010F1CBF0020704712F07F4F04D1400028BF40F00040704712F100723CBF00F50000704700F0004343F0FE4040F4000070477FEA2262CD
:4051400016BF08467FEA23630146420206BF5FEA412390EA010F40F4800070474FF0000304E000BF10F0004348BF40425FEA000C08BF704743F0964301464FF000001CE019
:4051800050EA010208BF70474FF000030AE000BF50EA010208BF704711F0004302D5404261EB41015FEA010C02BF84460146002043F0B64308BFA3F18053A3F50003BCFA70
:4051C0008CF2083AA3EBC25310DB01FA02FC634400FA02FCC2F12002BCF1004F20FA02F243EB020008BF20F00100704702F1200201FA02FCC2F1200250EA4C0021FA02F2B3
:4052000043EB020008BF20EADC7070474FF0FF0C1CEAD0521EBF1CEAD15392EA0C0F93EA0C0F6FD01A4480EA010C400218BF5FEA41211ED04FF0006343EA501043EA51113E
:40524000A0FB01310CF00040B1F5000F3EBF490041EAD3715B0040EA010062F17F02FD2A1DD8B3F1004F40EBC25008BF20F00100704790F0000F0CF0004C08BF49024CEA67
:40528000502040EA51207F3AC2BFD2F1FF0340EAC250704740F400004FF00003013A5DDC12F1190FDCBF00F000407047C2F10002410021FA02F1C2F1200200FA02FC5FEA40
:4052C000310040F1000053EA4C0308BF20EADC70704792F0000F00F0004C02BF400010F4000F013AF9D040EA0C0093F0000F01F0004C02BF490011F4000F013BF9D041EAB4
:405300000C018FE70CEAD15392EA0C0F18BF93EA0C0F0AD030F0004C18BF31F0004CD8D180EA010000F00040704790F0000F17BF90F0004F084691F0000F91F0004F14D07F
:4053400092EA0C0F01D142020FD193EA0C0F03D14B0218BF084608D180EA010000F0004040F0FE4040F40000704740F0FE4040F4400070474FF0FF0C1CEAD0521EBF1CEA07
:40538000D15392EA0C0F93EA0C0F69D0A2EB030280EA010C49024FEA402037D04FF0805343EA111143EA10130CF000408B4238BF5B0042F17D024FF4000C8B4224BF5B1A3B
:4053C00040EA0C00B3EB510F24BFA3EB510340EA5C00B3EB910F24BFA3EB910340EA9C00B3EBD10F24BFA3EBD10340EADC001B0118BF5FEA1C1CE0D1FD2A3FF650AF8B420F
:4054000040EBC25008BF20F0010070470CF0004C4CEA50207F32C2BFD2F1FF0340EAC250704740F400004FF00003013A37E792F0000F00F0004C02BF400010F4000F013ADD
:40544000F9D040EA0C0093F0000F01F0004C02BF490011F4000F013BF9D041EA0C0195E70CEAD15392EA0C0F08D142027FF47DAF93EA0C0F7FF470AF084676E793EA0C0FAD
:4054800004D14B023FF44CAF08466EE730F0004C18BF31F0004CCAD130F000427FF45CAF31F000437FF43CAF5FE700BF42000ED2B2F1FE4F0BD34FF09E03B3EB126209D448
:4054C0004FEA002343F0004323FA02F070474FF00000704712F1610F01D1420202D14FF0FF3070474FF00000704700BF2DE9F04D82468B461E46174612B90020BDE8F08D2E
:40550000002BFAD04FF00008B845F6D207EB0804640806FB04B550462946089B9847002803DB04D004F101083C462746ECE72846BDE8F08D014B1868704700BF9881FF1F1C
:405540000E4B70B51E460E4C0025E41AA410A54204D056F8253098470135F8E704F014F9084B094C1E46E41AA4100025A54204D056F8253098470135F8E770BD9497000038
:4055800094970000949700009C97000010B50A44441E914208D014F8013F0878834201D0181A10BD0131F4E7002010BD10B5431E0A44914204D011F8014B03F8014FF8E74D
:4055C00010BD03460244934202D003F8011BFAE77047012B30B50ADC920803680C68013A002A40F8044B41F8043BF6DC30BD03460D781C7803F8015B01F8014BD41A044432
:40560000002CF5DC30BDF8B50C46154607461E4698470028294620460CDAB047002801DA2046F8BD38462946B04715EA200038BF3846F8BDB0470028F2DC38462946B047A0
:4056400017EA200038BF2846F8BD2DE9F04F0646144685B001910293B20707D1A30705D1B4F1040818BF4FF0010801E04FF00208019B06EB040B062B26D85F4604FB0365B6
:40568000AF4280F01781B946B1451BD9C4EB090A50464946029B9847002813DDB8F1000F08D1D9F80030DAF80020C9F80020CAF8003005E04846514622464346FFF789FFBD
:4056C000D146E1E72744DBE7019B5D08072B03F1FF3304FB0565039325D004FB0369019B282B18D9DF086743F119CA19029B3046FFF789FF2946EA19029B8246E81BFFF727
:4057000082FF0546A9EB47004A46C119029BFFF77AFF814600E0B246294650464A46029BFFF771FF0546B8F1000F04D133682A6832602B6005E03046294622464346FFF742
:4057400048FF039B5F4604FB0365D946AA460022A94528D848463146029B039298470028039A20DC13D1B8F1000F08D1DBF80030D9F80020CBF80020C9F8003005E0584682
:40578000494622464346FFF724FFA3440122A144DEE728463146029B039298470028039A18DB03D02D1BA945F3D927E0B8F1000F06D12B68DAF800202A60CAF8003005E09D
:4057C0002846514622464346FFF703FFC4EB0A0A0122E7E7B8F1000F06D1D9F800302A68C9F800202B6005E04846294622464346FFF7EFFEA1442D1B0122A9E7019B6343A1
:405800001ABBF518AF4255D2B946B1451BD9C4EB090A50464946029B9847002813DDB8F1000F08D1D9F80030DAF80020C9F80020CAF8003005E04846514622464346FFF7C2
:40584000C8FED146E1E72744DCE7CBEB090CC6EB0B026245A8BF6246F7184AB13046C2EB09014346CDF804C0FFF7B3FEDDF804C0CAEB0702C5EB0A05121BAA4228BF2A46A0
:4058800042B14846B91A4346CDF804C0FFF7A1FEDDF804C0A44506D93046BCFBF4F12246029BFFF7D2FEA54204D9B5FBF4F37E1B0193D1E605B0BDE8F08F00000EB400B520
:4058C0004FF402719CB0ADF814106FF00041049107914FF6FF711DABADF81610084953F8042B02900690086802A9019300F0C2F8029B00221A701CB05DF804EB03B07047B9
:405900009881FF1F0EB430B59CB01FAC4FF4017254F8045BADF814200290069000F030F80B4B03900B9300230F9314934FF6FF73ADF81630074B079002A918682A46234676
:40594000019400F0E3F91CB0BDE8304003B07047595900009881FF1F0020704710F8012B11F8013B012A28BF9A42F7D0D01A7047034611F8012B03F8012B002AF9D170479C
:40598000034613F8012B002AFBD1181A0138704730B5037823B90B78002B18BF002030BD03461A7801303AB100228C5C34B19D5CA542F5D10132F8E7104630BD184630BD55
:4059C0002DE9F0478E688246B3420C469046994640D38A8912F4906F3AD02568096902236F1A656905EB450595FBF3F57B1C4B449D4238BF1D4653050FD5294600F094FFB1
:405A0000064698B121693A46FFF7D0FDA38923F4906343F08003A38113E02A4600F0DAFF064670B95046216900F03AFF0C23CAF80030A3894FF0FF3043F04003A381BDE810
:405A4000F08726613E4426604E466561ED1BA560B14500D24E4632462068414600F005FFA36800209B1BA36023681E442660BDE8F08700002DE9F0439DB003938B890646E3
:405A80001C060D4690460CD50B6953B9402100F04BFF2860286110B90C233360CCE040236B610023099320238DF8293030238DF82A3043461C4613F8012B1AB9B4EB080971
:405AC0000FD002E0252AF5D1F8E73046294642464B46FFF775FF013000F0A980099B4B4409932378002B00F0A28000234FF0FF3204930793059206938DF853301A9304F1FA
:405B000001084446DFF8489121784846052200F09EFE08F10108049B30B1C9EB00000122824013430493ECE7D80644BF20228DF85320190744BF2B228DF8532022782A2AFC
:405B400002D0079923460EE0039A0134111D12680391002ABBBF524243F0020307920792B8BF04930AE01C4622780133303A092A03D80A2000FB0121F5E7079123782E2B5D
:405B80001AD163782A2B0AD1039B02341A1D1B680392002BB8BF4FF0FF3305930CE0611C00220C4623780131303B092B03D80A2000FB0232F5E70592DFF898802178404623
:405BC000032200F044FE38B1049AC8EB00004023834013430493013421781A48062204F101088DF8281000F032FE88B1164B33B9039B073323F007030833039313E003ABE1
:405C00000093304604A92A46104BAFF3008007E003AB0093304604A92A460C4B00F03AFA421C074603D0099B3B44099341E7AB895B0601D4099801E04FF0FF301DB0BDE85A
:405C4000F08300BFE695000000000000C1590000DC950000E295000038B54B1C144602D14FF0FF3038BD9389CDB223F020039381536B526883B1A36B9A4207DA23685A1E32
:405C8000226003F8015C636801331FE0214600F0A5FD0028F2D0E3E72169236851B18B4208D913F8010CA84204D1013B01322360626038BDE36304F1440363630323A363A6
:405CC0002346226403F8465F236001236360284638BD10B50C46496B69B104F14403994201D000F0DDFD236C00206063636013B1E36B236010BD23694FF0FF30236000237A
:405D00006360A38943F02003A38110BD2DE9F04707460C469046ADF5247D01930023469347939C4B0DF10C0AA2939B4BCDF820A1A39398F80050002D00F0248197490B68F7
:405D400089462B445B7803F0080303F0FF02EBB16368002B10DD2368D9F800101A780A44527815070ED5479A01330132479262682360013A6260EBE7A39B3846214698474D
:405D80000028E8D008F10106B046D2E7252D08F101064FD14592439298F801302A2B03D11023439308F1020631783546A1F13003092B06F1010606D8459B0A2202FB03132A
:405DC000303B4593F0E7DFF8DC810322404600F03EFD40B135460123C8EB000003FA00F2439B134343936E1C2D78672D0FD8652D78D25B2D54D005D8002D00F0C580252D80
:405E000018D071E0632D57D0642D3FD06CE0702D32D007D86E2D55D03AD8692D64D1002344933BE0752D31D0782D29D0732D5BD102233FE06368002B0DDD23681A78AA421C
:405E400040F0A080013362682360479B013A01336260479398E7A39B3846214698470028EBD04698002800F08F80A38913F0400F18BF4FF0FF3089E0439B43F020034393C5
:405E8000439B43F400734393102302E00A2300E008236E2D449301DD04230BE0032309E03146504600F066FB0646439B43F040034393012349931BE0439B43F040034393CD
:405EC0000023F7E7439AD0063FF55EAF12F0010F019A479B02F104010191126814BF1380136051E70523E5E7032349930A2344936368002B03DD439B590611D518E0A39BE0
:405F00003846214698470028F5D0AAE7479A013247926268013A002A626013DD013323602368D9F800101A780A4452781207EDD4499B022B0DDC384643A9224601AB00F042
:405F4000C9F919E0A39B3846214698470028E7D087E7042B06DC384643A9224601AB00F017FA09E00E4B002B3FF40EAF384643A9224601ABAFF30080012803D002287FF4F1
:405F800003AF6EE7469801E04FF0FF300DF5247DBDE8F087595C0000D35C00009C81FF1F00000000E29500002DE9F84391461F468A680B6906469342B8BF1346C9F8003083
:405FC00091F843200C46DDF8208012B10133C9F800302368990642BFD9F800300233C9F80030256815F006051CD094F843302268003318BF012392061FD5E118302081F826
:4060000043005A1C94F845102244023382F8431013E03046394604F119020123C047013007D00135E368D9F800209B1A9D42F0DBDBE74FF0FF30BDE8F8833046394604F128
:406040004302C0470130F4D02268D9F80050E36802F00602042A08BF5D1B2269A3680CBF25EAE57500259342C4BF9B1AED184FF00009A9450ADA3046394604F11A0201233D
:40608000C0470130D5D009F10109F2E70020BDE8F88300002DE9FF410C461746227E98466E2A06460A9B01F1430100F0B08012D8632A23D00AD8002A00F0BD80582A40F02F
:4060C000CC8084F84520DFF804E257E0642A1ED0692A1CD0C1E0732A00F0B18009D86F2A2ED0702A40F0B980226842F0200222603FE0752A24D0782A3BD0AEE01A6804F1E6
:406100004205111D1960136884F84230A9E020681A6810F0800F02D0101D186008E010F0400F02F10400186002D0B2F9003000E01368002B3EDA2D225B4284F8432039E09A
:4061400020681A6810F0800F02D0101D186007E010F0400F02F10400186001D0138800E01368227EDFF864E16F2A0CBF08220A221CE07822DFF858E184F84520226818689C
:4061800012F0800F00F104051D6003D1550601D5038800E00368D00744BF42F0200222601BB9226822F0200222601022002084F8430002E0DFF814E10A226568002DA8BFEC
:4061C0002068A560A4BF20F00400206003B965B10D46B3FBF2F002FB10331EF8033005F8013D03460028F4D100E00D46082A0BD12368DA0708D5236962689A42DEBF3023C0
:4062000005F8013C05F1FF35491B21612EE025681A6815F0800F606903D0151D1D60136808E015F0400F02F104051D60136801D0188000E01860002323610D4616E01A683A
:40624000111D1960156800212846626800F0FFFA08B1401B6060636804E004F1420584F8422001232361002384F84330CDF800803046214603AA3B46FFF796FE013002D183
:406280004FF0FF301FE0304639462A462369C0470130F5D023689B0705D4E068039B9842B8BF18460FE00025E368039A9B1A9D42F3DA3046394604F119020123C04701302A
:4062C000DED00135F0E704B0BDE8F08136940000ED9500002DE9F04115468A6880460C4632B98A69002A0CBF01224FF0FF328A6022680026D1065FBF1A68111D1960176884
:40630000A069F8B923680136DA065EBF2B681B783B702A686B6802F101022A60A26803F1FF3302F1FF326B6058BF0137A260EAB1002BE5DCD4F880314046294698470028BE
:40634000DED013E0012807D12B6862691B78D35C002BD7D1C6B109E0022807D12B680B4A1B78126813445B781B07CBD5236813F0100305D1E2680132E260A26902B13B70A6
:40638000236900201E442661BDE8F0819C81FF1F2DE9F04F0C469A46724B87B08346164693E8070003AB83E807006F4BA1696F4A04F11C09032918BF1A46A36800925A1EA6
:4063C000B2F5AE7F82BF6FF4AE7503EB050840F25D134F4688BFA360236898BF4FF0000843F4506323600023326803A951F8230011780222019300F02AFA019B002835D0FD
:40640000012B0BD162682AB908226260226842F400722260226822F4A0620BE0022B0AD1226802F4C061B1F5007F1FD11021616042F480722260A268511EA160B2B13268A9
:406440007D1C511C316012783A707268013A002A72600ADCD4F880215846314601939047002841D12F46019B00E02F460133032BBAD163680BB90A23636063683C49606948
:40648000C91A00F077F83D460027A3686BB3316860690A78805C40B3302A22680AD1100508D50137B8F1000F0BD0013308F1FF38A36006E022F4106222600B78013505F88B
:4064C000013C7368013B002B736003DD33680133336005E0D4F8803158463146984720B9A368013BA360D0E700272368D9050DD54D4509D915F8011C05F1FF38D4F87C3122
:4065000058463246984745464D4527D0226812F010021BD12A70636858464946009EB0472268DAF8003012F0200F07D1D20705D51A1DCAF800201B68188004E01A1DCAF848
:4065400000201B681860E3680133E360C9EB05053D44276900203D44256100E0012007B0BDE8F08F00960000E5660000D96500001C960000F0B50A78441E5E2A13BF4B1C51
:406580008B1C4A78002108BF012100F1FF0504F8011FAC42FBD10AB9581EF0BDC1F10104E7B2875419785E1C2D2905D05D290ED079B10A463346F3E75D785D2DF9D0954226
:4065C000F7DB02330132AA428754FBDBEAE73046F0BD1846F0BD00002DE9F0470F46404CD4F800903D4615F801EB09EB0E04667806F0080404F0FF060CB12F46F2E774461B
:406600002D2C03D1BD1C7C78012603E02B2C04BF7C78BD1C13B1102B0AD15AE0302C56D12C7804F0DF04582C4CD16C7810230235002E14BF4FF000486FF00048B8FBF3FA9F
:406640000027BE4603FB1A8809EB040C9CF801C01CF0040F01D0303C0BE01CF0030C1BD0BCF1010F0CBF4FF0370C4FF0570CCCEB04049C4210DAB7F1FF3F0AD0D64506D8BD
:4066800001D1444503DC03FB0E4E012701E04FF0FF3715F8014BD7E77C1C73460AD1002E4FF0220114BF4FF000436FF0004301602AB911E00EB1CEF100036AB107B1691EEE
:4066C000116009E03024002BB2D10823B0E70A23AEE7302CACD1A3E71846BDE8F08700BF9C81FF1F2DE9F0470E463B4CD4F80090354615F801EB09EB0E04677807F0080403
:4067000004F0FF070CB12E46F2E774462D2C03D1B51C7478012703E02B2C04BF7478B51C13B1102B0AD151E0302C4DD12C7804F0DF04582C43D16C78102302354FF0FF3873
:40674000B8FBF3F803FB08FA00266FEA0A0AB64609EB040C9CF801C01CF0040F01D0303C0BE01CF0030C1BD0BCF1010F0CBF4FF0370C4FF0570CCCEB04049C4210DAB6F16C
:40678000FF3F0AD0C64506D801D1544503DC03FB0E4E012601E04FF0FF3615F8014BD7E7741C734603D122230360334602E00FB1CEF100036AB106B1691E116009E03024F8
:4067C000002BBBD10823B9E70A23B7E7302CB5D1ACE71846BDE8F0879C81FF1F2DE9F0410C46496B04F1440399421AD14FF4806100F09AF818B94FF0FF30BDE8F0814FF495
:406800008063A36394F84630606380F8FF3394F8453000F2FD30437094F844300370206012E0A66B77003A4600F0D4F805460028E1D000EB0608404629463246FEF7B6FE51
:40684000C4F800806563A7630020BDE8F08110B5C9B202449042034605D01C7801308C42F8D1184610BD002010BD814210B501EB020301D3421E0BE09842FBD28118D21A26
:40688000D34204D013F8014D01F8014DF8E710BD994204D011F8014B02F8014FF8E710BD30B500293CD051F8042C0B1F1D49002AB8BF9B180A680C4612B95A600B6030BD91
:4068C00093420DD219685818904201BF5A5852181A60426823605A6030BD994203D80A4651680029F9D1146815199D420AD11B682344D0188842136012D1086803441360C5
:406900004B680CE002D90C23036030BD1C681819884201BF08684968001918605960536030BD00BF4082FF1F70B5CC1C24F0030408340C2C38BF0C24002C064603DA0C232E
:406940003360002070BD8C42F9D3204A136810461946A1B10A68121B0ED40B2A03D90A608B188C501FE08B420BBF5A684A6802605A6018BF0B4616E00B464968E9E7144DBF
:406980002B681BB9304600F04BF828603046214600F046F8421C0346D1D0C51C25F0030585420AD11C6003F10B001A1D20F00700821A0AD05142995070BD3046E91A00F0FB
:4069C0002FF80130BBD02B46ECE770BD4082FF1F3C82FF1FF8B5074615460E4621B91146BDE8F840FFF7A0BF1AB9FFF759FF2846F8BD00F025F8A8420ED238462946FFF77D
:406A000093FF044650B131462A46FEF7CFFD38463146FFF745FF01E03046F8BD2046F8BD38B5064C0023054608462360FCF7DCFB431C02D1236803B12B6038BD3C4800209E
:406A400051F8040C0028BEBF091851F8043CC018043870471000000000000000017A5200027C0E011B0C0D001000000018000000ECEEFFFF140000000000000000000000F1
:406A800096960A000801002530325825303258253032582530386C580D0A002530366C582530386C580D0A002530366C582530386C582D253032582530325825303258254C
:406AC000303258253032580D0A002530366C582530386C58253032582530325825303258253032580D0A00242530325830302530366C582530386C582530325825303258F2
:406B0000253032580D0A004009257509256C7509256C7509256C752E256C750925750925750925750900256325737825580D0A002409257509256C7509300900240925751E
:406B400009256C75093509256C7509002409257509256C75093909256C7509002409257509256C7509313009256C752E256C7509002409257509256C75093131090024097D
:406B8000257509256C7509313209002409257509256C750931340930093009002409257509256C7509313409256C7509256C7509002409257509256C7509333709256C7535
:406BC00009002409257509256C750930093509323930343230313809002409257509256C750930093109256909002409257509256C750930093209004D4F4E49544F52200F
:406C00004D4F4445004D4F4E49544F52204D4F4445204F4E0D0A0043414E4F204D4F44450043414E4F204D4F4445204F4E202877697468207472616E73706F6E6465722071
:406C40006465636F64696E67290D0A005243484F5552474C415353204D4F4445005243484F5552474C415353204D4F4445204F4E0D0A00414D425243204D4F444500414D67
:406C8000425243204D4F4445204F4E0D0A005452414E58204D4F4445005452414E58204D4F4445204F4E0D0A004C4F4F504241434B204D4F4445004552524F522043616E20
:406CC0006E6F742073657420626F746820706F72747320696E206C6F6F706261636B206D6F64650D0A004C4F4F504241434B204D4F4445204F4E0D0A0043414E4F20434C40
:406D00004153534943204D4F44450043414E4F20434C4153534943204D4F4445204F4E2028776974686F7574207472616E73706F6E646572206465636F64696E67290D0A8D
:406D4000005355434345535320424545500D0A004745542054494D450053554343455353204745542054494D45202530386C580D0A005345542054494D4520004552524FF5
:406D800052204D697373696E672074696D650D0A00256C78004552524F522057726F6E672074696D650D0A0053554343455353205345542054494D45202530386C580D0AFF
:406DC00000424547494E2050524F4752414D4D494E47004552524F5220414C524541445920494E2050524F4752414D4D494E470D0A005355434345535320424547494E2030
:406E000050524F4752414D4D494E470D0A00454E442050524F4752414D4D494E47004552524F52204E4F5420494E2050524F4752414D4D494E470D0A0053554343455353D9
:406E400020454E442050524F4752414D4D494E470D0A004552415345204445564943450053554343455353204552415345204445564943450D0A0057524954454D454D2047
:406E8000004552524F52204D697373696E6720616464726573730D0A0025346C78004552524F522057726F6E6720416464726573730D0A004552524F52204D697373696E23
:406EC0006720646174610D0A00253478004552524F522057726F6E6720646174610D0A004552524F522057726F6E672041646472657373202861626F766520636F6E6669E0
:406F000067206D656D6F7279290D0A004552524F5220566572696679206572726F722028636F6E66696720776F726473290D0A00535543434553532057524954454D454D98
:406F40002041444452455353202530346C582042595445532025750D0A004552524F522057524954454D454D2041444452455353202530346C58204259544553206578704B
:406F80006563746564202530346C5820676F7420253034580D0A00444554454354004445544543544E47205049430D0A005355434345535320504943204D4F44454C2025D8
:406FC0003034580D0A004552524F5220504943204E4F5420464F554E440D0A0044454C45544520004552524F52204D697373696E67205458206E756D6265720D0A00256C00
:4070000075004552524F522057726F6E67205458206E756D6265722E0D0A00535543434553532054582064656C657465642E0D0A004552524F52205458206E6F7420666F8D
:40704000756E642E0D0A00494E464F2000494E464F20256C7520257325730D0A00494E464F205025752025303258253032582530325825303258253032582530325825309A
:4070800032582530325825303258253032580D0A005355434345535320545820696E666F2E0D0A004552524F52205478206E6F7420666F756E640D0A00524547495354454F
:4070C0005220004552524F522057726F6E67205458206E756D6265722E204E756D626572206D757374206265206265747765656E203230393731353220616E6420393939B9
:40710000393939390D0A00494E464F204C6561726E696E672052433420545820256C752025730D0A004144442000494E464F20416464696E672052433420545820256C75D7
:407140002025730D0A00494E464F205772697465207061636B65742025752E205772697465205120746F20517569740D0A0041424F525400494E464F204C6561726E2061B9
:40718000626F727465640D0A004C49535400494E464F204C697374696E672072656769737465726564207472616E73706F6E646572730D0A0053554343455353204C6973CD
:4071C0007420636F6D706C6574650D0A0056455253494F4E00524320486F7572676C6173732076302E3520626574610D0A005345542053455249414C20004552524F522066
:407200004D697373696E672073657269616C206D6F64650D0A0043414E4F0043414E4F20434C4153534943005243484F5552474C415353005452414E5800414D4252430055
