:400000000080002011000000752600007526000008B5044B1A6803F53F5302331A6002F047FB00BFFA46004010B5054C237833B9044B13B10448AFF300800123237010BDFD
:40004000A081FF1F0000000028590000084B10B51BB108480849AFF300800848036803B910BD074B002BFBD0BDE81040184700BF0000000028590000A481FF1F0881FF1F0F
:4000800000000000044A137801331370034A137801331370704700BF0188FF1FB987FF1F08B503F0ADFF044A136801331360BDE8084003F0A9BF00BF8886FF1FF8B502F008
:4000C0009FFD02F0C3FD03F09BFF044602F084FD00F00F0502F07AFD0646204603F094FF0B2D3AD8214C012D665509D1162E01D1F92303E00A2E0CBFFC23FE2323702CE052
:400100000B2D2AD11A4F1B4B3D781B78013505F03F05AB4209D10C222046002104F0BBF9154A13780133137017E003F069FF134A134E3B78126806EB0313DA6003F064FF6D
:4001400094E807003B7806EB031383E80700204600210C2204F09FF93D7002F07DFD02F041FDBDE8F84002F06BBD00BFD886FF1FD586FF1F0088FF1FFA87FF1F8886FF1F2A
:400180004882FF1F30B5044685B000282CD0174B1B78012B28D8C369016A19444FEA41014FEA114389B20ED14278F92A0BD10579C278407902918DE809000D492B460D4841
:4001C00004F0E6FA05E000910A480B49226904F0DFFA03F015F80028FBD0064802F0AAFF03F00EF80028FBD005B030BDBC81FF1F575900009586FF1F6E59000030B5034614
:4002000087B000283CD01F4A1278042A38D1C269016A4FF47A7511441B4A1C4C1268C2EB5100B0FBF5F1226801322260009105FB11010191197D164C0291198B2046039199
:40024000022104911B69134904F0A2FA204604F001FB411C2144204602F0F6F90E49009001220E48234604F093FA02F0C9FF0028FBD00A4802F05EFF02F0C2FF0028FBD0B9
:4002800007B030BDBC81FF1F1088FF1F0488FF1F9586FF1F7D590000975900004886FF1F0A4B0B4A197810B5117059789878094A094CC0B22070117003F040FE2078400856
:4002C00003F042FEBDE8104003F082BE54590000B887FF1F3C82FF1F3D82FF1F2DE9F041944CB2B02046944904F0A2FA90B902F087FF0028FBD0914802F01CFF02F080FF79
:400300000028FBD002F05CFF02F07AFF0028FBD0002216E020468A4904F08AFAA8B902F06FFF0028FBD0874802F004FF02F068FF0028FBD002F044FF02F062FF0028FBD017
:400340000422814B1A7001F018B820467F4904F06FFA90B902F054FF0028FBD07C4802F0E9FE02F04DFF0028FBD002F029FF02F047FF0028FBD00122E3E72046754904F01C
:4003800057FA00283AD101F0D1FB02F039FF0028FBD0714802F0CEFE02F032FF0028FBD002F00EFF02F02CFF0028FBD001F0DCFB48F2060001F074FC0020014601F082FC04
:4003C000044601F0F5FB654844B143F6FF739C4204D06349224604F0DBF902E0614904F031FA02F00DFF0028FBD05C4802F0A2FE02F006FF0028FBD000F0BFBF20465A49C4
:4004000004F030FAA04251D1584B00221A70C31D184613F8012B202AFAD062B902F0F0FE0028FBD0524802F085FE02F0E9FE0028FBD000F0A2BF32AA002342F8883D4D4914
:4004400004F0CAF901280AD1109B43B1109802F06DF80446109801F01DFE6CB10BE002F0CFFE0028FBD0444802F064FE02F0C8FE0028FBD0EAE760B902F0C2FE0028FBD051
:400480003E4802F057FE02F0BBFE0028FBD000F074BF02F0B5FE0028FBD0394802F04AFE02F0AEFE0028FBD000F067BF2046354904F0D8F9A04240F0CE802C4B00221A7088
:4004C000431D184613F8012B202AFAD062B902F097FE0028FBD0264802F02CFE02F090FE0028FBD000F049BF32AA002342F8983D204904F071F9012806D10C9B23B101F028
:40050000E1FF0024054611E002F07AFE0028FBD0194802F00FFE02F073FE0028FBD0EEE7204610A901F0E1FF70B30134AC42F7DB84E000BF7887FF1FA1590000AB5900004D
:40054000D4590000DF590000BC81FF1FED590000FF590000335A00003A5A00009586FF1F475A0000605A0000765A00000C88FF1F7E5A0000FA5C0000985A0000B15A0000BB
:40058000C75A0000DD5A00000C9B109A9A42CCD102F036FE0028FBD011AA92E803000DAB002283E803008DF83C20A54A0BA910889278ADF82C008A709DF84C20009112F0FB
:4005C000010208BF8DF82C209E49109A9E4804F0DFF89D4802F0AEFD10AC002502F010FE0028FBD0627C237C0092A27C01350192E27C96490292227D93480392627D0A34D5
:400600000492227B0592627B0692A27B0792E27B08922A4604F0BCF88B4802F08BFD0C2DDCD102F0EDFD0028FBD0894802F082FD02F0E6FD0028FBD000F09FBE02F0E0FD8E
:400640000028FBD0834802F075FD02F0D9FD0028FBD000F092BE20467F4904F003F9A042064640F085807D4D2B78032B00F085867B4B7C4F7C4C00217C48092219703960BB
:40068000217003F008FF06F1090023463E46044610F8012B202AFAD062B902F0B1FD0028FBD0734802F046FD02F0AAFD0028FBD000F063BE492A05D16278202A02BF0122A4
:4006C00002341A70674F20466A493A4604F084F8012805D13B68684AA3F5001393420ED902F08EFD0028FBD0644802F023FD02F087FD0028FBD000F040BE202A05D02346B3
:4007000014F8012B002AF8D107E01A46117801332029FAD00023D15C61B92B786B7003232B7003F06DFC564B1A68564B1A6003F06BFC05E0082BF0D04C4819540133EAE7FC
:4007400002F05EFD0028FBD03F484F493268474B04F01EF83C4802F0EDFC02F051FD0028FBD001F00FFB494B00221A8000F005BE2046474904F076F8A042054640F0AC8073
:40078000394B002139480922197003F084FE281D044610F8016B202EFAD066B902F030FD0028FBD0324802F0C5FC02F029FD0028FBD000F0E2BD374D00212846882203F027
:4007C0006AFE492E05D16378202B02BF012302342B73304E20462749324603F0FDFF012805D13368244AA3F5001393420ED902F007FD0028FBD0214802F09CFC02F000FD70
:400800000028FBD000F0B9BD202A05D0234614F8012B002AF8D107E01A46117801332029FAD00023D15C21B90D4B01221A701C4632E0082BF8D00D4819540133F2E700BF69
:400840003E650000E35A00009586FF1FF25A0000265B0000395B00004E5B0000BC81FF1F0C88FF1FE886FF1F8E86FF1F3E82FF1F7E5A0000FA5C00007F967800585B00003E
:400880008886FF1FFC87FF1F9C5B00008C86FF1FB95B0000F086FF1F02F0B2FC0028FBD0AE48AF492A68AF4B03F072FFAB4802F041FC02F0A5FC0028FBD0AB492278A74806
:4008C00003F066FFA54802F035FCA64AA74B1068516803C300F051BD2046A54903F0A8FFD8B9A44B1870A44B1A78032A40F045855A781A7002F084FC0028FBD09F4802F081
:4009000019FC02F07DFC0028FBD002F059FC02F077FC0028FBD000F030BD2046984903F087FF002841D1934B00221A7002F068FC0028FBD0934802F0FDFB01F0C3FD05463A
:400940000024AC422ADA204610A901F0CEFD18BB02F056FC0028FBD011AA92E803000DAB002283E803008DF83C20874A0CA910889278ADF830008A709DF84C20009112F090
:40098000010208BF8DF8302074488049109A03F0FFFE724802F0CEFB0134D2E702F030FC0028FBD07A4800F0E6BC7A4C7A49204603F03EFF80B96F4B187002F021FC0028E0
:4009C000FBD0764802F0B6FB02F01AFC0028FBD002F0F6FB00F0D1BC2046714903F042FFA04246D100F10803184613F8012B202AFAD062B902F004FC0028FBD0694802F0DB
:400A000099FB02F0FDFB0028FBD000F0B6BC32AC002304F8883D2246634903F0DDFE0128024619D12046614903F02DFAA0B9FFF737FC4A485E499DF8402003F0A9FE02F07E
:400A4000DFFB0028FBD0454802F074FB02F0D8FB0028FBD000F091BC02F0D2FB0028FBD0544802F067FB02F0CBFB0028FBD000F084BC2046504903F0F5FEA04255D100F16B
:400A80000803184613F8012B202AFAD062B902F0B7FB0028FBD0494802F04CFB02F0B0FB0028FBD000F069BC00238DF834308DF8403043490DAA10AB03F08EFE022827D1C1
:400AC0009DF84030063B182B22D80DA83D49012203F0D9F9E0B910A83B49012203F0D3F9B0B9FFF7DDFB1D4838499DF834209DF8403003F04DFE02F083FB0028FBD017488E
:400B000002F018FB02F07CFB0028FBD000F035BC02F076FB0028FBD02D4802F00BFB02F06FFB0028FBD000F028BC2046294903F07FFE002852D1284B08481D491A7803F04C
:400B400027FE02F05DFB0028FBD0044802F0F2FA02F056FB0028FBD000F00FBC9586FF1FBE5B00003E82FF1FD95B0000F486FF1F015C00000C88FF1FBC81FF1F075C00002F
:400B80001A5C00001F5C00003E650000E35A0000465C00007887FF1F5E5C0000665C00007D5C0000865C0000FA5C000054590000A35C0000B45C0000CF5C0000D95C0000FC
:400BC000F75C00005559000056590000FD5C0000125D00003A5D0000B887FF1F20460C4903F026FEF0B90B4B0B481A780B4B0C491B7803F0CDFD02F003FB0028FBD00648A7
:400C000002F098FA02F0FCFA0028FBD0B5E300BF425D00003C82FF1F9586FF1F3D82FF1FFD5C00002046B74903F002FEB64E002840F07C82307002F0E3FA0028FBD0B34804
:400C400002F078FA02F0DCFA0028FBD002F0B8FA02F0D6FA0028FBD0AD4802F06BFA02F0CFFA0028FBD002F0ABFA02F0C9FA0028FBD0A84802F05EFA02F0C2FA0028FBD0E8
:400C800002F09EFA02F0BCFA0028FBD0A24802F051FA02F0B5FA0028FBD002F091FA02F0AFFA0028FBD09D4802F044FA02F0A8FA0028FBD002F084FA02F0A2FA0028FBD0BC
:400CC000974802F037FA02F09BFA0028FBD002F077FA02F095FA0028FBD0924802F02AFA02F08EFA0028FBD002F06AFA02F088FA0028FBD08C4802F01DFA02F081FA002815
:400D0000FBD002F05DFA02F07BFA0028FBD0804802F010FA02F074FA0028FBD002F050FA02F06EFA0028FBD0804802F003FA02F067FA0028FBD002F043FA02F061FA002804
:400D4000FBD07B4802F0F6F902F05AFA0028FBD002F036FA02F054FA0028FBD0754802F0E9F902F04DFA0028FBD002F029FA02F047FA0028FBD0704802F0DCF902F040FAD3
:400D80000028FBD002F01CFA02F03AFA0028FBD05F4802F0CFF902F033FA0028FBD002F00FFA02F02DFA0028FBD0644802F0C2F902F026FA0028FBD002F002FA02F020FA4D
:400DC0000028FBD05E4802F0B5F902F019FA0028FBD002F0F5F902F013FA0028FBD04C4802F0A8F902F00CFA0028FBD002F0E8F902F006FA0028FBD0524802F09BF902F014
:400E0000FFF90028FBD002F0DBF902F0F9F90028FBD04D4802F08EF902F0F2F90028FBD002F0CEF902F0ECF90028FBD0474802F081F902F0E5F90028FBD002F0C1F902F06D
:400E4000DFF90028FBD0424802F074F902F0D8F90028FBD002F0B4F902F0D2F90028FBD02B4802F067F902F0CBF90028FBD002F0A7F902F0C5F90028FBD0364802F05AF953
:400E800002F0BEF90028FBD002F09AF902F0B8F90028FBD0304802F04DF902F0B1F90028FBD002F08DF902F0ABF90028FBD0184802F040F902F0A4F90028FBD002F080F9C3
:400EC00002F09EF90028FBD0244802F033F902F097F90028FBD002F073F902F091F90028FBD01F4802F026F902F08AF90028FBD002F066F902F084F90028FBD0194802F0C4
:400F000019F931E04B5D00000C88FF1F535D0000EF660000635D0000A05D0000DA5D0000155E0000235E0000465E0000645E0000A25E0000E05E0000195F00003D5F00008F
:400F4000765F00009E5F0000DC5F0000FF5F00003C6000006F600000A9600000B6600000EC6000001F61000002F04AF90028FBD002F026F902F044F90028FBD0A04802F07B
:400F8000D9F802F03DF90028FBD002F019F902F037F90028FBD09B4802F0CCF802F030F90028FBD002F00CF902F02AF90028FBD0954802F0BFF802F023F90028FBD002F00D
:400FC000FFF802F01DF90028FBD0904802F0B2F802F016F90028FBD002F0F2F802F010F90028FBD08A4802F0A5F802F009F90028FBD002F0E5F802F003F90028FBD0854808
:4010000002F098F802F0FCF80028FBD002F0D8F802F0F6F80028FBD07F4802F08BF802F0EFF80028FBD002F0CBF802F0E9F80028FBD0734802F07EF802F0E2F80028FBD05B
:4010400002F0BEF802F0DCF80028FBD0734802F071F802F0D5F80028FBD002F0B1F802F0CFF80028FBD06E4802F064F802F0C8F80028FBD002F0A4F802F0C2F80028FBD02A
:40108000684802F057F802F0BBF80028FBD002F097F802F0B5F80028FBD0634802F04AF802F0AEF80028FBD002F08AF802F0A8F80028FBD05D4802F03DF802F0A1F80028B2
:4010C000FBD002F07DF802F09BF80028FBD0584802F030F802F094F80028FBD002F070F802F08EF80028FBD0524802F023F802F087F80028FBD002F063F802F081F800286B
:40110000FBD04D4802F016F802F07AF80028FBD002F056F802F074F80028FBD0474802F009F802F06DF80028FBD051E43578002D00F023812046424903F07AFB60B93070E6
:4011400002F05EF80028FBD03E4801F0F3FF02F057F80028FBD010E1204614F8013B202BFAD05BB902F04CF80028FBD0364801F0E1FF02F045F80028FBD0FEE0013D0A21EE
:401180006943324C01F112052544009501F113052544019501F114052544029501F115052544039501F116052544049501F11705254401F1100201F11103059501F11805A4
:4011C0001931254421440695079122442049234403F002FB0A28254640F0C88033780133DBB20C2B337039D802F00AF80028FBD018481949327803F0CBFA1648BBE000BF4F
:40120000EF6600005B61000097610000D061000009620000466200008362000089620000C3620000FE6200003663000071630000AA630000E56300001F64000075650000ED
:4012400057640000596400006D640000F086FF1F876400009586FF1FD95B0000484B00241C70FC238DF840300A238DF841302B1953F8102F10A8CDF842205A681B89CDF8E7
:401280004620ADF84A3000F0A3FE064678B13D4B1B6898420BD001F0B3FF0028FBD03A483A49324603F074FA374801F043FF0A34782CD6D1334801F053F90746314800F0C6
:4012C00001FF804601F09CFF0028FBD0304A10AB10685168002603C32A682E4910AB2A488DF8486003F054FA274801F023FF254C01F086FF0028FBD0627C237C0092A27C2A
:4013000001360192E27C24490292227D1E480392627D0A340492227B0592627B0692A27B0792E27B0892324603F032FA164801F001FF0C2EDCD101F063FF0028FBD0124874
:401340003FB9B8F1000F04D114492A6803F020FA04E0134942463B4603F01AFA0A4801F0E9FE01F04DFF0028FBD006E001F048FF0028FBD00B4801F0DDFE32B0BDE8F0811A
:401380000C88FF1FF086FF1F9586FF1FA66400003E82FF1FCE640000F25A0000E4640000F56400002D65000008B50F480F4903F03FFAA0B901F024FF0028FBD00C4801F0D8
:4013C000B9FE01F01DFF0028FBD001F0F9FE01F017FF0028FBD0074B02221A7008BDBDE80840FEF77BBF00BF7887FF1F416500004E650000BC81FF1F2DE9F04FAA4BDFF8C2
:4014000010A3AA4DAA4EAB4FDFF80883DFF808930024C1B01C70CAF800402C6034603C7088F80040C9F8004001F0F2F8A24B20461C60A24B4FF0010B1C6002F011FD02F03C
:4014400003FD9F4A137803F0F10343F00C031370537803F0F10343F00C035370994B1C7000F05CFD00F06CFE974B83F800B0974B1C7001F011FB9649204601F067FB01F081
:401480003FFB01F0BDFB62B6924801F0C7FB01F0A9FB5946204601F0D5FC02F0F3FC02F097FD8D4B8D481C608D4B1C6000F02AFE8C4800F027FE8C4800F024FECDF834A0E4
:4014C00001F0FEFC28B101F0F5FC0028FBD001F0F9FD01F0EFFC0028F2D014BB01F090FE0028FBD0814801F025FE01F089FE0028FBD001F065FE01F083FE0028FBD000F074
:40150000E1FF82460024E0B2504508DA1EA900F0ECFF10B91EA800F0D5FD0134F3E7FEF7BFFE01F063FE48B9684B674A1C781278013404F03F04A24247D104E26C4801F05A
:4015400069FE82460028EFD00024E3B25345EBD2674A5C49D25C0B780D2A01D00A2A11D18BB364484FF0000B00F803B00E90FFF71BFF0E985946402202F08DFF514B83F859
:4015800000B020E0A2F1610019285A4898BF203AC2540133DBB23F2B0B7014D940225548002102F078FF474B00221A7001F028FE0028FBD0504801F0BDFD01F021FE0028FE
:4015C000FBD001F0FDFD0134BFE74C4A0DF1400A02EB041EDEF80CB09EE807000EF1080C8AE807000C22704600210F93CDF838C0CDF84CB002F04FFF0F9BDDF838C01C705A
:401600003F4B00221B78CCF80420042B00F29B81DFE803F00303073F0300504600F0B6FD91E19DF842109DF8402000919DF843109DF8413001919DF84410324802919DF81A
:40164000451003919DF8461004919DF8471005919DF8481006919DF8491007919DF84A1008919DF84B1009914FEA1B410A911FFA8BF10B91244903F08BF801F0C1FD002848
:40168000FBD0204801F056FD01F0BAFD0028FBD059E1504600F082FB00283FD11B4A1388013313804FE100BFFA87FF1FEC86FF1F0888FF1F0188FF1F0488FF1F1088FF1F09
:4016C000605000409486FF1FD586FF1F0088FF1FA1000000BD000000E886FF1F85010000FC87FF1FFD010000850000005E650000BA87FF1F7887FF1F856500004882FF1FFE
:40170000BC81FF1F9586FF1F966500008C86FF1F8886FF1FB987FF1F9086FF1F40F31381AE4C2368002B00F00E8101F069FD0028FBD0AB4801F0FEFC01F062FD0028FBD0CB
:40174000002188221EA80DF1600B02F0A4FE1EA8594600F049FB0346002840F0CB80DFF8C4E21FAADEF80000DEF804104FF0000A03C2226874468DF884309A4B1E921B789D
:40178000012B08BF8DF88430FC238DF850300A238DF851301EAB534453F8102F14A8CDF852205A681B89CDF85620ADF85A3000F00FFC024678B11E9B98420CD00E9201F08D
:4017C0001FFD0E9A0028F9D08748884902F0E0FF854801F0AFFC0AF10A0ABAF1780FD3D1002301223BF813100133002908BF00220C2BF7D17AB901F003FD0028FBD07A48BB
:401800007B4903F01FF8784801F094FC01F0F8FC0028FBD091E01EA800F0A2FE82461EA800F050FC834601F0EBFC0028FBD02068616814AB03C34FF0000C1E9A6D4914AB4E
:4018400069488DF858C0CDF838C002F0A1FF664801F070FCDDF838C01EAC62460E9201F0CFFC0E9A0028F9D0617C237C0091A17C02F1010C0191E17C5B480291217DCDF8DA
:4018800038C00391617D0A340491217B0591617B0691A17B0791E17B089118A931F8122055490992624602F073FF4F4801F042FCDDF838C062460C2AD0D101F0A1FC002874
:4018C000FBD04948BAF1000F07D1BBF1000F04D14A491E9A02F05CFF04E049495A46534602F056FF404801F025FC01F089FC0028FBD022E001280FD101F082FC0028FBD06C
:401900003948404902F09EFF374801F013FC01F077FC0028FBD010E002280ED101F070FC0028FBD03048384902F08CFF2E4801F001FC01F065FC0028FBD0344B5A781A70F5
:40194000264B00221A6002F05BFBDFF8C0A00D9B1C6802F059FB9AF80030012B08D9042B06D002F089FA3A780346002A61D15BE0204600F055FD9AF80030042BF1D1D9F862
:40198000003003F59C530833A342EAD2204BDFF858B01A681F4901321A601F4B58461C6002F0F6FE584602F055FF411C5944584600F04AFE19490090012219485B4602F02C
:4019C000E7FE01F01DFC0028FBD0154801F0B2FB01F016FC0028FBD0C3E700BFE886FF1FD26500008E86FF1F9586FF1FA664000013660000CE6400003C6600007A66000046
:401A0000F564000090660000B2660000BC81FF1F0488FF1FE66600009086FF1F975900004886FF1F3E82FF1F98F8001009B9002840D0D9070AD535492A680978A21A8A428E
:401A400014D9334A83F0010014600DE072B12968611A32290AD9013A3A702C4A2C4912780C601AB143F00100C0B200E0184682070AD5284932680978A21A8A4216D9264A6A
:401A800080F00200146010E098F8002072B13168611A32290AD92049013A0C601F490A701C4A127812B140F00200C0B2834201D002F0DCF99AF80030DFF86CB0032B01D0D1
:401AC0000124FDE402F09CFA0D9B1C6802F09CFA134B1B68E41A43F698239C42F0D99BF801308BF8003001F08BFB0028FBD00D4801F020FB01F084FB0028FBD001F060FB39
:401B000001F07EFB0028FBD0DAE700BFB887FF1FEC86FF1F3C82FF1F0888FF1FB987FF1FFC87FF1FF0660000BC81FF1F08B50C4A0120137803F0F10343F00C0313701378AB
:401B400003F0FE031370537803F0FE03537000F055FF044A137803F0FE03137008BD00BF0E5000400A50004008B50F4A0120137803F0F10343F00A031370537803F0F103FE
:401B800043F00C03537002F06BF94FF47A7000F021FF064A4FF47A70137843F001031370BDE8084000F016BF605000400A50004008B5144A0120137803F0F10343F00C039F
:401BC0001370137803F0FE031370537803F0FE03537000F013FF0C4A0020137803F0FE03137002F03DF9094A137803F0F10343F00C031370537803F0F10343F00C035370FB
:401C000008BD00BF0E5000400A50004060500040022000F0F3BE0A2002F0EAB910B50A4C0A4A237843F001032370137803F0FE031370FFF7F0FF237803F0FE032370BDE8F4
:401C40001040FFF7E8BF00BF0F5000400E500040F8B506460F460025BD421BD00E4C16F0010F23784FEA560643F0010323700B4B05F101051A7814BF42F0010202F0FE02D6
:401C80001A70FFF7C8FF237803F0FE032370FFF7C2FFE1E7F8BD00BF0F5000400E50004010B5044606211D20FFF7D2FFFFF7B0FFFFF7B4FF20461621FFF7CAFFBDE81040B2
:401CC000FFF7ACBF00282DE9F0410CBF04202420884609B100230B6000252F46244C0621FFF7B6FF237843F001032370FFF790FF237803F0F10343F0080323701D4E33789C
:401D000043F001033370FFF786FF337803F0FE033370FFF780FF4DB9B8F1000F06D02378DA060DD50123C8F8003009E06B1E0D2B06D823787F08DB0644BF47F40057BFB201
:401D40000135FFF768FF102DD8D1FFF764FF2378384603F0F10343F00C032370237803F0FE032370337803F0FE033370BDE8F0810E5000400F5000400A2202F071BB0A228F
:401D800002F06EBB034B002103484FF40042196002F081BB541D00201488FF1F40F6CB4270B50F4C2368934214D8A8B140F6FC220188914210D10A225A4350F8021F094E55
:401DC00001339151416895196960028923602A81002070BD012070BD4FF0FF3070BD00BF541D00201488FF1F2DE9F04F484B0E461968ABB080460193002900F084800028FD
:401E000000F08180002E7ED042480A22424B02F086FB08F1100A4FF000094FF00A0B0CAD00240BFB095000215A4606AF02F033FB27F81940504621465A4602F02CFB26F8B2
:401E4000194009F10109B9F10C0FDA44E5D1A14603A821465A4602F01EFB2E48019B1B68994539D203A90A2200F10A0B02F0F8FA08B901342CE00A2C21DD4FF6FF704FF05F
:401E8000FF31002337F813205AB1824203D2A242BCBF1046194601330C2BF3D14A1C0B460DD02AAA02EB430222F8904C0A22534303AAEC1803CAE8501388616023815A46DE
:401EC00052F80A0D03AB5168128903C300241A8009F101095846C1E700220A23534308EB03042B441968216159681B896161238337F8123026F8123001320C2AEDD1FFF7A5
:401F000041FF002000E001202BB0BDE8F08F00BF541D00201488FF1F791D0000002282EA6201C9B201F00103480744BF43F00203DBB2C80648BF43F004034906094948BF72
:401F400043F0080353540132B2F5807FE7D1064A00231360054A002199508833B3F5AA5FF8D17047583B0020C081FF1F1408002041F2F9630088C31A58425841704740F65E
:401F8000FC230088C31A58425841704744F265534089C31A58425841704730B500F10C01821C002011F8014D032304F00305013D012D4FEA400003F1FF3398BF40F0010088
:401FC00013F0FF034FEA9404EFD19142EAD130BD10B50D4B86B01A680AB9002011E0034653F8020F02AC59681B8903C42380074B02A800930649102302F0E2F90028ECD043
:40200000C06806B010BD00BFC081FF1F7F1D0000581D00200022F0B514461A4F52F807C0BCF1000F1FD0002600200146B318CD183D442D7C01310A2940EA0500F6D178B175
:40204000114D104905EB0415AE460B4453F8100FC5F80CC059681B89AEE8030001342B810A36782EE0D18832B2F5AA5FD5D1074B21461C6004481022054BBDE8F04002F01A
:402080004EBA00BF14080020581D0020C081FF1F7F1D000010B580B100230124084A9958814204BF00249C508833B3F5AA5FF5D10CB9FFF7AFFF204610BD012010BD00BFFB
:4020C0001408002038B50546B8B10068A8B1FFF7E1FF0023882202FB03F409496018645834B9294602F0CCF9FFF794FF204638BD0133282BEED1012038BD022038BD00BFFC
:4021000014080020C0B100210C4B53F8212082421A4610D001310829F6D1002352F8231021B9064A42F82300012070470133082BF4D1002070470220704700BFC481FF1FC3
:4021400070B50F4C04F587660025204629460C2204F8015C02F09FF9243404F8115C44F8055C44F8095C44F8155CB442ECD1054B29461D7004480C22BDE8704002F08BB93E
:40218000693C0020A0400020583C00202DE9F74F0446002800F03981FFF7EAFE83462046FFF7EDFE814628B12046FFF711FF074608B92AE10746BBF1000F00F0C780204676
:4021C000FFF7E4FE064648B991490B7833B120460C2202F045F9002800F0BA8000258D4B8B4829460C221D7002F055F93EB9B0464FF0FF33DFF820A200251E4630E0864EC5
:4022000016F8013C022B17D130462146082202F027F988B9814A242303FB0521087D03FB0525FF2801F110011CBF01300871637A2B83237AEB82E8E001351E2D06F1240653
:40224000DED1E2E0BBF1000F10D1B9F1000F20D1BCF1010F24D001351E2D0AF1240A2BD01AF801CCBCF1000F23D0EBE7214650460C228DE8081002F0F3F89DE80810014678
:402280000028E2D1634B0C221870614802F003F941E0002FDCD0DAF80F20BA42D8D13AE05A1CD8D1DAF81F30B3F1FF3F18BF2E46D1E72E466346CEE7BBF1000F7ED0DFF8B5
:4022C00054A1B8F1000F4AD09AF800300133DBB2032B8AF8003071D12046FFF75EFE00254E4A242101FB05210B69A3B3834232D123684748C1F8013063680C22C1F8053019
:40230000A368C1F8093000218AF8001002F0C3F8B9F1000F2DD124226A43404BE468995C9818012906D1017D21B902279F54C4610183C182242202FB05352B7D2C62FF2BDC
:4023400005F1100561D001332B715EE0D8464FE74FF001084CE701351E2DC1D10EE0206861682B4B03C3A068186001238AF8003024E0002FCFD0731C28D1CCE7711C16D0E0
:402380002421714302255554531822680121C3F801206268C3F80520A268C3F80920E26819750021DA611A621983D9821861002117480C228AF8001002F06DF8B9F1000F59
:4023C00023D017B3731C20D04FF0FF3524235E43124A022302EB0608935508F101000C22002102F058F8E368012288F81420681C4FF00002C8F81C30C8F82030A8F818207C
:40240000A8F81620C8F8107085D103B0BDE8F08F583C0020A0400020693C0020683C0020F8B50646144C04F587672378012B09D1237DE3B1236AF31AB3F57A7F17D90023B9
:40244000237514E0022B12D1237DFF2B03D0236AF31A642B0BD9012323700025074B53F825300BB1204698470135082DF6D12434BC42DAD1F8BD00BF683C0020C481FF1F79
:4024800058B1272903D90021882202F004B8034B882202FB013101F0F3BF70470467000008B558B1272909D8054B882202FB013101F0E9FC003018BF012008BD012008BDB9
:4024C0000467000030B500242546A3B029466846FFF7D6FF009B0135013B033398BF0134282DF3D1204623B030BDF0B50746A3B00E4609B9012017E000252C466846214695
:40250000FFF7BEFF009B013B033309D8AF4206D130466946882201F0B3FF002004E001350134282CEAD1E5E723B0F0BD70B50646A2B00125002468462146FFF7A1FF009BA3
:40254000B34207D14FF0FF33684621460093FFF7A7FF00250134282CEDD1284622B070BD2DE9F0410646A2B000284BD04FF0FF373D463C464FF0000841466846FFF780FF6D
:402580004FF6FF713268009B934208BF4746BDF80E208A4202D09442B8BF1446013B13F1030F88BF454608F10108B8F1280FE3D1002FA84604DD0134F481304639461DE08C
:4025C000B5F1FF3F16D14FF48037002568462946FFF756FF9DF80C302BB9BDF80E30BB42BCBF1F46A8460135282DEFD118F10103454609D0304629460134F481FFF750FF86
:40260000002002E0022000E0012022B0BDE8F081002213029BB2082113F4004F4FEA430041F2210380B208BF0023013983EA0003F2D1044921F812300132B2F5807FE8D1F4
:40264000704700BFA240002010B5441E4FF6FF7014F8013F5BB18C4209D043EA0022030A034830F8133082EA030080B2F0E710BDA240002008B501F0C7FE03680C2B00D1C9
:40268000FEE7FEE7084908B50B68084A1844821A802A01DC086005E001F0B6FE0C2303604FF0FF33184608BD0C81FF1F7043002008B51148114AC8B1A2F1100132C9234676
:4026C00004391E1BAE4204D051F8046F43F8046BF7E71D4652F8041C5C1B8C4203D0002443F8044BF8E701381032E4E701F092FEFEF782FEFEE700BF01000000F87F000092
:4027000008B5114A114B1A60114A136843F4007313600023032B98BF0E4A4FEA830094BF52F823100C490D4A0133302B1150F1D10B4B19780B4B19700B4B1A6000F018F838
:402740000A4B00221A6008BD0004FA050CED00E014ED00E000000000752600000080FF1FBC7600400481FF1F08ED00E00081FF1FF8B572B67B4A0024137843F0040313701E
:40278000794A062303FB0423002118689A88013401F081FE072CF3D1744C754B0FCB84E80F007448002450F8041F04F1105303F1500221F0FF055133C9B20B4452005B00DB
:4027C00002329A4205D012F8026C12F8017CAF55F6E7694B0C449842E5D1684A684C137843F2C82643F002031370137C43F0020313742378A2F5863243F040032370413AF5
:40280000137843F0100313705E4B03CBC2F8041EC2F8000E1868C2F8090E1B7982F80D3E594A5A4B07CA03C31A80594A594B03CB1060516003CB1061516103CB10625162EC
:4028400002F531424423C6321370842182F8803582F8003602F5B06282F8001E40F2E731803282F8803FA2F54542B63A137843F008031370484B61221A700322A3F5F063A8
:402880001A80464A1823137051801371444B06221A7045F20A5223F8EE2C052203F8F02C13F8F02CF03B1D462B781B0606D54FF4F07001F09DFB013EF6D1FEE7394B4FF462
:4028C00088721A8001224FF040231A7041F251221926A3F820220025334B4FF4F0701B7803F0010343EA450501F082FB013E05F0030535D0032DEFD12C4A4FF4807313800E
:402900002B4B522119702B4B2B491B78A1F29B61DBB281F89B3607231370482000230B70887013705371254B02221A70244A254D137843F003031370174BC1221A70224BCF
:40294000224A1B78DBB203F007011B09117053701F4B44221A7094E80F0007C52B80F8BDFEE700BFE8460040447C0000005001403C0E0048FCFFFF479C00004803500140A9
:40298000A04300404C0E00485C0E0048F051004012510040680E0048004800408240004000430040224200402542004004400040004200400F010049A1460040014000405F
:4029C000A2430040B0430040CF0100496E5800407658004010B50446B4F5004F064B05D9186801F005FBA4F50044F5E758686043BDE8104001F0FCBA1081FF1F024B1B7A62
:402A0000584301F0F5BA00BF1081FF1F08B501F0F7FA00BF00BF00BF00BF00BF00BF00BF00BF00BF00BF00BF00BF00BF00BF00BF00BF064A13889BB243F0040313801388BE
:402A4000BFF36F8FBDE8084001F0DEBA00480040044B00F00F021B6853F8220043F82210704700BF08ED00E0054A00F01F00126800F1100352F8230042F82310704700BF84
:402A800008ED00E000F01F0000F16040490100F56440C9B2017070470F4B10B50F2000240E495C609C60DC601C615C61FFF7D0FF0B4A136843F0040313600A4B4FF47A725E
:402AC000DB68B3FBF2F3084A1360084B4FF400421C60C3F8E82010BD0482FF1F292B000010E000E01081FF1F14E000E018E000E0024A136843F002031360704710E000E03B
:402B000008B5FFF7F5FF034A136843F00103136008BD00BF10E000E0024B1868C0F30040704700BF10E000E010B5FFF7F5FF012808D10024044B53F8243003B19847013497
:402B4000052CF7D110BD00BF0882FF1F024B03EB80035868596070470482FF1F134B144A1B78DBB20360127843EA0223114A0360127843EA0243104A0360127843EA0263E8
:402B800003600E4B0E4A1B78DBB24360127843EA02230C4A4360127843EA02430A4A4360127843EA02634360704700BF0301004904010049EC46004002010049010100499D
:402BC000000100490501004906010049014B1878704700BF64640040014B1878704700BF6C64004008B501F00BFA044A137843F010031370BDE8084001F006BA9C640040FD
:402C000008B501F0FDF9044A137803F0EF031370BDE8084001F0F8B99C640040064A0123136002F68832126880211064034A1170A2F540721360704780E100E000E400E072
:402C4000014B01221A60704700E100E0014B01221A60704780E100E0014B01221A60704780E200E0F8B501F0CBF9404A01261378022543F001031370137C3D4C43F0010362
:402C800013743C4B02F5E3521E700B3203F8945C1378074603F07F0313700020FFF7AEFE2378354A03F0F90323701378304603F0DF031370237833432370FFF79FFE28201E
:402CC000FFF79CFE2D4B28461A7802F07F021A701A7802F0BF021A7023782B432370FFF78DFE2378264A43F004032370002313703846537001F088F917200721FFF7C2FE9D
:402D000020491720FFF7B0FE18200721FFF7BAFE1D491820FFF7A8FE15200721FFF7B2FE1A491520FFF7A0FE30460721FFF7AAFE30461749FFF798FE28460721FFF7A2FE0E
:402D400028461449FFF790FE03200721FFF79AFE11490320FFF788FE0C200721FFF792FEBDE8F8400C200D49FFF77EBEA5430040944300409D60004012600040F851004010
:402D8000846000402F370000593500002D37000099360000C5360000F53600003337000008B51C4B1C4A1870002313701B4A13701B4A13701B4A13701B4A13701B4A1370F8
:402DC0001B4A13701B4B4FF400021A604FF080721A604FF400121A6002221A6004221A6008221A60144B19B91A7802F0FE0202E01A7842F001021A70104B03221A708022D6
:402E000003F8202C012001F0F3F80D4B04221A7008BD00BFD1420020B4420020BA420020D8420020CD420020D0420020CC420020D942002000E100E0096000402860004027
:402E40001260004070B5074C064623780D461BB9FFF708FF0123237030462946BDE87040FFF79EBF2082FF1F0A4A002313700A4A13700A4A13700A4A13700A4A13700A4A6F
:402E800013700A4A13700A4B03221A70802203F8202C7047B4420020BA420020D8420020CD420020D0420020CC420020D942002028600040014B1878704700BFD84200208A
:402EC000044B1A7802F0FF001AB118780022C0B21A707047BA420020024A0C2303FB002040787047DA420020431E072B9FBF084B074A00011B189FBF805C5B7800F00F009B
:402F000043EA00209ABF023880B20020704700BFFC5F0040431E072BF0B531D8194B0C2505FB0035EC88184EA4B2C4F50074A2424FF00C0404FB003488BFEA88E57884BF27
:402F4000C2F5007292B2104C45EA12250701BD553C44D5B2657041B90C2202FB0030002343704379DBB2A370F0BD0E46751AADB29542F1D216F801EB044D05F807E0F5E711
:402F8000F0BD00BFDA420020FC5F004078600040431E072B0AD8064A0C2303FB002300225A705A79034BD2B200011A54704700BFDA420020FE5F004070B5064614460D4634
:402FC000C9B1431E072B18D8FFF78EFF844203D93046FFF789FF04462A46531B9BB2A34205D2074B31015B5C02F8013BF5E73046FFF7CEFF02E00C4600E00024204670BD39
:403000007860004030B500210446FF20074B0C255A5C074B05FB023308339B78A34201D1084630BD09B90121F0E730BDA2420020DA42002010B51E4C2079FFF7E3FF2378E6
:4030400013F0800F63780DD0212B2ED1BDE81040184B07221A80184AC0EBC0001044586000F0D0BADBB2202B0ED0222B1DD1A378124A22F81030124A135C43F00203135421
:40308000BDE8104000F09EB90A4A07230A491380C0EBC0030B445360094A135C43F001031354BDE8104000F0D3BA002010BD00BF00600040BC4200202081FF1FA8420020FB
:4030C000AC42002010B5164A00231370154A164C137053702078C0B2431E072B01D8FFF757FF6078C0B2431E072B01D8FFF750FF0E4A13788BB123787BB10D4B197861B152
:403100001278082A09D8084A1278082A05D81878082894BF0020012010BD012010BD00BF2182FF1FAC420020AE420020B0420020A24200202DE9F84381461E4B1E4A1B78C8
:40314000D65C0023F6B29CB219F804500133002DF9D12F4619490C2303FB06131A89884692B2944294BF25461D89304688BFADB2641B09EB07012A46A4B2FFF7CBFE34B95F
:403180000C2303FB06831B899BB29D4210D13D44AFB20C2303FB06835B78002BF9D0002CD8D1304621462246BDE8F843FFF7B2BEBDE8F8832182FF1FB0420020DA420020BA
:4031C00007B5074B074A1B8801A9ADF80430064B1B78D05C0222FFF79DFE03B05DF804FB6E7C0000B04200202182FF1F024B034A1B78D05CFFF770BE2182FF1FAE42002073
:40320000024B034A1B78D05CFFF766BE2182FF1FB0420020064B074A1B780146D05C064AC0B20C2303FB00231A8992B2FFF7C4BE2182FF1FAE420020DA420020C37890F95E
:40324000020003F0030300280FDA032B15BF0C480C4802F00103C2F3800319BFC15442F00102C15442F0040207E0032B1FBF0648C2F34003C15442F002021046704700BFAB
:40328000B0420020A2420020AE42002030B51A4A1A490878138803449BB213800023184AD8B21488A4B284B1082B0DD05068154C0078C0B2E0545068013301305060108818
:4032C000013880B21080EAE718460B780E4C082B0E4A00D040B10E4D2B7883F080032B700F232370022301E0022323701370094B1870087030BD00BFCA420020D94200207F
:40330000BC42002000600040B5420020B4420020C8420020BB420020074B02221A70074B80221A70064B0F221A70064A00231370054A012013707047B4420020C8420020F1
:40334000B5420020D9420020BB42002010B5164B16491B780A8803F00F03023BDBB21A4492B20A800020124A118889B281B17BB110495468095C013BC9B221705168DBB283
:403380000131516011880130013989B21180EAE7094A1370094A137883F080031370084B0B221A7010BD00BF29600040CA420020BC42002000600040BB420020C8420020CC
:4033C000B5420020064A06231370064A01201370054B80221A70054B00221A70704700BFB4420020B5420020C8420020BB420020054B9A683AB19A68044910709A680988C5
:40340000518000229A607047BC420020CA42002008B5124B1A78D2B21A701B78DBB21A0602D50F4A137008BD0220FFF7E1FF0D4B1B7803F06003202B05D0402B06D043B996
:4034400000F0BCFB04E000F095FF01E000F0EAFC10B9034B03221A7008BD00BF28600040B54200200060004008B5084A084B0120197813880B449BB21380064B00221A70E2
:40348000FFF7B6FF044B03221A7008BDCA420020D9420020B4420020B542002008B50C4B1B78DBB2042B07D0062B09D0022B0DD1BDE80840FFF7D8BFBDE80840FFF746BF59
:4034C0000320FFF795FF034B03221A7008BD00BFB4420020B542002008B5054B002201201A70FFF785FF034B03221A7008BD00BFB4420020B542002008B50A4B1A7832B1E8
:403500001A78094942F080020A7000221A70074B002201201A70FFF76BFF054B03221A7008BD00BFD042002008600040B4420020B5420020074B1B78DBB2042B05D0062B1D
:4035400005D0022B05D1FFF7A1BEFFF7C5BFFFF7D3BF7047B442002010B51D4C2378DBB2DA0634D518060AD503F00F03012B2ED1FFF74EFF174B1B78190609D510BD5A0681
:4035800002D5FFF7D7FF03E09B0620D5FFF786FF23781B061BD4104B104A1B78127813430F4A13701278934211D10A4A084913782078DBB200065FBF1378DBB20B700B78F5
:4035C000127858BF03F00F039342EED110BD10BD28600040B5420020C8420020BB42002029600040054A00231380054A916819B191680B7092685380704700BFCA4200200E
:40360000BC42002010B50E4C23889BB213B9FFF783FE13E00B4B02221A700B4B00221A70FFF7E0FF094AD1799379228843EA012392B29A4288BF2380FFF728FE012010BD8C
:40364000BC420020B4420020C84200200060004008B50C4B04221A700B4B80221A70FFF7C1FF0A4A0120D179937943EA012308490A8892B29A4288BF0B80064B0B221A7057
:4036800008BD00BFB4420020C842002000600040BC420020B5420020084B01221A700F3B9B7C074B1A7B02F00302012A1EBFDA7B82F08002DA7301225A7370470B60004042
:4036C000DA420020094B02221A700F3B93F82230074B1A7E02F00302012A1EBFDA7E82F08002DA7601225A76704700BF0B600040DA4200200B4B04221A700F3B93F8323053
:40370000094B93F8242002F00302012A1EBF93F8272082F0800283F82720012283F82520704700BF0B600040DA4200207047FFF79BBB00F081BB000070B50446194B88B065
:4037400003AA03F11006154618685968083303C5B3422A46F7D11B782B7004B32223237001AD032328466370FFF7F8F920460022AB5C08A901EB131108AC03F00F0311F8FB
:40378000141C234413F8143C01328170082A4FF00001C1700371417100F10400E8D108B070BD00BF707C0000F0B5012216490C25164B05FB0216140123441D7014487779C6
:4037C000204437B13479240601D5857003E0082400E0802484700C2000FB0211C8880132C0B29871C888092AC0F30720D871C888C0B21871C988C1F307215971D6D1054B3D
:40380000FF221A70F0BD00BFDA42002070600040FC5F00400A600040064B074A1B7802EBC30253681A7C824286BF03EBC003586900207047D1420020847C0000F8B5334BF8
:403840001A78002A61D018780138C0B2FFF7E4FF2F4AC3681478067AE4B203EBC606B34253D01A78A2424ED12A4A5978125D914249D19A780C2502F07F077D43264A4FF0CF
:40388000000E5119D87881F803E093F802C000F0030081F804C093F803C002F805C09D880D8193F90250754507DA01280CBF07200D2048710120487006E001280CBF052055
:4038C0000920487181F801E014493D012944012088700C2000FB07221089C0F3072008701089C0B24870D0880D49C0B229448871D088C0F30720C871D088C0B20871D288DF
:40390000C2F307224A710833A9E7F8BDD8420020CD420020B8420020DA420020FC5F00407060004008B5064B18780138C0B2FFF773FF20B143681B7900EBC300406908BD27
:40394000D84200202DE9F04700210C244C43524D013100232A1909292B559370D3701381937253705371F0D128B14C494C4A0B7013704B7053704B4B1A78002A00F0898005
:40398000187801270138C0B2FFF746FF80464368067ADB79F60013F0400F434B1A7814BF42F0010202F0FE021A700022D8F80C405FFA87FA04EB06094C453CD0A07800F07D
:4039C0007F039F4235D10C2303FB07531989B4F804E089B2714538BFA3F808E02F492378CB5C6178994224D10C2179436B181871E078685494F90200E178002801F0030149
:403A000006DA01290CBF07210D215971012105E001290CBF05210921597100215970A37903F0F703022B04D120465146FFF706FC02460834C0E70137092FB7D1D8F80C3062
:403A40000A369A1C1E440832B2420AD012F8083C0C2003F07F0300FB035312F80A1C9972F1E7FFF75FFF114B0121186000230C2202FB0152D3801289013113449BB203F0F1
:403A80000102134409299BB2F1D1BDE8F047FFF78BBEBDE8F08700BFDA420020B8420020B6420020D8420020CC420020D4420020114B1B7903F07F035A1E072A19D80F4912
:403AC0000C2202FB031291781B0141F0010191700021D170517841F002015170127912F0800F074A1A4414BF8D2389239370FFF769BC0020704700BF00600040DA42002083
:403B0000FC5F004030B5184B1A7902F07F02531E072B26D8154B0C2000FB02339978144C01F0FE0199700021D970120110497F25155511445A7802F0FD025A701A795B78A9
:403B4000120605D5012B01D1887006E00D2303E0012B0CBF082309238B70BDE83040FFF731BC002030BD00BF00600040DA420020FC5F004038B50D4B0D4D2C791878E4B276
:403B80000138C0B2FFF748FE43681B79A34201D2022C09D8074A0849135D0120DBB20B55AB78DBB2135538BD002038BDD842002000600040B8420020B642002038B5884A0B
:403BC000884C13780021DBB221801806517840F188800A2900F20181DFE811F05800FF00FF00FF00FF00FF000B00FF007900FF007D00D2787A4B012A09D17B4B1A787B4B04
:403C000003EBC2035B685B686360122310E0DA78022A12D19878FFF7FFFD002800F0DD80436863606368DA7863689B7843EA02232380BDE83840FFF7E5BCDB78032B21D106
:403C40006B4B0021664AC8B29578854202D892783AB910E0187801310028F8D01A781344F0E75F4A63499278097C914203D16248FFF762FD604B1A78002A00F0AE801A7895
:403C8000228018E0BDE8384000F074BB13F0030313D0022B40F0A1802380514B0C211B7903F07F02554B01FB02339A78544BD2B21A7000225A706360BBE702222280514A0E
:403CC00011784F4AC9B2117053706260B1E7012323804D4BEFE70123238013794B4A1344E9E701390A2978D8DFE801F037774F77067777770A7720009378454ADBB25AE0EF
:403D0000937803F0FF0453B93F4B1A78944260D01C70404B01201870FFF714FE59E0601EC0B2FFF779FD0028EED156E0FFF722FF002852D02A4A384913791279DBB2D2B25C
:403D40000A70364A3149D25CCB5C9A4241D0314B01221A70FFF772FD3BE003F00303012B2BD009D3022B38D11D4B9B78002B34D1BDE83840FFF7C6BE194B9B78012B2CD1D0
:403D8000204A137803F0FD0315E003F00303012B13D008D3022B20D1114B9B78EBB9BDE83840FFF785BE0E4B9B78012B15D1154A137843F0020313700BE0094B1A79012A9C
:403DC0000BD898781B791649DBB2CA5C22EA0002CA54BDE83840FFF7F5BA002038BD00BF00600040BC420020D1420020847C0000E87C0000047E000048430020DA420020AA
:403E00002282FF1FCC420020D8420020B8420020D0420020BA420020CD420020B6420020CE420020034B00201A78120648BF5B78704700BF00600040024B1878C0F3801051
:403E4000704700BF8F450040044A137843F002031370137C43F0020313747047A2430040014B1870704700BF75640040014B1870704700BF7B650040014B1878704700BFDB
:403E80007B65004070472DE9F04F8B18B3F5802FADF50B7D81468846924641D800F0B8F842A800F0FDF8002005464FEA1846C8F3072404EB06231B020DF1080CC3EB0C07CD
:403EC000554508D30190FEF7A1FD0198022828BF4FF0FF3025E00028F4D103F5807B434506D3554504D219F805200135FA5401E01A78FA5401335B45F1D1F0B2A1B26246AD
:403F00000134CDF804C000F043F9B4F5807FDDF804C004BF01360024A7F580775B46CFE701200DF50B7DBDE8F08F0000024A137843F08003137070477A650040014B1870C5
:403F4000704700BF29650040014B1870704700BF39650040034B1B785B0602D5024B1B78F8E77047696500404965004008B5124A137803F0F80343F001031370137803F080
:403F8000FC031370FFF7E6FF0C4B06221A700C4A0023137082F880300A4B03221B780A4B1A7000F02DF8094A137843F010031370BDE8084000F028B87A6500402965004023
:403FC0000965004069650040396500409965004010B5054C23781BB9FFF7C8FF01232370BDE81040FFF7A2BF2482FF1F000000000230800803D000BF01380046FCD1704791
:40400000EFF3108072B6704780F31088704700BF38B500F0C5F800F05FF908B1042438E000F094F9072804460FD11B4B1A78900703D40120FEF7E2FCF7E71A78910704D5C2
:404040001B789B0814BF0724002400F065F904BB00F0A6F800F040F90028DFD1012000F021F9072805D04FF0FF3410E02B789B07F9D40A48022100F0A5F80228064DF5D164
:404080002B789A0703D40120FEF7B8FCF8E700F043F9204638BD00BF224700404643002038B5054600F07CF84DB100F015F9044638B9054B1D6000F02FF9204638BD012070
:4040C00038BD042038BD00BF2882FF1F4128F8B505460E4617461C460AD8411F3A298CBF002101213F2804D8B6F5807F29D805E00121812E28BF0121102C22D10FB301BB2A
:4041000000F0EAF8F8B92346284631463A4600F073F80728044611D11B4B1A781F4612F0020F03D10120FEF769FCF5E71A78900702D51B789B0808D04FF0FF3400F0ECF889
:404140001FE001241DE004241BE0104B28461A7831465B7800F086F807280446EED13A78094B910703D40120FEF748FCF7E71A789207E1D51B789B0814BF4FF0FF34002483
:40418000DCE72046F8BD00BF22470040464300203F288CBF10234FF48073FFF797BF000008B5FFF72DFF064A137843F008031370137C43F008031374BDE80840FFF724BF14
:4041C000A043004070B50E464B1E451EC418A5420CD0074B1B78DB0703D40120FEF70EFCF7E7044B1B7805F8013FF0E7304670BD224700402047004070B5184D2C78A60758
:4042000027D5174CB6262670D5262670022626702D78AD071FD416462070B51AADB29D4203D216F8015B2570F7E7B3F5807F01D0072070BD3F28FBD800F5103001EB00211F
:40424000490100235A5C0133D2B2202B2270F9D1EEE7042070BD092070BD00BF224700402047004070B50D4D2C78A60712D50C4CB6262670D8262670052626702D78AD0702
:404280000AD42070080AC9B22070217022702370072070BD042070BD092070BD22470040204700400A4A137899070CD5094BB6211970E12119700E2119701278920704D420
:4042C000187007207047042070470920704700BF224700402047004038B5FFF791FE0C4A147874B901250B4915700B682B400AD00B6823F001030B6000BF00BF00BF55606F
:4043000002E0042400E01C46FFF77EFE204638BD2C82FF1F0400084010B5FFF771FE094B00215A681970012A08D1074C226842F00102226000BF00BF00BF5960BDE81040DF
:40434000FFF762BE2C82FF1F04000840074B1B789B0741BF064BB6221A70E02241BF1A700D2207201A7058BF0420704722470040204700400F4A137803F00303012B0BD043
:40438000022B0CD113790C2103F07F020A4B01FB023308339B7800E01379DBB200E00023064A1268D35C022B01D1FEF743BE0020704700BF00600040DA420020D442002060
:4043C0002DE9F04D82468B461E46174612B90020BDE8F08D002BFAD04FF00008B845F6D207EB0804640806FB04B550462946089B9847002803DB04D004F101083C46274690
:40440000ECE72846BDE8F08D014B1868704700BF9881FF1F0E4B70B51E460E4C0025E41AA410A54204D056F8253098470135F8E703F0C8FD084B094C1E46E41AA4100025A0
:40444000A54204D056F8253098470135F8E770BDD07F0000D07F0000D07F0000D87F000010B50A44441E914208D014F8013F0878834201D0181A10BD0131F4E7002010BDFE
:4044800010B5431E0A44914204D011F8014B03F8014FF8E710BD03460244934202D003F8011BFAE77047012B30B50ADC920803680C68013A002A40F8044B41F8043BF6DC0A
:4044C00030BD03460D781C7803F8015B01F8014BD41A0444002CF5DC30BDF8B50C46154607461E4698470028294620460CDAB047002801DA2046F8BD38462946B04715EAEC
:40450000200038BF3846F8BDB0470028F2DC38462946B04717EA200038BF2846F8BD2DE9F04F0646144685B001910293B20707D1A30705D1B4F1040818BF4FF0010801E00C
:404540004FF00208019B06EB040B062B26D85F4604FB0365AF4280F01781B946B1451BD9C4EB090A50464946029B9847002813DDB8F1000F08D1D9F80030DAF80020C9F879
:404580000020CAF8003005E04846514622464346FFF789FFD146E1E72744DBE7019B5D08072B03F1FF3304FB0565039325D004FB0369019B282B18D9DF086743F119CA194E
:4045C000029B3046FFF789FF2946EA19029B8246E81BFFF782FF0546A9EB47004A46C119029BFFF77AFF814600E0B246294650464A46029BFFF771FF0546B8F1000F04D12E
:4046000033682A6832602B6005E03046294622464346FFF748FF039B5F4604FB0365D946AA460022A94528D848463146029B039298470028039A20DC13D1B8F1000F08D123
:40464000DBF80030D9F80020CBF80020C9F8003005E05846494622464346FFF724FFA3440122A144DEE728463146029B039298470028039A18DB03D02D1BA945F3D927E018
:40468000B8F1000F06D12B68DAF800202A60CAF8003005E02846514622464346FFF703FFC4EB0A0A0122E7E7B8F1000F06D1D9F800302A68C9F800202B6005E04846294673
:4046C00022464346FFF7EFFEA1442D1B0122A9E7019B63431ABBF518AF4255D2B946B1451BD9C4EB090A50464946029B9847002813DDB8F1000F08D1D9F80030DAF80020E2
:40470000C9F80020CAF8003005E04846514622464346FFF7C8FED146E1E72744DCE7CBEB090CC6EB0B026245A8BF6246F7184AB13046C2EB09014346CDF804C0FFF7B3FEB3
:40474000DDF804C0CAEB0702C5EB0A05121BAA4228BF2A4642B14846B91A4346CDF804C0FFF7A1FEDDF804C0A44506D93046BCFBF4F12246029BFFF7D2FEA54204D9B5FB06
:40478000F4F37E1B0193D1E605B0BDE8F08F00000EB400B54FF402719CB0ADF814106FF00041049107914FF6FF711DABADF81610084953F8042B02900690086802A901935C
:4047C00000F0C2F8029B00221A701CB05DF804EB03B070479881FF1F0EB430B59CB01FAC4FF4017254F8045BADF814200290069000F030F80B4B03900B9300230F931493EA
:404800004FF6FF73ADF81630074B079002A918682A462346019400F0E3F91CB0BDE8304003B070472D4800009881FF1F0020704710F8012B11F8013B012A28BF9A42F7D08C
:40484000D01A7047034611F8012B03F8012B002AF9D17047034613F8012B002AFBD1181A0138704730B5037823B90B78002B18BF002030BD03461A7801303AB100228C5CE0
:4048800034B19D5CA542F5D10132F8E7104630BD184630BD2DE9F0478E688246B3420C469046994640D38A8912F4906F3AD02568096902236F1A656905EB450595FBF3F564
:4048C0007B1C4B449D4238BF1D4653050FD5294600F094FF064698B121693A46FFF7D0FDA38923F4906343F08003A38113E02A4600F0DAFF064670B95046216900F03AFFCF
:404900000C23CAF80030A3894FF0FF3043F04003A381BDE8F08726613E4426604E466561ED1BA560B14500D24E4632462068414600F005FFA36800209B1BA36023681E4468
:404940002660BDE8F08700002DE9F0439DB003938B8906461C060D4690460CD50B6953B9402100F04BFF2860286110B90C233360CCE040236B610023099320238DF829306B
:4049800030238DF82A3043461C4613F8012B1AB9B4EB08090FD002E0252AF5D1F8E73046294642464B46FFF775FF013000F0A980099B4B4409932378002B00F0A2800023EF
:4049C0004FF0FF3204930793059206938DF853301A9304F101084446DFF8489121784846052200F09EFE08F10108049B30B1C9EB00000122824013430493ECE7D80644BF63
:404A000020228DF85320190744BF2B228DF8532022782A2A02D0079923460EE0039A0134111D12680391002ABBBF524243F0020307920792B8BF04930AE01C462278013345
:404A4000303A092A03D80A2000FB0121F5E7079123782E2B1AD163782A2B0AD1039B02341A1D1B680392002BB8BF4FF0FF3305930CE0611C00220C4623780131303B092B02
:404A800003D80A2000FB0232F5E70592DFF8988021784046032200F044FE38B1049AC8EB00004023834013430493013421781A48062204F101088DF8281000F032FE88B131
:404AC000164B33B9039B073323F007030833039313E003AB0093304604A92A46104BAFF3008007E003AB0093304604A92A460C4B00F03AFA421C074603D0099B3B440993EC
:404B000041E7AB895B0601D4099801E04FF0FF301DB0BDE8F08300BF227E00000000000095480000187E00001E7E000038B54B1C144602D14FF0FF3038BD9389CDB223F00E
:404B400020039381536B526883B1A36B9A4207DA23685A1E226003F8015C636801331FE0214600F0A5FD0028F2D0E3E72169236851B18B4208D913F8010CA84204D1013B27
:404B800001322360626038BDE36304F1440363630323A3632346226403F8465F236001236360284638BD10B50C46496B69B104F14403994201D000F0DDFD236C00206063AF
:404BC000636013B1E36B236010BD23694FF0FF30236000236360A38943F02003A38110BD2DE9F04707460C469046ADF5247D01930023469347939C4B0DF10C0AA2939B4B35
:404C0000CDF820A1A39398F80050002D00F0248197490B6889462B445B7803F0080303F0FF02EBB16368002B10DD2368D9F800101A780A44527815070ED5479A01330132E4
:404C4000479262682360013A6260EBE7A39B3846214698470028E8D008F10106B046D2E7252D08F101064FD14592439298F801302A2B03D11023439308F102063178354678
:404C8000A1F13003092B06F1010606D8459B0A2202FB0313303B4593F0E7DFF8DC810322404600F03EFD40B135460123C8EB000003FA00F2439B134343936E1C2D78672DDD
:404CC0000FD8652D78D25B2D54D005D8002D00F0C580252D18D071E0632D57D0642D3FD06CE0702D32D007D86E2D55D03AD8692D64D1002344933BE0752D31D0782D29D067
:404D0000732D5BD102233FE06368002B0DDD23681A78AA4240F0A080013362682360479B013A01336260479398E7A39B3846214698470028EBD04698002800F08F80A38927
:404D400013F0400F18BF4FF0FF3089E0439B43F020034393439B43F400734393102302E00A2300E008236E2D449301DD04230BE0032309E03146504600F066FB0646439B85
:404D800043F040034393012349931BE0439B43F0400343930023F7E7439AD0063FF55EAF12F0010F019A479B02F104010191126814BF1380136051E70523E5E703234993F3
:404DC0000A2344936368002B03DD439B590611D518E0A39B3846214698470028F5D0AAE7479A013247926268013A002A626013DD013323602368D9F800101A780A445278A3
:404E00001207EDD4499B022B0DDC384643A9224601AB00F0C9F919E0A39B3846214698470028E7D087E7042B06DC384643A9224601AB00F017FA09E00E4B002B3FF40EAF39
:404E4000384643A9224601ABAFF30080012803D002287FF403AF6EE7469801E04FF0FF300DF5247DBDE8F0872D4B0000A74B00009C81FF1F000000001E7E00002DE9F84374
:404E800091461F468A680B6906469342B8BF1346C9F8003091F843200C46DDF8208012B10133C9F800302368990642BFD9F800300233C9F80030256815F006051CD094F86C
:404EC00043302268003318BF012392061FD5E118302081F843005A1C94F845102244023382F8431013E03046394604F119020123C047013007D00135E368D9F800209B1AE5
:404F00009D42F0DBDBE74FF0FF30BDE8F8833046394604F14302C0470130F4D02268D9F80050E36802F00602042A08BF5D1B2269A3680CBF25EAE57500259342C4BF9B1AF3
:404F4000ED184FF00009A9450ADA3046394604F11A020123C0470130D5D009F10109F2E70020BDE8F88300002DE9FF410C461746227E98466E2A06460A9B01F1430100F0BC
:404F8000B08012D8632A23D00AD8002A00F0BD80582A40F0CC8084F84520DFF804E257E0642A1ED0692A1CD0C1E0732A00F0B18009D86F2A2ED0702A40F0B980226842F0BA
:404FC000200222603FE0752A24D0782A3BD0AEE01A6804F14205111D1960136884F84230A9E020681A6810F0800F02D0101D186008E010F0400F02F10400186002D0B2F996
:40500000003000E01368002B3EDA2D225B4284F8432039E020681A6810F0800F02D0101D186007E010F0400F02F10400186001D0138800E01368227EDFF864E16F2A0CBF22
:4050400008220A221CE07822DFF858E184F845202268186812F0800F00F104051D6003D1550601D5038800E00368D00744BF42F0200222601BB9226822F020022260102270
:40508000002084F8430002E0DFF814E10A226568002DA8BF2068A560A4BF20F00400206003B965B10D46B3FBF2F002FB10331EF8033005F8013D03460028F4D100E00D4670
:4050C000082A0BD12368DA0708D5236962689A42DEBF302305F8013C05F1FF35491B21612EE025681A6815F0800F606903D0151D1D60136808E015F0400F02F104051D60C1
:40510000136801D0188000E01860002323610D4616E01A68111D1960156800212846626800F0FFFA08B1401B6060636804E004F1420584F8422001232361002384F8433004
:40514000CDF800803046214603AA3B46FFF796FE013002D14FF0FF301FE0304639462A462369C0470130F5D023689B0705D4E068039B9842B8BF18460FE00025E368039A5F
:405180009B1A9D42F3DA3046394604F119020123C0470130DED00135F0E704B0BDE8F081707C0000297E00002DE9F04115468A6880460C4632B98A69002A0CBF01224FF034
:4051C000FF328A6022680026D1065FBF1A68111D19601768A069F8B923680136DA065EBF2B681B783B702A686B6802F101022A60A26803F1FF3302F1FF326B6058BF0137AA
:40520000A260EAB1002BE5DCD4F880314046294698470028DED013E0012807D12B6862691B78D35C002BD7D1C6B109E0022807D12B680B4A1B78126813445B781B07CBD594
:40524000236813F0100305D1E2680132E260A26902B13B70236900201E442661BDE8F0819C81FF1F2DE9F04F0C469A46724B87B08346164693E8070003AB83E807006F4BAD
:40528000A1696F4A04F11C09032918BF1A46A36800925A1EB2F5AE7F82BF6FF4AE7503EB050840F25D134F4688BFA360236898BF4FF0000843F4506323600023326803A983
:4052C00051F8230011780222019300F02AFA019B002835D0012B0BD162682AB908226260226842F400722260226822F4A0620BE0022B0AD1226802F4C061B1F5007F1FD184
:405300001021616042F480722260A268511EA160B2B132687D1C511C316012783A707268013A002A72600ADCD4F880215846314601939047002841D12F46019B00E02F460B
:405340000133032BBAD163680BB90A23636063683C496069C91A00F077F83D460027A3686BB3316860690A78805C40B3302A22680AD1100508D50137B8F1000F0BD0013330
:4053800008F1FF38A36006E022F4106222600B78013505F8013C7368013B002B736003DD33680133336005E0D4F8803158463146984720B9A368013BA360D0E7002723689E
:4053C000D9050DD54D4509D915F8011C05F1FF38D4F87C3158463246984745464D4527D0226812F010021BD12A70636858464946009EB0472268DAF8003012F0200F07D15A
:40540000D20705D51A1DCAF800201B68188004E01A1DCAF800201B681860E3680133E360C9EB05053D44276900203D44256100E0012007B0BDE8F08F3C7E0000B955000031
:40544000AD540000587E0000F0B50A78441E5E2A13BF4B1C8B1C4A78002108BF012100F1FF0504F8011FAC42FBD10AB9581EF0BDC1F10104E7B2875419785E1C2D2905D086
:405480005D290ED079B10A463346F3E75D785D2DF9D09542F7DB02330132AA428754FBDBEAE73046F0BD1846F0BD00002DE9F0470F46404CD4F800903D4615F801EB09EBEC
:4054C0000E04667806F0080404F0FF060CB12F46F2E774462D2C03D1BD1C7C78012603E02B2C04BF7C78BD1C13B1102B0AD15AE0302C56D12C7804F0DF04582C4CD16C787A
:4055000010230235002E14BF4FF000486FF00048B8FBF3FA0027BE4603FB1A8809EB040C9CF801C01CF0040F01D0303C0BE01CF0030C1BD0BCF1010F0CBF4FF0370C4FF078
:40554000570CCCEB04049C4210DAB7F1FF3F0AD0D64506D801D1444503DC03FB0E4E012701E04FF0FF3715F8014BD7E77C1C73460AD1002E4FF0220114BF4FF000436FF0EF
:40558000004301602AB911E00EB1CEF100036AB107B1691E116009E03024002BB2D10823B0E70A23AEE7302CACD1A3E71846BDE8F08700BF9C81FF1F2DE9F0470E463B4CB9
:4055C000D4F80090354615F801EB09EB0E04677807F0080404F0FF070CB12E46F2E774462D2C03D1B51C7478012703E02B2C04BF7478B51C13B1102B0AD151E0302C4DD1E4
:405600002C7804F0DF04582C43D16C78102302354FF0FF38B8FBF3F803FB08FA00266FEA0A0AB64609EB040C9CF801C01CF0040F01D0303C0BE01CF0030C1BD0BCF1010F03
:405640000CBF4FF0370C4FF0570CCCEB04049C4210DAB6F1FF3F0AD0C64506D801D1544503DC03FB0E4E012601E04FF0FF3615F8014BD7E7741C734603D122230360334697
:4056800002E00FB1CEF100036AB106B1691E116009E03024002BBBD10823B9E70A23B7E7302CB5D1ACE71846BDE8F0879C81FF1F2DE9F0410C46496B04F1440399421AD1B9
:4056C0004FF4806100F09AF818B94FF0FF30BDE8F0814FF48063A36394F84630606380F8FF3394F8453000F2FD30437094F844300370206012E0A66B77003A4600F0D4F898
:4057000005460028E1D000EB0608404629463246FEF7B6FEC4F800806563A7630020BDE8F08110B5C9B202449042034605D01C7801308C42F8D1184610BD002010BD814245
:4057400010B501EB020301D3421E0BE09842FBD28118D21AD34204D013F8014D01F8014DF8E710BD994204D011F8014B02F8014FF8E710BD30B500293CD051F8042C0B1F3C
:405780001D49002AB8BF9B180A680C4612B95A600B6030BD93420DD219685818904201BF5A5852181A60426823605A6030BD994203D80A4651680029F9D1146815199D42B2
:4057C0000AD11B682344D0188842136012D10868034413604B680CE002D90C23036030BD1C681819884201BF08684968001918605960536030BD00BF3882FF1F70B5CC1CCB
:4058000024F0030408340C2C38BF0C24002C064603DA0C233360002070BD8C42F9D3204A136810461946A1B10A68121B0ED40B2A03D90A608B188C501FE08B420BBF5A68F5
:405840004A6802605A6018BF0B4616E00B464968E9E7144D2B681BB9304600F04BF828603046214600F046F8421C0346D1D0C51C25F0030585420AD11C6003F10B001A1DCC
:4058800020F00700821A0AD05142995070BD3046E91A00F02FF80130BBD02B46ECE770BD3882FF1F3482FF1FF8B5074615460E4621B91146BDE8F840FFF7A0BF1AB9FFF774
:4058C00059FF2846F8BD00F025F8A8420ED238462946FFF793FF044650B131462A46FEF7CFFD38463146FFF745FF01E03046F8BD2046F8BD38B5064C00230546084623601A
:40590000FCF7C0FE431C02D1236803B12B6038BD6C43002051F8040C0028BEBF091851F8043CC018043870471000000000000000017A5200027C0E011B0C0D0010000000D5
:4059400018000000ECEEFFFF14000000000000000000000096960A25303258253032582530325825303458253034580D0A002530365825303458253034580D0A0040093141
:405980000925750925750925752E25750925750925750925750900256325737825580D0A0043414E4F204D4F44450043414E4F204D4F4445204F4E20287769746820747285
:4059C000616E73706F6E646572206465636F64696E672900414D425243204D4F444500414D425243204D4F4445204F4E0043414E4F20434C4153534943204D4F444500437B
:405A0000414E4F20434C4153534943204D4F4445204F4E2028776974686F7574207472616E73706F6E646572206465636F64696E6729004445544543540044455445435440
:405A40004E4720504943005355434345535320504943204D4F44454C20253034580D0A004552524F5220504943204E4F5420464F554E440D0A0044454C4554452000455223
:405A8000524F52204D697373696E67205458206E756D6265720D0A004552524F522057726F6E67205458206E756D6265722E0D0A00535543434553532054582064656C655D
:405AC0007465642E0D0A004552524F52205458206E6F7420666F756E642E0D0A00494E464F2000494E464F20257520257325730D0A00494E464F20502575202530325825E9
:405B000030325825303258253032582530325825303258253032582530325825303258253032580D0A005355434345535320545820696E666F2E0D0A004552524F522054A8
:405B400078206E6F7420666F756E640D0A00524547495354455220004552524F522057726F6E67205458206E756D6265722E204E756D626572206D757374206265206265CA
:405B8000747765656E203230393731353220616E6420393939393939390D0A00494E464F204C6561726E696E67205243342054582025752025730D0A004144442000494EE5
:405BC000464F20416464696E67205243342054582025752025730D0A00494E464F205772697465207061636B65742025752E205772697465205120746F20517569740D0A1B
:405C00000041424F525400494E464F204C6561726E2061626F72746564004C49535400494E464F204C697374696E672072656769737465726564207472616E73706F6E6404
:405C40006572730D0A0053554343455353204C69737420636F6D706C6574650D0A0056455253494F4E00524320486F7572676C6173732076302E33206265746100534554FC
:405C8000204C454420004552524F52204D697373696E67206C6564206475726174696F6E0D0A0053554343455353204C45442025750D0A004552524F522077726F6E672083
:405CC0006C6564206475726174696F6E0D0A00534554204245455020004552524F52204D697373696E672062656570206475726174696F6E0D0A002575202575005355436E
:405D00004345535320424545502025752025750D0A004552524F522077726F6E672062656570206475726174696F6E20616E6420646976696465720D0A00474554204C4553
:405D400044004745542042454550004C4943454E5345004C6963656E73696E67207465726D730053686F72742076657273696F6E3A20696620796F75206275696C64206944
:405D80007420666F7220796F757220706572736F6E616C207573652C20796F75277265006F6E6C79206B696E646C792072657175657374656420746F20646F6E6174652064
:405DC0006120736D616C6C2073756D20746F2061206368696C6472656E0063686172697479206F6620796F75722063686F69636520287573652027524320486F7572676C42
:405E000061737320666F72206368696C6472656E272061730061207265666572656E6365292E00506C6561736520666565646261636B20796F757220646F6E6174696F6E9F
:405E40007320746F3A00636861726974792E7263686F7572676C61737340676D61696C2E636F6D00506C6561736520636F6E736964657220646F6E6174696E6720352065CD
:405E800075726F7320706572207472616E73706F6E64657220616E64203330206575726F7300666F7220746865206465636F64657220666F7220706572736F6E616C2075A0
:405EC0007365722E20496620746865207472616E73706F6E646572206973207573656400696E206120636C75622F63697263756974207769746820616E2061646D697373B1
:405F0000696F6E206665652C20706C6561736520636F6E736964657200646F6E7461696E6720313030206575726F7320666F7220746865206465636F6465722E005468652E
:405F4000206F726967696E616C205243546563682074687265616420617574686F722F64657369676E65722028486F776172642043616E6F29006C6963656E73652061705D
:405F8000706C69657320746F20746865206465636F6465722070726F6A6563743A0022416C6C20696E666F726D6174696F6E2070726573656E746564206F6E207468697359
:405FC00020746872656164206973206672656520666F722075736520666F7200706572736F6E616C2C206E6F6E2D636F6D6D65726369616C20707572706F7365732E0043BA
:406000006F6E74616374206D6520666F72206C6963656E73696E6720617272616E67656D656E747320696620796F75207769736820746F2070726F6475636500616E6420CC
:406040006D61726B657420746865206465636F6465722E22207573657220686F7761726463616E6F206F6E20726374656368004164646974696F6E616C206C6963656E73A3
:40608000696E67207465726D7320666F72207468652050534F43206669726D776172652F64657369676E2026007472616E73706F6E6465723A0022416C6C20696E666F726B
:4060C0006D6174696F6E20736861726564206973206672656520666F722075736520666F7220706572736F6E616C2C006E6F6E2D636F6D6D65726369616C20707572706FEE
:406100007365732E2020436F6E74616374206D6520666F72206C6963656E73696E6700617272616E67656D656E747320696620796F75207769736820746F2070726F64750A
:40614000636520616E64206D61726B657420746865206465636F6465722E005468652061626F766520636F70797269676874206E6F7469636520616E642074686973207037
:4061800065726D697373696F6E206E6F74696365207368616C6C00626520696E636C7564656420696E20616C6C20636F70696573206F72207375627374616E7469616C2023
:4061C000706F7274696F6E73206F662074686500536F6674776172652E20416E79206465726976617469766520776F726B20736F7572636520636F64652F64657369676EBF
:40620000206D757374206265007075626C696320616E64207573652074686973206C6963656E73696E67207465726D732E20416E7920646576696365206465726976656447
:406240002066726F6D00746869732070726F6A656374206D75737420726573706F6E6420746F2074686520636F6D6D616E6420274C6963656E73652720776974682074680B
:40628000697300746578742E0054484520534F4654574152452049532050524F564944454420224153204953222C20574954484F55542057415252414E5459204F46204188
:4062C0004E59004B494E442C2045585052455353204F5220494D504C4945442C20494E434C5544494E4720425554204E4F54204C494D4954454420544F20544845005741ED
:406300005252414E54494553204F46204D45524348414E544142494C4954592C204649544E45535320464F52204120504152544943554C415200505552504F534520414EFC
:4063400044204E4F4E494E4652494E47454D454E542E20494E204E4F204556454E54205348414C4C2054484520415554484F5253004F5220434F5059524947485420484FF8
:406380004C44455253204245204C4941424C4520464F5220414E5920434C41494D2C2044414D41474553204F52004F54484552204C494142494C4954592C2057484554484E
:4063C000455220494E20414E20414354494F4E204F4620434F4E54524143542C20544F5254204F52004F54484552574953452C2041524953494E472046524F4D2C204F55E2
:4064000054204F46204F5220494E20434F4E4E454354494F4E20574954482054484500534F465457415245204F522054484520555345204F52204F54484552204445414C9B
:40644000494E475320494E2054484520534F4654574152452E220051004552524F52204144442061626F727465640D0A004552524F52204D697373696E672054582050615B
:40648000636B65740D0A00253278253278253278253278253278253278253278253278253278253278005741524E494E4720436F6C6C6973696F6E207769746820747261E3
:4064C0006E73706F6E6465722025750D0A00494E464F2052454749535445522025752025730D0A0053554343455353204144442025750D0A004552524F52205361766520FC
:40650000746F206D656D6F72792F666C617368206661696C65642025642025642E204D656D6F72792066756C6C3F0D0A004552524F522042616420646174610D0A00202AEF
:40654000004D4F4E49544F52204D4F4445004D4F4E49544F52204D4F4445204F4E00524320486F7572676C617373204465636F646572202D204D6172636F2056656E7475B0
:4065800072696E6900434F4D4D414E4420544F4F204C4F4E4700253032582530325825303258253032582530325825303258253032582530325825303258253032582530BD
:4065C0003258253032580925303458253034580D0A00494E464F205472616E73706F6E6465722064657465637465642E20506572666F726D696E6720737570657220736564
:406600006372657420616E616C797369732E2E2E0D0A004552524F52206E6F7420656E6F75676820676F6F64207061636B6574732072656365697665640D0A00494E464F68
:40664000205025752025303258253032582530325825303258253032582530325825303258253032582530325825303258094869747320253034750D0A005355434345539E
:40668000532052454749535445522025750D0A004552524F52206E6F207472616E73706F6E646572206C6561726E74207965740D0A004552524F5220626164206461746120
:4066C0002E204E6F7420656E6F7567682076616C6964207061636B6574732072656365697665640D0A00230931092575093009004552524F52204C6561726E2074696D650F
:406700006F757400FFFFFFFF000000000000000000000000000000000000000000000000000000000000000000000000000000000000000000000000000000000000000005
:406740000000000000000000000000000000000000000000000000000000000000000000000000000000000000000000000000000000000000000000000000000000000019
:40678000000000000000000000000000FFFFFFFF000000000000000000000000000000000000000000000000000000000000000000000000000000000000000000000000DD
:4067C0000000000000000000000000000000000000000000000000000000000000000000000000000000000000000000000000000000000000000000000000000000000099
:406800000000000000000000000000000000000000000000FFFFFFFF000000000000000000000000000000000000000000000000000000000000000000000000000000005C
:406840000000000000000000000000000000000000000000000000000000000000000000000000000000000000000000000000000000000000000000000000000000000018
:4068800000000000000000000000000000000000000000000000000000000000FFFFFFFF0000000000000000000000000000000000000000000000000000000000000000DC
:4068C0000000000000000000000000000000000000000000000000000000000000000000000000000000000000000000000000000000000000000000000000000000000098
:40690000000000000000000000000000000000000000000000000000000000000000000000000000FFFFFFFF0000000000000000000000000000000000000000000000005B
:406940000000000000000000000000000000000000000000000000000000000000000000000000000000000000000000000000000000000000000000000000000000000017
:406980000000000000000000000000000000000000000000000000000000000000000000000000000000000000000000FFFFFFFF00000000000000000000000000000000DB
:4069C0000000000000000000000000000000000000000000000000000000000000000000000000000000000000000000000000000000000000000000000000000000000097
:406A000000000000000000000000000000000000000000000000000000000000000000000000000000000000000000000000000000000000FFFFFFFF00000000000000005A
:406A40000000000000000000000000000000000000000000000000000000000000000000000000000000000000000000000000000000000000000000000000000000000016
:406A8000000000000000000000000000000000000000000000000000000000000000000000000000000000000000000000000000000000000000000000000000FFFFFFFFDA
:406AC0000000000000000000000000000000000000000000000000000000000000000000000000000000000000000000000000000000000000000000000000000000000096
:406B00000000000000000000000000000000000000000000000000000000000000000000000000000000000000000000000000000000000000000000000000000000000055
:406B400000000000FFFFFFFF000000000000000000000000000000000000000000000000000000000000000000000000000000000000000000000000000000000000000019
:406B800000000000000000000000000000000000000000000000000000000000000000000000000000000000000000000000000000000000000000000000000000000000D5
:406BC000000000000000000000000000FFFFFFFF00000000000000000000000000000000000000000000000000000000000000000000000000000000000000000000000099
:406C00000000000000000000000000000000000000000000000000000000000000000000000000000000000000000000000000000000000000000000000000000000000054
:406C40000000000000000000000000000000000000000000FFFFFFFF0000000000000000000000000000000000000000000000000000000000000000000000000000000018
:406C800000000000000000000000000000000000000000000000000000000000000000000000000000000000000000000000000000000000000000000000000000000000D4
:406CC00000000000000000000000000000000000000000000000000000000000FFFFFFFF000000000000000000000000000000000000000000000000000000000000000098
:406D00000000000000000000000000000000000000000000000000000000000000000000000000000000000000000000000000000000000000000000000000000000000053
:406D4000000000000000000000000000000000000000000000000000000000000000000000000000FFFFFFFF00000000000000000000000000000000000000000000000017
:406D800000000000000000000000000000000000000000000000000000000000000000000000000000000000000000000000000000000000000000000000000000000000D3
:406DC0000000000000000000000000000000000000000000000000000000000000000000000000000000000000000000FFFFFFFF0000000000000000000000000000000097
:406E00000000000000000000000000000000000000000000000000000000000000000000000000000000000000000000000000000000000000000000000000000000000052
:406E400000000000000000000000000000000000000000000000000000000000000000000000000000000000000000000000000000000000FFFFFFFF000000000000000016
:406E800000000000000000000000000000000000000000000000000000000000000000000000000000000000000000000000000000000000000000000000000000000000D2
:406EC000000000000000000000000000000000000000000000000000000000000000000000000000000000000000000000000000000000000000000000000000FFFFFFFF96
:406F00000000000000000000000000000000000000000000000000000000000000000000000000000000000000000000000000000000000000000000000000000000000051
:406F40000000000000000000000000000000000000000000000000000000000000000000000000000000000000000000000000000000000000000000000000000000000011
:406F800000000000FFFFFFFF0000000000000000000000000000000000000000000000000000000000000000000000000000000000000000000000000000000000000000D5
:406FC0000000000000000000000000000000000000000000000000000000000000000000000000000000000000000000000000000000000000000000000000000000000091
:40700000000000000000000000000000FFFFFFFF00000000000000000000000000000000000000000000000000000000000000000000000000000000000000000000000054
:407040000000000000000000000000000000000000000000000000000000000000000000000000000000000000000000000000000000000000000000000000000000000010
:407080000000000000000000000000000000000000000000FFFFFFFF00000000000000000000000000000000000000000000000000000000000000000000000000000000D4
:4070C0000000000000000000000000000000000000000000000000000000000000000000000000000000000000000000000000000000000000000000000000000000000090
:4071000000000000000000000000000000000000000000000000000000000000FFFFFFFF000000000000000000000000000000000000000000000000000000000000000053
:40714000000000000000000000000000000000000000000000000000000000000000000000000000000000000000000000000000000000000000000000000000000000000F
:40718000000000000000000000000000000000000000000000000000000000000000000000000000FFFFFFFF000000000000000000000000000000000000000000000000D3
:4071C000000000000000000000000000000000000000000000000000000000000000000000000000000000000000000000000000000000000000000000000000000000008F
:407200000000000000000000000000000000000000000000000000000000000000000000000000000000000000000000FFFFFFFF0000000000000000000000000000000052
