:4000000000800020110000003D0C00003D0C000008B5044B1A6803F53F5302331A6000F02BFE00BFFA46004010B5054C237833B9044B13B10448AFF300800123237010BDBC
:40004000A081FF1F00000000A02C0000084B10B51BB108480849AFF300800848036803B910BD074B002BFBD0BDE81040184700BF00000000A02C0000A481FF1F0881FF1F79
:400080000000000008B502F07BF9044A136801331360BDE8084002F077B900BFF485FF1FF8B501F041F801F065F801F029F800F00F0501F01FF80B2D3AD8214C012D60556B
:4000C00009D1162801D1F92303E00A280CBFFC23FE2323702CE00B2D2AD11A4F1A4B3D781B78013505F03F05AB4209D10C222046002102F0AFF9154A13780133137017E0D5
:4001000002F03EF9124A134E3B78126806EB0313DA6002F039F994E807003B7806EB031383E80700204600210C2202F093F93D7001F026F800F0EAFFBDE8F84001F014B836
:400140003C86FF1F3986FF1F9E89FF1F9D89FF1FF485FF1FF481FF1F08B5B348B34902F0A5F998B901F0E0FA0028FBD0B04801F075FA01F0D9FA0028FBD001F0B5FA01F01C
:40018000D3FA0028FBD0AB4B00221A70A648AA4902F08CF9A0B901F0C7FA0028FBD0A74801F05CFA01F0C0FA0028FBD001F09CFA01F0BAFA0028FBD09E4B01221A705A7034
:4001C00099489F4902F072F9A8B901F0ADFA0028FBD09C4801F042FA01F0A6FA0028FBD001F082FA01F0A0FA0028FBD0914B01221A7000225A708C48934902F057F960B9ED
:4002000001F092FA0028FBD0904801F027FA01F08BFA0028FBD001F067FA83488C4902F045F9002840F0858201F07EFA0028FBD0884801F013FA01F077FA0028FBD001F00A
:4002400053FA01F071FA0028FBD0834801F006FA01F06AFA0028FBD001F046FA01F064FA0028FBD07D4801F0F9F901F05DFA0028FBD001F039FA01F057FA0028FBD078486F
:4002800001F0ECF901F050FA0028FBD001F02CFA01F04AFA0028FBD0724801F0DFF901F043FA0028FBD001F01FFA01F03DFA0028FBD06D4801F0D2F901F036FA0028FBD0AD
:4002C00001F012FA01F030FA0028FBD0674801F0C5F901F029FA0028FBD001F005FA01F023FA0028FBD0624801F0B8F901F01CFA0028FBD001F0F8F901F016FA0028FBD081
:40030000554801F0ABF901F00FFA0028FBD001F0EBF901F009FA0028FBD0564801F09EF901F002FA0028FBD001F0DEF901F0FCF90028FBD0504801F091F901F0F5F9002821
:40034000FBD001F0D1F901F0EFF90028FBD04B4801F084F901F0E8F90028FBD001F0C4F901F0E2F90028FBD0454801F077F901F0DBF90028FBD001F0B7F901F0D5F90028CA
:40038000FBD0354801F06AF901F0CEF90028FBD001F0AAF901F0C8F90028FBD0394801F05DF901F0C1F90028FBD001F09DF901F0BBF90028FBD0344801F050F901F0B4F9E4
:4003C0000028FBD001F090F901F0AEF90028FBD0214801F043F901F0A7F90028FBD001F083F901F0A1F90028FBD0284801F036F901F09AF90028FBD001F076F901F094F91B
:400400000028FBD0224801F029F901F08DF90028FBD001F069F901F087F90028FBD01D4801F01CF938E000BF1D89FF1FCC2C0000D92C00000C81FF1FE92C0000F32C000049
:400440001C2D00002E2D0000622D00006A2D0000812D0000892D0000EB360000992D0000D62D0000102E00004B2E0000592E00007C2E00009A2E0000D82E0000162F000069
:400480004F2F0000732F0000AC2F0000D42F0000123000003530000001F046F90028FBD001F022F901F040F90028FBD0A14801F0D5F801F039F90028FBD001F015F901F09E
:4004C00033F90028FBD09C4801F0C8F801F02CF90028FBD001F008F901F026F90028FBD0964801F0BBF801F01FF90028FBD001F0FBF801F019F90028FBD0914801F0AEF882
:4005000001F012F90028FBD001F0EEF801F00CF90028FBD0884801F0A1F801F005F90028FBD001F0E1F801F0FFF80028FBD0854801F094F801F0F8F80028FBD001F0D4F850
:4005400001F0F2F80028FBD07F4801F087F801F0EBF80028FBD001F0C7F801F0E5F80028FBD07A4801F07AF801F0DEF80028FBD001F0BAF801F0D8F80028FBD06E4801F061
:400580006DF801F0D1F80028FBD001F0ADF801F0CBF80028FBD06E4801F060F801F0C4F80028FBD001F0A0F801F0BEF80028FBD0684801F053F801F0B7F80028FBD001F0BA
:4005C00093F801F0B1F80028FBD0634801F046F801F0AAF80028FBD001F086F801F0A4F80028FBD05D4801F039F801F09DF80028FBD001F079F801F097F80028FBD05848DF
:4006000001F02CF801F090F80028FBD001F06CF801F08AF80028FBD0524801F01FF801F083F80028FBD001F05FF801F07DF80028FBD0414801F012F801F076F80028FBD006
:4006400001F052F801F070F80028FBD0464801F005F801F069F80028FBD001F045F801F063F80028FBD0414800F0F8FF01F05CF80028FBD001F038F801F056F80028FBD0CA
:400680003B4800F0EBFF01F04FF80028FBD001F02BF801F049F80028FBD0364800F0DEFF01F042F80028FBD001F01EF801F03CF80028FBD0304800F0D1FF01F035F8002873
:4006C000FBD001F011F801F02FF80028FBD02B4800F0C4FF01F028F80028FBD001F004F801F022F80028FBD0254800F0B7FF01F01BF80028FBD000F0F7FF01F015F80028FF
:40070000FBD0204800F0AAFF01F00EF80028FBD000F0EAFF01F008F80028FBD01A4800F09DFF01F001F80028FBD0BDE8084000F0DBBF08BD72300000EB360000A5300000A7
:40074000DF300000EC300000223100005531000091310000CD310000063200003F3200007C320000B9320000BF320000F9320000343300006C330000A7330000E033000064
:400780001B34000055340000A43400002DE9F04FB34A0023B3491370B34EB44A97B00B601370A6F534750D910C92002405F8014C284621460C2201F04DFE183505F80B4C93
:4007C00045F8054C45F8094CB542EED1A84FA94DA94E0C2221464FF00108A84887F800802C70347001F036FE00F0EAFBA449204600F040FC00F018FC00F096FC62B6A14833
:4008000000F0A0FC00F082FC2046414600F0AEFD0E970F9500F0E8FD28B100F0DFFD0028FBD000F0E3FE00F0D9FD0028F2D084B900F07AFF0028FBD0934800F00FFF00F09D
:4008400073FF0028FBD000F04FFF00F06DFF0028FBD000F05FFF48B90F9B1F780E9B01371B7807F03F07BB4246D154E1874800F065FF05460028EFD00024E3B2AB42EBD244
:40088000824AD25C0C9B0D2A1B7801D00A2A0FD183B3DFF8FC81002708F80370FFF75CFC40463946402201F0D5FD704B1F7021E0A2F161011929764998BF203ACA54013308
:4008C000DBB20C9A3F2B137014D940227048002101F0C0FD654B00221A7000F025FF0028FBD06C4800F0BAFE00F01EFF0028FBD000F0FAFE0134C0E7674B12AC03EB071307
:40090000DD6893E8070084E80700184600210C2203F10809159501F09DFD564B4FF000081F705E4BC9F804801B78002B00F0BC80524F3B7873B1204639460C2201F07AFD54
:4009400050B1384641460C2286F80080C14601F081FD03E0994601E04FF001094FF0FF339A46DFF840B14FF000081BF801CCBCF1000F38D0584612A90C22CDF844C01093EC
:4009800001F058FD109BDDF844C000BBBCF1010F434A08D1182303FB08F3D118887B10B90220D0540D61182303FB082898F80E30C8F81450FF2B08F108081CBF013388F8D5
:4009C000063000210C222D4801F044FD41E0BCF1010F0AD15A1C08D1DBF81330B3F1FF3F18BFC24601E0C246634608F10108B8F11E0F0BF1180BB8D1BAF1FF3F29D0B9F14E
:400A0000000F1FD033780133DBB2032B337040F08280182303FB0AFA214A022102EB0A0302F80A1003CCC3F8010020680122C3F80510C3F809001D615D619A730E4B0021E3
:400A4000197008E0012394E80700337087E8070061E0002131700C22084801F0FBFC5AE09D89FF1FF485FF1F1D89FF1FF885FF1F3986FF1F9E89FF1F1C89FF1FE481FF1F00
:400A800085000000A10000008D3400005D89FF1F1D89FF1FB4340000F481FF1F0C81FF1F4C86FF1F4D86FF1F9DF84A109DF8482000919DF84B109DF8493001919DF84C1082
:400AC000574802919DF84D1003919DF84E1004919DF84F1005919DF8501006919DF8511007919DF8521008919DF853100991290CADB20A910B954B4901F0B4FC00F014FEEA
:400B00000028FBD0464800F0A9FD00F00DFE0028FBD000F0E9FD01F033FC434C0D9B1D6801F032FC23780BB9012473E6DFF8088108F5347718F8103C012B0DD118F8023C46
:400B4000002B68D0D8F80430EB1AB3F57A7F62D9002308F8023C5EE0022B5CD118F8023CFF2B04D0D8F80430EB1A642B53D9012308F8103C63785BB918F80B1C18F80D2C45
:400B800018F80C3C26480091284901F06BFC20E000231A4603EB080111F8040C032100F0030E0EF1FF3EBEF1010F4FEA420201F1FF3198BF42F0010211F0FF014FEA90006D
:400BC000EDD1013B13F10A0FE4D11548184901F049FC00F0A9FD0028FBD0114800F03EFD00F0A2FD0028FBD098E80C001A44520093B20B480F49120C01F034FC00F094FDBA
:400C00000028FBD0064800F029FD00F08DFD0028FBD000F069FD08F11808B8458AD183E7F985FF1FC53400000C81FF1FFF3400000C350000F63400005C86FF1F08B501F033
:400C4000CDFB03680C2B00D1FEE7FEE7084908B50B68084A1844821A802A01DC086005E001F0BCFB0C2303604FF0FF33184608BD1081FF1F688AFF1F08B51148114AC8B159
:400C8000A2F1100132C9234604391E1BAE4204D051F8046F43F8046BF7E71D4652F8041C5C1B8C4203D0002443F8044BF8E701381032E4E701F098FBFFF768FDFEE700BF73
:400CC000010000003C37000008B5114A114B1A60114A136843F4007313600023032B98BF0E4A4FEA830094BF52F823100C490D4A0133302B1150F1D10B4B19780B4B1970EF
:400D00000B4B1A6000F018F80A4B00221A6008BD0004FA050CED00E014ED00E0000000003D0C00000080FF1FBC7600400481FF1F08ED00E00081FF1FF8B572B6724A00244B
:400D4000137843F004031370704A062303FB0423002118689A88013401F07CFB072CF3D16B48002450F8041F04F1105303F14A0221F0FF054B33C9B20B4452005B000232B4
:400D80009A4205D012F8026C12F8017CAF55F6E7604B0C449842E5D15F4A604C137843F2C82643F002031370137C43F0020313742378A2F5863243F040032370413A137812
:400DC00043F010031370564B03CBC2F8041EC2F8000E1868C2F8090E1B7982F80D3E514A514B07CA03C31A80504A514B03CB1060516003CB1061516103CB1062516202F505
:400E0000354284234632137002F580521370A2F55342363A137843F008031370454B61221A70A3F5F06303221A8018229A70062283F8802245F20A52A3F89221052283F812
:400E4000902193F8902103F5C8731D462B781B0606D54FF4F07001F08BFA013EF6D1FEE7354B4FF488721A8001224FF040231A7041F251221926A3F8202200252F4B4FF402
:400E8000F0701B7803F0010343EA450501F070FA013E05F0030535D0032DEFD1284A4FF480731380274B52211970274B27491B78A1F29B61DBB281F89B36072313704820AC
:400EC00000230B70887013705371214B02221A70204A214D137843F001031370154BC1221A701E4B1E4A1B78DBB203F007011B09117053701B4B44221A7094E80F0007C510
:400F00002B80F8BDFEE700BFE846004011350000FCFFFF479000004803500140A0430040B80C0048C80C0048F051004012510040D40C0048004800402242004025420040E2
:400F400004400040004200400F010049A146004001400040A2430040B0430040CF0100496E58004076580040024B1B7A584301F0FFB900BF1481FF1F044B00F00F021B687A
:400F800053F8220043F82210704700BF08ED00E0054A00F01F00126800F1100352F8230042F82310704700BF08ED00E000F01F0000F16040490100F56440C9B201707047E5
:400FC0000F4B10B50F2000240E495C609C60DC601C615C61FFF7D0FF0B4A136843F0040313600A4B4FF47A72DB68B3FBF2F3084A1360084B4FF400421C60C3F8E82010BDB5
:40100000BC81FF1F5110000010E000E01481FF1F14E000E018E000E0024A136843F002031360704710E000E008B5FFF7F5FF034A136843F00103136008BD00BF10E000E05F
:40104000024B1868C0F30040704700BF10E000E010B5FFF7F5FF012808D10024044B53F8243003B198470134052CF7D110BD00BFC081FF1F024B03EB80035868596070470D
:40108000BC81FF1F134B144A1B78DBB20360127843EA0223114A0360127843EA0243104A0360127843EA026303600E4B0E4A1B78DBB24360127843EA02230C4A43601278F1
:4010C00043EA02430A4A4360127843EA02634360704700BF0301004904010049EC4600400201004901010049000100490501004906010049014B1878704700BF646400406B
:40110000014B1878704700BF6965004008B501F037F9044A137843F010031370BDE8084001F032B99965004008B501F029F9044A137803F0EF031370BDE8084001F024B9FC
:4011400099650040064A0123136002F68832126880211064034A1170A2F540721360704780E100E000E400E0014B01221A60704700E100E0014B01221A60704780E100E081
:40118000014B01221A60704780E200E0F8B501F0F7F8404A01261378022543F001031370137C3D4C43F0010313743C4B02F5E3521E700B3203F8945C1378074603F07F0317
:4011C00013700020FFF7D0FE2378354A03F0F90323701378304603F0DF031370237833432370FFF7C1FE2820FFF7BEFE2D4B28461A7802F07F021A701A7802F0BF021A70FC
:4012000023782B432370FFF7AFFE2378264A43F004032370002313703846537001F0B4F817200721FFF7C2FE20491720FFF7B0FE18200721FFF7BAFE1D491820FFF7A8FE72
:4012400015200721FFF7B2FE1A491520FFF7A0FE30460721FFF7AAFE30461749FFF798FE28460721FFF7A2FE28461449FFF790FE03200721FFF79AFE11490320FFF788FE54
:401280000C200721FFF792FEBDE8F8400C200D49FFF77EBEA5430040944300409D60004012600040F851004084600040571C0000811A0000551C0000C11B0000ED1B000085
:4012C0001D1C00005B1C000008B51C4B1C4A1870002313701B4A13701B4A13701B4A13701B4A13701B4A13701B4A13701B4B4FF400021A604FF080721A604FF400121A6077
:4013000002221A6004221A6008221A60144B19B91A7802F0FE0202E01A7842F001021A70104B03221A70802203F8202C012001F01FF80D4B04221A7008BD00BFCD89FF1FC7
:40134000B089FF1FB689FF1FD489FF1FC989FF1FCC89FF1FC889FF1FD589FF1F00E100E009600040286000401260004070B5074C064623780D461BB9FFF708FF0123237052
:4013800030462946BDE87040FFF79EBFD881FF1F0A4A002313700A4A13700A4A13700A4A13700A4A13700A4A13700A4A13700A4B03221A70802203F8202C7047B089FF1F2A
:4013C000B689FF1FD489FF1FC989FF1FCC89FF1FC889FF1FD589FF1F28600040014B1878704700BFD489FF1F044B1A7802F0FF001AB118780022C0B21A707047B689FF1F53
:40140000024A0C2303FB002040787047D689FF1F431E072B9FBF084B074A00011B189FBF805C5B7800F00F0043EA00209ABF023880B20020704700BFFC5F0040431E072B7C
:40144000F0B531D8194B0C2505FB0035EC88184EA4B2C4F50074A2424FF00C0404FB003488BFEA88E57884BFC2F5007292B2104C45EA12250701BD553C44D5B2657041B9B9
:401480000C2202FB0030002343704379DBB2A370F0BD0E46751AADB29542F1D216F801EB044D05F807E0F5E7F0BD00BFD689FF1FFC5F004078600040431E072B0AD8064AAA
:4014C0000C2303FB002300225A705A79034BD2B200011A54704700BFD689FF1FFE5F004070B5064614460D46C9B1431E072B18D8FFF78EFF844203D93046FFF789FF04468E
:401500002A46531B9BB2A34205D2074B31015B5C02F8013BF5E73046FFF7CEFF02E00C4600E00024204670BD7860004030B500210446FF20074B0C255A5C074B05FB02332C
:4015400008339B78A34201D1084630BD09B90121F0E730BDA089FF1FD689FF1F10B51E4C2079FFF7E3FF237813F0800F63780DD0212B2ED1BDE81040184B07221A80184A72
:40158000C0EBC0001044586000F0D0BADBB2202B0ED0222B1DD1A378124A22F81030124A135C43F002031354BDE8104000F09EB90A4A07230A491380C0EBC0030B445360FE
:4015C000094A135C43F001031354BDE8104000F0D3BA002010BD00BF00600040B889FF1F2481FF1FA689FF1FAA89FF1F10B5164A00231370154A164C137053702078C0B231
:40160000431E072B01D8FFF757FF6078C0B2431E072B01D8FFF750FF0E4A13788BB123787BB10D4B197861B11278082A09D8084A1278082A05D81878082894BF002001203A
:4016400010BD012010BD00BFD981FF1FAA89FF1FAC89FF1FAE89FF1FA089FF1F2DE9F84381461E4B1E4A1B78D65C0023F6B29CB219F804500133002DF9D12F4619490C23DB
:4016800003FB06131A89884692B2944294BF25461D89304688BFADB2641B09EB07012A46A4B2FFF7CBFE34B90C2303FB06831B899BB29D4210D13D44AFB20C2303FB06831C
:4016C0005B78002BF9D0002CD8D1304621462246BDE8F843FFF7B2BEBDE8F883D981FF1FAE89FF1FD689FF1F07B5074B074A1B8801A9ADF80430064B1B78D05C0222FFF7AA
:401700009DFE03B05DF804FB3B350000AE89FF1FD981FF1F024B034A1B78D05CFFF770BED981FF1FAC89FF1F024B034A1B78D05CFFF766BED981FF1FAE89FF1F064B074AA0
:401740001B780146D05C064AC0B20C2303FB00231A8992B2FFF7C4BED981FF1FAC89FF1FD689FF1FC37890F9020003F0030300280FDA032B15BF0C480C4802F00103C2F385
:40178000800319BFC15442F00102C15442F0040207E0032B1FBF0648C2F34003C15442F002021046704700BFAE89FF1FA089FF1FAC89FF1F30B51A4A1A49087813880344EA
:4017C0009BB213800023184AD8B21488A4B284B1082B0DD05068154C0078C0B2E05450680133013050601088013880B21080EAE718460B780E4C082B0E4A00D040B10E4D79
:401800002B7883F080032B700F232370022301E0022323701370094B1870087030BD00BFC689FF1FD589FF1FB889FF1F00600040B189FF1FB089FF1FC489FF1FB789FF1F0E
:40184000074B02221A70074B80221A70064B0F221A70064A00231370054A012013707047B089FF1FC489FF1FB189FF1FD589FF1FB789FF1F10B5164B16491B780A8803F0AD
:401880000F03023BDBB21A4492B20A800020124A118889B281B17BB110495468095C013BC9B221705168DBB20131516011880130013989B21180EAE7094A1370094A137832
:4018C00083F080031370084B0B221A7010BD00BF29600040C689FF1FB889FF1F00600040B789FF1FC489FF1FB189FF1F064A06231370064A01201370054B80221A70054BC7
:4019000000221A70704700BFB089FF1FB189FF1FC489FF1FB789FF1F054B9A683AB19A68044910709A680988518000229A607047B889FF1FC689FF1F08B5124B1A78D2B2CE
:401940001A701B78DBB21A0602D50F4A137008BD0220FFF7E1FF0D4B1B7803F06003202B05D0402B06D043B900F0BCFB04E000F00FFD01E000F0EAFC10B9034B03221A708B
:4019800008BD00BF28600040B189FF1F0060004008B5084A084B0120197813880B449BB21380064B00221A70FFF7B6FF044B03221A7008BDC689FF1FD589FF1FB089FF1F5A
:4019C000B189FF1F08B50C4B1B78DBB2042B07D0062B09D0022B0DD1BDE80840FFF7D8BFBDE80840FFF746BF0320FFF795FF034B03221A7008BD00BFB089FF1FB189FF1F01
:401A000008B5054B002201201A70FFF785FF034B03221A7008BD00BFB089FF1FB189FF1F08B50A4B1A7832B11A78094942F080020A7000221A70074B002201201A70FFF7C8
:401A40006BFF054B03221A7008BD00BFCC89FF1F08600040B089FF1FB189FF1F074B1B78DBB2042B05D0062B05D0022B05D1FFF7A1BEFFF7C5BFFFF7D3BF7047B089FF1FCB
:401A800010B51D4C2378DBB2DA0634D518060AD503F00F03012B2ED1FFF74EFF174B1B78190609D510BD5A0602D5FFF7D7FF03E09B0620D5FFF786FF23781B061BD4104BBB
:401AC000104A1B78127813430F4A13701278934211D10A4A084913782078DBB200065FBF1378DBB20B700B78127858BF03F00F039342EED110BD10BD28600040B189FF1F79
:401B0000C489FF1FB789FF1F29600040054A00231380054A916819B191680B7092685380704700BFC689FF1FB889FF1F10B50E4C23889BB213B9FFF783FE13E00B4B0222B2
:401B40001A700B4B00221A70FFF7E0FF094AD1799379228843EA012392B29A4288BF2380FFF728FE012010BDB889FF1FB089FF1FC489FF1F0060004008B50C4B04221A70C7
:401B80000B4B80221A70FFF7C1FF0A4A0120D179937943EA012308490A8892B29A4288BF0B80064B0B221A7008BD00BFB089FF1FC489FF1F00600040B889FF1FB189FF1F57
:401BC000084B01221A700F3B9B7C074B1A7B02F00302012A1EBFDA7B82F08002DA7301225A7370470B600040D689FF1F094B02221A700F3B93F82230074B1A7E02F003022F
:401C0000012A1EBFDA7E82F08002DA7601225A76704700BF0B600040D689FF1F0B4B04221A700F3B93F83230094B93F8242002F00302012A1EBF93F8272082F0800283F8CF
:401C40002720012283F82520704700BF0B600040D689FF1F7047FFF79BBB00F081BB000070B50446194B88B003AA03F11006154618685968083303C5B3422A46F7D11B784C
:401C80002B7004B32223237001AD032328466370FFF7F8F920460022AB5C08A901EB131108AC03F00F0311F8141C234413F8143C01328170082A4FF00001C170037141710D
:401CC00000F10400E8D108B070BD00BF3D350000F0B5012216490C25164B05FB0216140123441D7014487779204437B13479240601D5857003E0082400E0802484700C2059
:401D000000FB0211C8880132C0B29871C888092AC0F30720D871C888C0B21871C988C1F307215971D6D1054BFF221A70F0BD00BFD689FF1F70600040FC5F00400A600040CF
:401D4000064B074A1B7802EBC30253681A7C824286BF03EBC003586900207047CD89FF1F50350000F8B5334B1A78002A61D018780138C0B2FFF7E4FF2F4AC3681478067A04
:401D8000E4B203EBC606B34253D01A78A2424ED12A4A5978125D914249D19A780C2502F07F077D43264A4FF0000E5119D87881F803E093F802C000F0030081F804C093F82F
:401DC00003C002F805C09D880D8193F90250754507DA01280CBF07200D2048710120487006E001280CBF05200920487181F801E014493D012944012088700C2000FB0722AF
:401E00001089C0F3072008701089C0B24870D0880D49C0B229448871D088C0F30720C871D088C0B20871D288C2F307224A710833A9E7F8BDD489FF1FC989FF1FB489FF1F07
:401E4000D689FF1FFC5F00407060004008B5064B18780138C0B2FFF773FF20B143681B7900EBC300406908BDD489FF1F2DE9F04700210C244C43524D013100232A1909294C
:401E80002B559370D3701381937253705371F0D128B14C494C4A0B7013704B7053704B4B1A78002A00F08980187801270138C0B2FFF746FF80464368067ADB79F60013F0D4
:401EC000400F434B1A7814BF42F0010202F0FE021A700022D8F80C405FFA87FA04EB06094C453CD0A07800F07F039F4235D10C2303FB07531989B4F804E089B2714538BF2A
:401F0000A3F808E02F492378CB5C6178994224D10C2179436B181871E078685494F90200E178002801F0030106DA01290CBF07210D215971012105E001290CBF05210921EC
:401F4000597100215970A37903F0F703022B04D120465146FFF706FC02460834C0E70137092FB7D1D8F80C300A369A1C1E440832B2420AD012F8083C0C2003F07F0300FB34
:401F8000035312F80A1C9972F1E7FFF75FFF114B0121186000230C2202FB0152D3801289013113449BB203F00102134409299BB2F1D1BDE8F047FFF78BBEBDE8F08700BF85
:401FC000D689FF1FB489FF1FB289FF1FD489FF1FC889FF1FD089FF1F114B1B7903F07F035A1E072A19D80F490C2202FB031291781B0141F0010191700021D170517841F003
:4020000002015170127912F0800F074A1A4414BF8D2389239370FFF769BC0020704700BF00600040D689FF1FFC5F004030B5184B1A7902F07F02531E072B26D8154B0C20FB
:4020400000FB02339978144C01F0FE0199700021D970120110497F25155511445A7802F0FD025A701A795B78120605D5012B01D1887006E00D2303E0012B0CBF082309236B
:402080008B70BDE83040FFF731BC002030BD00BF00600040D689FF1FFC5F004038B50D4B0D4D2C791878E4B20138C0B2FFF748FE43681B79A34201D2022C09D8074A0849B0
:4020C000135D0120DBB20B55AB78DBB2135538BD002038BDD489FF1F00600040B489FF1FB289FF1F38B5884A884C13780021DBB221801806517840F188800A2900F201813D
:40210000DFE811F05800FF00FF00FF00FF00FF000B00FF007900FF007D00D2787A4B012A09D17B4B1A787B4B03EBC2035B685B686360122310E0DA78022A12D19878FFF7CB
:40214000FFFD002800F0DD80436863606368DA7863689B7843EA02232380BDE83840FFF7E5BCDB78032B21D16B4B0021664AC8B29578854202D892783AB910E0187801310B
:402180000028F8D01A781344F0E75F4A63499278097C914203D16248FFF762FD604B1A78002A00F0AE801A78228018E0BDE8384000F0EEB813F0030313D0022B40F0A18017
:4021C0002380514B0C211B7903F07F02554B01FB02339A78544BD2B21A7000225A706360BBE702222280514A11784F4AC9B2117053706260B1E7012323804D4BEFE7012395
:40220000238013794B4A1344E9E701390A2978D8DFE801F037774F77067777770A7720009378454ADBB25AE0937803F0FF0453B93F4B1A78944260D01C70404B012018706E
:40224000FFF714FE59E0601EC0B2FFF779FD0028EED156E0FFF722FF002852D02A4A384913791279DBB2D2B20A70364A3149D25CCB5C9A4241D0314B01221A70FFF772FDE2
:402280003BE003F00303012B2BD009D3022B38D11D4B9B78002B34D1BDE83840FFF7C6BE194B9B78012B2CD1204A137803F0FD0315E003F00303012B13D008D3022B20D111
:4022C000114B9B78EBB9BDE83840FFF785BE0E4B9B78012B15D1154A137843F0020313700BE0094B1A79012A0BD898781B791649DBB2CA5C22EA0002CA54BDE83840FFF77D
:40230000F5BA002038BD00BF00600040B889FF1FCD89FF1F50350000B4350000D0360000428AFF1FD689FF1FDA81FF1FC889FF1FD489FF1FB489FF1FCC89FF1FB689FF1F3E
:40234000C989FF1FB289FF1FCA89FF1F034B00201A78120648BF5B78704700BF00600040024B1878C0F38010704700BF8F4500400230800803D000BF01380046FCD1704722
:40238000EFF3108072B6704780F31088704700BF0F4A137803F00303012B0BD0022B0CD113790C2103F07F020A4B01FB023308339B7800E01379DBB200E00023064A126896
:4023C000D35C022B01D1FFF7C9B80020704700BF00600040D689FF1FD089FF1F014B1868704700BF9C81FF1F0E4B70B51E460E4C0025E41AA410A54204D056F82530984741
:402400000135F8E701F080F9084B094C1E46E41AA4100025A54204D056F8253098470135F8E770BD1437000014370000143700001C37000010B50A44441E914208D014F85B
:40244000013F0878834201D0181A10BD0131F4E7002010BD03460244934202D003F8011BFAE770470EB400B54FF402719CB0ADF814106FF00041049107914FF6FF711DAB9C
:40248000ADF81610084953F8042B02900690086802A9019300F06EF8029B00221A701CB05DF804EB03B070479C81FF1F10F8012B11F8013B012A28BF9A42F7D0D01A70478C
:4024C0002DE9F0478E688246B3420C469046994640D38A8912F4906F3AD02568096902236F1A656905EB450595FBF3F57B1C4B449D4238BF1D4653050FD5294600F03AFB44
:40250000064698B121693A4600F0CAFAA38923F4906343F08003A38113E02A4600F080FB064670B95046216900F0E0FA0C23CAF80030A3894FF0FF3043F04003A381BDE811
:40254000F08726613E4426604E466561ED1BA560B14500D24E4632462068414600F0ABFAA36800209B1BA36023681E442660BDE8F08700002DE9F0439DB003938B89064677
:402580001C060D4690460CD50B6953B9402100F0F1FA2860286110B90C233360CCE040236B610023099320238DF8293030238DF82A3043461C4613F8012B1AB9B4EB080905
:4025C0000FD002E0252AF5D1F8E73046294642464B46FFF775FF013000F0A980099B4B4409932378002B00F0A28000234FF0FF3204930793059206938DF853301A9304F12F
:4026000001084446DFF8489121784846052200F039FA08F10108049B30B1C9EB00000122824013430493ECE7D80644BF20228DF85320190744BF2B228DF8532022782A2A9A
:4026400002D0079923460EE0039A0134111D12680391002ABBBF524243F0020307920792B8BF04930AE01C4622780133303A092A03D80A2000FB0121F5E7079123782E2B92
:402680001AD163782A2B0AD1039B02341A1D1B680392002BB8BF4FF0FF3305930CE0611C00220C4623780131303B092B03D80A2000FB0232F5E70592DFF898802178404658
:4026C000032200F0DFF938B1049AC8EB00004023834013430493013421781A48062204F101088DF8281000F0CDF988B1164B33B9039B073323F007030833039313E003ABEA
:402700000093304604A92A46104BAFF3008007E003AB0093304604A92A460C4B00F092F8421C074603D0099B3B44099341E7AB895B0601D4099801E04FF0FF301DB0BDE839
:40274000F08300BFF036000000000000C1240000E6360000EC3600002DE9F84391461F468A680B6906469342B8BF1346C9F8003091F843200C46DDF8208012B10133C9F89E
:4027800000302368990642BFD9F800300233C9F80030256815F006051CD094F843302268003318BF012392061FD5E118302081F843005A1C94F845102244023382F8431007
:4027C00013E03046394604F119020123C047013007D00135E368D9F800209B1A9D42F0DBDBE74FF0FF30BDE8F8833046394604F14302C0470130F4D02268D9F80050E3686C
:4028000002F00602042A08BF5D1B2269A3680CBF25EAE57500259342C4BF9B1AED184FF00009A9450ADA3046394604F11A020123C0470130D5D009F10109F2E70020BDE86D
:40284000F88300002DE9FF410C461746227E98466E2A06460A9B01F1430100F0B08012D8632A23D00AD8002A00F0BD80582A40F0CC8084F84520DFF804E257E0642A1ED089
:40288000692A1CD0C1E0732A00F0B18009D86F2A2ED0702A40F0B980226842F0200222603FE0752A24D0782A3BD0AEE01A6804F14205111D1960136884F84230A9E0206893
:4028C0001A6810F0800F02D0101D186008E010F0400F02F10400186002D0B2F9003000E01368002B3EDA2D225B4284F8432039E020681A6810F0800F02D0101D186007E084
:4029000010F0400F02F10400186001D0138800E01368227EDFF864E16F2A0CBF08220A221CE07822DFF858E184F845202268186812F0800F00F104051D6003D1550601D5FE
:40294000038800E00368D00744BF42F0200222601BB9226822F0200222601022002084F8430002E0DFF814E10A226568002DA8BF2068A560A4BF20F00400206003B965B11B
:402980000D46B3FBF2F002FB10331EF8033005F8013D03460028F4D100E00D46082A0BD12368DA0708D5236962689A42DEBF302305F8013C05F1FF35491B21612EE02568A9
:4029C0001A6815F0800F606903D0151D1D60136808E015F0400F02F104051D60136801D0188000E01860002323610D4616E01A68111D1960156800212846626800F042F8F1
:402A000008B1401B6060636804E004F1420584F8422001232361002384F84330CDF800803046214603AA3B46FFF796FE013002D14FF0FF301FE0304639462A462369C047FC
:402A40000130F5D023689B0705D4E068039B9842B8BF18460FE00025E368039A9B1A9D42F3DA3046394604F119020123C0470130DED00135F0E704B0BDE8F0813D35000010
:402A8000F736000010B5C9B202449042034605D01C7801308C42F8D1184610BD002010BD10B5431E0A44914204D011F8014B03F8014FF8E710BD814210B501EB020301D34B
:402AC000421E0BE09842FBD28118D21AD34204D013F8014D01F8014DF8E710BD994204D011F8014B02F8014FF8E710BD30B500293CD051F8042C0B1F1D49002AB8BF9B18B9
:402B00000A680C4612B95A600B6030BD93420DD219685818904201BF5A5852181A60426823605A6030BD994203D80A4651680029F9D1146815199D420AD11B682344D0186B
:402B40008842136012D10868034413604B680CE002D90C23036030BD1C681819884201BF08684968001918605960536030BD00BFE081FF1F70B5CC1C24F0030408340C2CEE
:402B800038BF0C24002C064603DA0C233360002070BD8C42F9D3204A136810461946A1B10A68121B0ED40B2A03D90A608B188C501FE08B420BBF5A684A6802605A6018BF8C
:402BC0000B4616E00B464968E9E7144D2B681BB9304600F04BF828603046214600F046F8421C0346D1D0C51C25F0030585420AD11C6003F10B001A1D20F00700821A0AD091
:402C00005142995070BD3046E91A00F02FF80130BBD02B46ECE770BDE081FF1FDC81FF1FF8B5074615460E4621B91146BDE8F840FFF7A0BF1AB9FFF759FF2846F8BD00F0F4
:402C400025F8A8420ED238462946FFF793FF044650B131462A46FFF723FF38463146FFF745FF01E03046F8BD2046F8BD38B5064C0023054608462360FDF7E8FF431C02D1CD
:402C8000236803B12B6038BD648AFF1F51F8040C0028BEBF091851F8043CC018043870471000000000000000017A5200027C0E011B0C0D001000000018000000F0F7FFFF2B
:402CC0001400000000000000000000004D4F4E49544F52204D4F4445004D4F4E49544F52204D4F4445204F4E0043414E4F204D4F44450043414E4F204D4F4445204F4E2080
:402D00002877697468207472616E73706F6E646572206465636F64696E67290043414E4F20434C4153534943204D4F44450043414E4F20434C4153534943204D4F44452029
:402D40004F4E2028776974686F7574207472616E73706F6E646572206465636F64696E67290056455253494F4E00524320486F7572676C6173732076302E31206265746190
:402D8000004C4943454E5345004C6963656E73696E67207465726D730053686F72742076657273696F6E3A20696620796F75206275696C6420697420666F7220796F7572CA
:402DC00020706572736F6E616C207573652C20796F75277265006F6E6C79206B696E646C792072657175657374656420746F20646F6E617465206120736D616C6C2073757C
:402E00006D20746F2061206368696C6472656E0063686172697479206F6620796F75722063686F69636520287573652027524320486F7572676C61737320666F722063683A
:402E4000696C6472656E272061730061207265666572656E6365292E00506C6561736520666565646261636B20796F757220646F6E6174696F6E7320746F3A0063686172DA
:402E80006974792E7263686F7572676C61737340676D61696C2E636F6D00506C6561736520636F6E736964657220646F6E6174696E672035206575726F7320706572207447
:402EC00072616E73706F6E64657220616E64203330206575726F7300666F7220746865206465636F64657220666F7220706572736F6E616C20757365722E20496620746811
:402F000065207472616E73706F6E646572206973207573656400696E206120636C75622F63697263756974207769746820616E2061646D697373696F6E206665652C207091
:402F40006C6561736520636F6E736964657200646F6E7461696E6720313030206575726F7320666F7220746865206465636F6465722E00546865206F726967696E616C20DB
:402F80005243546563682074687265616420617574686F722F64657369676E65722028486F776172642043616E6F29006C6963656E7365206170706C69657320746F20742E
:402FC0006865206465636F6465722070726F6A6563743A0022416C6C20696E666F726D6174696F6E2070726573656E746564206F6E20746869732074687265616420697369
:40300000206672656520666F722075736520666F7200706572736F6E616C2C206E6F6E2D636F6D6D65726369616C20707572706F7365732E00436F6E74616374206D6520A2
:40304000666F72206C6963656E73696E6720617272616E67656D656E747320696620796F75207769736820746F2070726F6475636500616E64206D61726B65742074686572
:40308000206465636F6465722E22207573657220686F7761726463616E6F206F6E20726374656368004164646974696F6E616C206C6963656E73696E67207465726D7320CF
:4030C000666F72207468652050534F43206669726D776172652F64657369676E2026007472616E73706F6E6465723A0022416C6C20696E666F726D6174696F6E2073686120
:40310000726564206973206672656520666F722075736520666F7220706572736F6E616C2C006E6F6E2D636F6D6D65726369616C20707572706F7365732E2020436F6E7474
:40314000616374206D6520666F72206C6963656E73696E6700617272616E67656D656E747320696620796F75207769736820746F2070726F6475636520616E64206D6172CC
:403180006B657420746865206465636F6465722E005468652061626F766520636F70797269676874206E6F7469636520616E642074686973207065726D697373696F6E20A9
:4031C0006E6F74696365207368616C6C00626520696E636C7564656420696E20616C6C20636F70696573206F72207375627374616E7469616C20706F7274696F6E73206FFF
:40320000662074686500536F6674776172652E20416E79206465726976617469766520776F726B20736F7572636520636F64652F64657369676E206D75737420626500707B
:4032400075626C696320616E64207573652074686973206C6963656E73696E67207465726D732E20416E792064657669636520646572697665642066726F6D0074686973EB
:403280002070726F6A656374206D75737420726573706F6E6420746F2074686520636F6D6D616E6420274C6963656E7365272077697468207468697300746578742E005464
:4032C000484520534F4654574152452049532050524F564944454420224153204953222C20574954484F55542057415252414E5459204F4620414E59004B494E442C20453D
:40330000585052455353204F5220494D504C4945442C20494E434C5544494E4720425554204E4F54204C494D4954454420544F205448450057415252414E54494553204F63
:4033400046204D45524348414E544142494C4954592C204649544E45535320464F52204120504152544943554C415200505552504F534520414E44204E4F4E494E465249FC
:403380004E47454D454E542E20494E204E4F204556454E54205348414C4C2054484520415554484F5253004F5220434F5059524947485420484F4C44455253204245204C22
:4033C0004941424C4520464F5220414E5920434C41494D2C2044414D41474553204F52004F54484552204C494142494C4954592C205748455448455220494E20414E20416D
:403400004354494F4E204F4620434F4E54524143542C20544F5254204F52004F54484552574953452C2041524953494E472046524F4D2C204F5554204F46204F5220494EAE
:4034400020434F4E4E454354494F4E20574954482054484500534F465457415245204F522054484520555345204F52204F54484552204445414C494E475320494E20544868
:403480004520534F4654574152452E2200524320486F7572676C617373204465636F646572202D204D6172636F2056656E747572696E6900434F4D4D414E4420544F4F2035
:4034C0004C4F4E4700253032582530325825303258253032582530325825303258253032582530325825303258253032582530325825303258092530345825303458002538
:40350000303258253032582530325800253036580000510040100040510040300000000140001000140140000800400140000A004C014000020050014020000D0A3031326B
:4035400033343536373839414243444546000000010000005835000001000000D036000000000000000000000100000070350000010000008D360000030000009A3500006B
:40358000000000000000000000000000000000000000000098350000020A00008103080002000100820240000A000100030240000A000203040309042C0343007900700011
:4035C00072006500730073002000530065006D00690063006F006E0064007500630074006F00720010035500530042005500410052005400380343004400430020004300EE
:403600006F006D006D0075006E00690063006100740069006F006E00200049006E007400650072006600610063006500260343004400430020004400610074006100200019
:4036400049006E0074006500720066006100630065001C034D00560020004C00610070002000740069006D0069006E0067001E0355005300420020004C00610070002000AA
:40368000540069006D0069006E00670000090243000201058032090400000102020103052400100104240202052406000105240100010705810308000A09040100020A0007
:4036C000000407058202400000070503024000001201000202000008B404080001000506800100004300232D302B2000686C4C006566674546470030313233343536373833
:403700003961626364656600F8B500BFF8BC08BC9E4670474D000000C90C0000F8B500BFF8BC08BC9E46704729000000403700000881FF1F98000000C8080000000000002C
:403740000000000001010000688AFF1F0000204E409C000028000000005A620200C2010000000800C20100000008A1200000000002000000000000000000000000000000AE
:403780000000000000000000000000000000000000000000E436000000000000000000000000000000000000000000000000000000000000000000000000000000000000EF
:4037C00000000000000000000000000000000000000000003C81FF1F00000000000000000000000000000000000000000000000000000000000000000000000000000000EE
:403800000000000000000000000000000000000000000000000000000000000000000000000000000000000000000000000000000000000000000000000000000000000088
:403840000000000000000000000000000000000000000000000000000000000000000000000000000000000000000000000000000000000000000000000000000000000048
:403880000000000000000000000000000000000000000000000000000000000000000000000000000000000000000000000000000000000000000000000000000000000008
:4038C00000000000000000000000000000000000000000000000000000000000000000000000000000000000000000000000000000000000000000000000000000000000C8
:020000040003F7
:0200000480007A
:400000000145004004520040016500405100014033010140500201404703014043040140510501404A060140560701404B08014058090140500A0140430B0140060D0140D7
:40004000010F01404914014049150140491601404D1701403F18014054190140441A0140451B0140074001400741014006420140024301400144014005450140044601406B
:400080000647014003490140064C01400C500140015101407E020940180161087C4089100030020F03110410050F062007F0080F0B440C0F0E300FFF102511FF121A15F0E5
:4000C000160C170F180F1B221E031FFF200F23FF243F27FF280A29FF2A052C0F2F88300F323033FF3A083E013F04580459045F0180088124820483188410858286208741B9
:400100008D098EFF8F0693FF94A0951096509720980699409A099B809C409E80A001A202A4FFA5FFACFFADFFB00CB103B230B3C0B403B530B6C0B70CBAAABBAAD804D904D1
:40014000DF010004011003410505070109200A110B800D800E2411021250135015011610174018101B061C081DC11E241F402104244125042601272629082A502B402D44A1
:4001800030403120320433013410370539503A203B093C413D0860046308C0BFC2EFC4BFCA5FCCEFCEDFE2080001020204010602074009100A030B600C030D210F52100214
:4001C0001201133F140315081704180319061B491C021E01214022032401253F260228032D3F2E03300131403201330C34023530360237033BA83E553F01580459045F0181
:40020000800C82308306840C8501867088148A288B048F0690019106928294019504960297029B029F06A306A704A814AA28AB06AD01B03FB240B301B480B506B802BB2C36
:40024000D804D904DC09DF0100050308054507040AA00E620F081208141017AA18041B091C821D101E111F1420082130220423102550279028202A102B422D452F80304878
:4002800031203301371539583A023DA03E04402042204C044D106101620186109010910A920495459619975199419B269C509D0C9E309F41A211A306A521A740AC04AD41F0
:4002C000AF04B501C0FEC2FCC4F2CADFCCEFCE7FE208E408E6020030020F0302040F080A0A050C0F0E300F04102012101308140F17011A0C1E03200F243F280F2C152E2ABD
:40030000303031013302340F350437083A023E1054FF580459045B095C905F01800F840F880C8A038C208D028E10900F960A981399029A2C9D019E05A00FA230A43FA80F32
:40034000AC30AD01AE0FB101B20FB302B430B630BAA0BB0FBE04D804D904DF0100080204034104280540064009040A410B080D020E150F401126120115641610174518046F
:400380001A401E041F8822592508260227102F0232053401365238013B803C8044084604580959805B10600261216310781084108510864088088BC08D048E2490109122C4
:4003C000921193389409954496E0974199109A019C409D0C9E329F49A004A301A408A501A608A7C0B045C0FFC2FFC4FFCA10CC33CE19D60FD80FDE04E208E480E60A0010A7
:40040000020F03FF040F061007220A050B880E100FFF100F11F0130F15FF160A180F1B441C031E0C1FFF200F21FF240F27FF280C2A032B112C0F2D0F2E102FF0320F361086
:4004400037FF3A803C403E043F40580459045F018030820F840F8701883F8C0F8E308F049025921A960397029A0C9B089C0FA00FA40FA810AA20AC0AAE05B00FB102B230FF
:40048000B301B504B708BA08BE01D804D904DC90DF01000803450408055007400A400B2A0D120E100F011106120614011504171219041B021D401E20200122042344264057
:4004C000281029042A042D122E402F20321836223744390A3B413C083E223F807C0881088202848086208740882089048A608B188E048F05901091329270932894219608D1
:4005000099109B129C429D4D9E029F4DA004A10BA20AA301A440A650A742A814A993AB03B120B308B404B740C0FFC2FFC4FFCAF0CCF6CEFADE40E218E606EA01EE0102FF67
:400540000322050F068807F00AFF0BFF0CFF0DF00F0F1222131116FF17441A111B881CF01E0F1FFF20FF23FF264427FF280F29FF2AF02DFF2EFF32FF37FF3E043F40580470
:4005800059045F018003811F841B8501870889018A098B028D018E3F8F04901B9110930F941B962497019818990F9A049B109C3F9F1EA212A31FA41BA71EA91FAA24AC1B90
:4005C000AF1EB238B438B607B71FBAA8BF40D804D904DF0101500260044A051008020A140B020D100E020F50105413401418154816801740180219D81A061B201D042240DE
:40060000270129492A402B082D092E102F093080310A321034023580362838283B423C023D083E403F104002411042084380832085208601880489808A048C808E808F8178
:400640009028911A9260934094409606971398089A089C049D049F49A025A12CA269A381A728A801AA20B240B340B742C0FFC2FFC4FFCAFFCCFFCEFFE270E410E6A0E83064
:40068000EC40EE800001013C0222034004010650072208010A480B3F0C7F0D3F0F4010011244133F1601171119021A7E1B011D401E7E1F3F2001227E2304267F273F2A7EF3
:4006C0002B7F2C4E2E202F08317C32603303341F350336603A883B2A3E10580459045F01811F83C0840187208B138D1F8FC09002931F951F9740991F9B809D059F0AA002F6
:40070000A10AA305A70CA801A91FAD1FB002B202B30FB530B601B7C0BACFBB20BF44D804D904DF010041022804200504060809080A060B400F801004118013091711182574
:400740001B801E521F40200821052218240825E02620271028022BA82C202F49301032093340344036283702384839023B103C053D103F4048014B4085058780881089C0C6
:400780008B018E1891109340984AA020A10CB022B118B340C02FC21FC45FCAFFCCFFCEFFE080E402E670E8A0EC208448A104B504E208E602EC40E208003F0306043F05028E
:4007C000083F0E7F107F150116131A2C1C3F1D0820302405260A280F29012A402C0A2D082E0531013302340F3504367037083A803BC33E10580459045F01810F8211850FE1
:400800008644880F89258AF08B1A8CF08D308E0F8F0F90FF910A9305953F96FF990F9AFF9D0F9EFF9F30A110A288A320A4FFA703AA22AB0CAD0FAEFFB530B6FFB70FBB2080
:40084000BE40BF40D804D904DF01004801010308041005020620070208010B2A0C600E810F1010501120120215021608174419201A011BC01D4020042203232226802708C7
:4008800029602F553004328035013660370638053C583D01850187E8880E8A018D028E40905191019240933A960198119A289B449C0A9D019F08A024A110A260A308A740D3
:4008C000A815AC08B208C0FFC2FFC4FFCAFCCCFACEF3E002E408E642EA06EC0502FF031E050106FF070408FF0B010CFF0F1F100F111F12F0132014F01501160F1708191FC8
:400900001A111B601EFF1F1E210F228823102644271E29112A222B0E2D012EFF2F0230FF3120331F37403BB23DA23E013F04580459045F018005820A8405860A87028E07B8
:400940008F01920194059C059E0AAB05B001B101B202B302B404B608B704BABABB82BCA9BD82D608D804D904DB04DC99DF01000601800508064007050A620D090E0915050C
:4009800016281740180419A01A601C80200221442201244A25112658274529202C282D012F41348535023610370139803B043C483E195A4060017B017C08811087018A0164
:4009C0008D0190109106921093BE94289508989499189A409C0B9D039F4DA024A108A224A309A440A740A904AC44AF20B304C0FDC2FDC4F0CAF4CCF0CEFAD608D808DE48D9
:400A0000E40CEA08EC01EE0800FF04F0060F08FF0EFF122216441AFF1C0F1D011EF022FF250126882A112EFF330134FF3B0C3E10580459045F01800F8210830584018505AD
:400A40008608881F89058E1F8F02900192029304941F950199059A1E9C109E0F9F08A105A21EA601A705A801A905AA04AD05AE1EB10CB303B61FBB0ABE40D41FD604D8042A
:400A8000D904DB0BDF0102300389041005820710080809800A060B600C010D040E040F4210A01110120A1658174018021F20210A271028212B882F20310A32603505364158
:400AC000370939093BA049804A025A0A5BA05D015E02608278027902802083048502872088848A408B108D048E018F409008910A9284934094409501971299C89A089C8489
:400B00009D019F48A024A268A391A480A502A708AB10AD44B040C0FFC2FFC4FFCA4FCC1FCE0FD60FD809DE01E010E488E880000102020302040105050608081F09050E1E03
:400B40000F01100F1210130514011505160418101A0F1B041C1F1D05221E2308250526012A1E2B052D052E1F301F330C37033B883E01580459045F0183FF863E87448810B7
:400B8000890F8BF08C058F22901093FF941097FF9A209B889E039FFFA311A410A5F0A70FA9FFAA09ADFFB220B41FB5FFBE04BF10D804D904DF010180022403880444060893
:400BC000081009040A880B420D040E020F4410641202161419011C041F0421C022042708280129012A082B042C012F99301032423308340435483623380A39903C083D08FE
:400C00003F628440862087058B1C8F80904A91189342960899C89A18A024A221A39CA580A858A902AB19AD08AF80B340C0EFC2FFC46FCAFFCCFFCEFFE020E2C0E680EC80B5
:400C400032403302340235808580CCF0E2108402870296809C02A702E210E640024052408A409680C010D4208E40968084045220848085049C04D404862095089C84A62027
:400C800008840D0495089C84A220C20E56208E20D440622063028701A220D602D80200010101080109010A010B010C01100111011A011B011C0100AB0408080008000000B5
:400CC00000080008000000004000000000000000C000000000CBCB00C000000000020200020000000001010001000000000000000000000000000000000000000000000085
:400D000000000000000000000000000000000000000000000000000000000000000000000000000000000000000000000000000000000000000000000000000000000000B3
:400D40000000000000000000000000000000000000000000000000000000000000000000000000000000000000000000000000000000000000000000000000000000000073
:400D80000000000000000000000000000000000000000000000000000000000000000000000000000000000000000000000000000000000000000000000000000000000033
:400DC00000000000000000000000000000000000000000000000000000000000000000000000000000000000000000000000000000000000000000000000000000000000F3
:0200000490006A
:0400000000004005B7
:0200000490105A
:04000000BC90ACAF55
:0200000490303A
:02000000C4F149
:0200000490402A
:4000000000000000000000000000000000000000000000000000000000000000000000000000000000000000000000000000000000000000000000000000000000000000C0
:400040000000000000000000000000000000000000000000000000000000000000000000000000000000000000000000000000000000000000000000000000000000000080
:400080000000000000000000000000000000000000000000000000000000000000000000000000000000000000000000000000000000000000000000000000000000000040
:4000C0000000000000000000000000000000000000000000000000000000000000000000000000000000000000000000000000000000000000000000000000000000000000
:0200000490501A
:0C00000000012E16106900012E2ED55AAA
:00000001FF