:020000040000FA
:020000000528D1
:040002000034003492
:020008000900ED
:06000A0021003F308C00D4
:10001000260004308C00270092309A0027009C01B3
:100020009D0123309E0063309F003E00043090000D
:100030000A3092001F309300940095000030910028
:100040000830960002309700980199012D00951311
:100050000430950096019101930194019801990152
:100060000A309200A83097008B133C0055308F0067
:10007000AA308F000F103D00083090003D0009307D
:1000800091003C0055308F00AA308F000F148B1761
:100090002D00951720008C0122008C0123008C017B
:1000A00025008C01210008308C00240008308C00D1
:1000B00020001130A20020000130A300A400200085
:1000C0000430A5002000A6017030840000308500B7
:1000D0002000A503031971280330860087308700AC
:1000E000AA2820000430A5002000A60A2608200027
:1000F000A000A00B80280F30860087308700AA2838
:10010000A00B87281B30860087308700AA28A00B09
:100110008E282730860087308700AA28A00B9528D4
:100120003330860087308700AA28A00B9C283F30F8
:10013000860087308700AA28A00BA3284B308600B2
:1001400087308700AA282000A60157308600873014
:100150008700AA2820000C30A00016001A00A00377
:10016000031DAD2800308500703084003E009017DC
:10017000270001301C109C172D009713270000004A
:100180000000000000000000000000000000F0354A
:1001900003189C060000F03503189C060000F0359B
:1001A00003189C060000F03503189C060000F0358B
:1001B00003189C060000F03503189C060000F0357B
:1001C00003189C060000F03503189C060000F1356A
:1001D00003189C060000F13503189C060000F13559
:1001E00003189C060000F13503189C060000F13549
:1001F00003189C060000F13503189C060000F13539
:1002000003189C060000F13503189C060000F23527
:1002100003189C060000F23503189C060000F23516
:1002200003189C060000F23503189C060000F23506
:1002300003189C060000F23503189C060000F235F6
:1002400003189C060000F23503189C060000F335E5
:1002500003189C060000F33503189C060000F335D4
:1002600003189C060000F33503189C060000F335C4
:1002700003189C060000F33503189C060000F335B4
:1002800003189C060000F33503189C060000F435A3
:1002900003189C060000F43503189C060000F43592
:1002A00003189C060000F43503189C060000F43582
:1002B00003189C060000F43503189C060000F43572
:1002C00003189C060000F43503189C060000F53561
:1002D00003189C060000F53503189C060000F53550
:1002E00003189C060000F53503189C060000F53540
:1002F00003189C060000F53503189C060000F53530
:1003000003189C060000F53503189C060000F6351E
:1003100003189C060000F63503189C060000F6350D
:1003200003189C060000F63503189C060000F635FD
:1003300003189C060000F63503189C060000F635ED
:1003400003189C060000F63503189C060000F735DC
:1003500003189C060000F73503189C060000F735CB
:1003600003189C060000F73503189C060000F735BB
:1003700003189C060000F73503189C060000F735AB
:1003800003189C060000F73503189C060000F8359A
:1003900003189C060000F83503189C060000F83589
:1003A00003189C060000F83503189C060000F83579
:1003B00003189C060000F83503189C060000F83569
:1003C00003189C060000F83503189C060000F93558
:1003D00003189C060000F93503189C060000F93547
:1003E00003189C060000F93503189C060000F93537
:1003F00003189C060000F93503189C060000F93527
:1004000003189C060000F93503189C060000FA3515
:1004100003189C060000FA3503189C060000FA3504
:1004200003189C060000FA3503189C060000FA35F4
:1004300003189C060000FA3503189C060000FA35E4
:1004400003189C060000FA3503189C060000FB35D3
:1004500003189C060000FB3503189C060000FB35C2
:1004600003189C060000FB3503189C060000FB35B2
:1004700003189C060000FB3503189C060000FB35A2
:1004800003189C060000FB3503189C0600000000C2
:1004900000001C1000000000000000000000000030
:1004A00000000000000000002D00971727001C101E
:1004B0002000CF30A0000830A100A00B602AA10BC3
:1004C0005D2A622A200022080F39A100A630A00070
:1004D000A00B682AA10B662AA20C0318A217200001
:1004E000A30F64287F30A30020000C112000A40B70
:0C04F00064280430A40020000C156428CF
:100E00004D3456340001F93416343B34FB34C234CB
:100E1000F1340A34DC3412343834C334F034F93465
:100E20001634D7347C343234043485345834F534B1
:100E300092343034FC34F9341634D43422344B3404
:100E4000C734A33488343A349E340C34C034F93473
:100E500016343634B43473342D3456345834F934AB
:100E60005134FC34F334F9341634DA343E34233458
:100E70006434AD347434C9345134FC343334F9340B
:100E800016343534D2344E344A344A345B34F53473
:100E900091343F340C34F9341634D934B734133424
:100EA0009034BD3457343A3491340334F334F93444
:100EB0001634D734713448348B3490346434C534A8
:0A0EC0005234FF34FF344D34563431
:020000040001F9
:02000E009A173F
:02001000F23FBD
:02001200FF3FAE
:02001400FF3FAC
:00000001FF
